{
  "contractName": "GST_Token",
  "abi": [
    {
      "inputs": [
        {
          "internalType": "string",
          "name": "name",
          "type": "string"
        },
        {
          "internalType": "string",
          "name": "symbol",
          "type": "string"
        },
        {
          "internalType": "uint256",
          "name": "initialSupply",
          "type": "uint256"
        }
      ],
      "stateMutability": "nonpayable",
      "type": "constructor"
    },
    {
      "anonymous": false,
      "inputs": [
        {
          "indexed": true,
          "internalType": "address",
          "name": "owner",
          "type": "address"
        },
        {
          "indexed": true,
          "internalType": "address",
          "name": "spender",
          "type": "address"
        },
        {
          "indexed": false,
          "internalType": "uint256",
          "name": "value",
          "type": "uint256"
        }
      ],
      "name": "Approval",
      "type": "event"
    },
    {
      "anonymous": false,
      "inputs": [
        {
          "indexed": false,
          "internalType": "address",
          "name": "user",
          "type": "address"
        }
      ],
      "name": "ChecksoloAdmin",
      "type": "event"
    },
    {
      "anonymous": false,
      "inputs": [
        {
          "indexed": false,
          "internalType": "address",
          "name": "user",
          "type": "address"
        }
      ],
      "name": "ChecksoloMinters",
      "type": "event"
    },
    {
      "anonymous": false,
      "inputs": [
        {
          "indexed": false,
          "internalType": "address",
          "name": "user",
          "type": "address"
        },
        {
          "indexed": false,
          "internalType": "address",
          "name": "sender",
          "type": "address"
        },
        {
          "indexed": false,
          "internalType": "bytes32",
          "name": "role",
          "type": "bytes32"
        },
        {
          "indexed": false,
          "internalType": "bytes32",
          "name": "adminRole",
          "type": "bytes32"
        },
        {
          "indexed": false,
          "internalType": "bytes32",
          "name": "senderRole",
          "type": "bytes32"
        }
      ],
      "name": "Debug",
      "type": "event"
    },
    {
      "anonymous": false,
      "inputs": [
        {
          "indexed": true,
          "internalType": "bytes32",
          "name": "role",
          "type": "bytes32"
        },
        {
          "indexed": true,
          "internalType": "bytes32",
          "name": "previousAdminRole",
          "type": "bytes32"
        },
        {
          "indexed": true,
          "internalType": "bytes32",
          "name": "newAdminRole",
          "type": "bytes32"
        }
      ],
      "name": "RoleAdminChanged",
      "type": "event"
    },
    {
      "anonymous": false,
      "inputs": [
        {
          "indexed": true,
          "internalType": "bytes32",
          "name": "role",
          "type": "bytes32"
        },
        {
          "indexed": true,
          "internalType": "address",
          "name": "account",
          "type": "address"
        },
        {
          "indexed": true,
          "internalType": "address",
          "name": "sender",
          "type": "address"
        }
      ],
      "name": "RoleGranted",
      "type": "event"
    },
    {
      "anonymous": false,
      "inputs": [
        {
          "indexed": true,
          "internalType": "bytes32",
          "name": "role",
          "type": "bytes32"
        },
        {
          "indexed": true,
          "internalType": "address",
          "name": "account",
          "type": "address"
        },
        {
          "indexed": true,
          "internalType": "address",
          "name": "sender",
          "type": "address"
        }
      ],
      "name": "RoleRevoked",
      "type": "event"
    },
    {
      "anonymous": false,
      "inputs": [
        {
          "indexed": true,
          "internalType": "address",
          "name": "from",
          "type": "address"
        },
        {
          "indexed": true,
          "internalType": "address",
          "name": "to",
          "type": "address"
        },
        {
          "indexed": false,
          "internalType": "uint256",
          "name": "value",
          "type": "uint256"
        }
      ],
      "name": "Transfer",
      "type": "event"
    },
    {
      "inputs": [],
      "name": "DEFAULT_ADMIN_ROLE",
      "outputs": [
        {
          "internalType": "bytes32",
          "name": "",
          "type": "bytes32"
        }
      ],
      "stateMutability": "view",
      "type": "function",
      "constant": true
    },
    {
      "inputs": [],
      "name": "MINTER_ROLE",
      "outputs": [
        {
          "internalType": "bytes32",
          "name": "",
          "type": "bytes32"
        }
      ],
      "stateMutability": "view",
      "type": "function",
      "constant": true
    },
    {
      "inputs": [
        {
          "internalType": "address",
          "name": "owner",
          "type": "address"
        },
        {
          "internalType": "address",
          "name": "spender",
          "type": "address"
        }
      ],
      "name": "allowance",
      "outputs": [
        {
          "internalType": "uint256",
          "name": "",
          "type": "uint256"
        }
      ],
      "stateMutability": "view",
      "type": "function",
      "constant": true
    },
    {
      "inputs": [
        {
          "internalType": "address",
          "name": "spender",
          "type": "address"
        },
        {
          "internalType": "uint256",
          "name": "amount",
          "type": "uint256"
        }
      ],
      "name": "approve",
      "outputs": [
        {
          "internalType": "bool",
          "name": "",
          "type": "bool"
        }
      ],
      "stateMutability": "nonpayable",
      "type": "function"
    },
    {
      "inputs": [
        {
          "internalType": "address",
          "name": "account",
          "type": "address"
        }
      ],
      "name": "balanceOf",
      "outputs": [
        {
          "internalType": "uint256",
          "name": "",
          "type": "uint256"
        }
      ],
      "stateMutability": "view",
      "type": "function",
      "constant": true
    },
    {
      "inputs": [],
      "name": "decimals",
      "outputs": [
        {
          "internalType": "uint8",
          "name": "",
          "type": "uint8"
        }
      ],
      "stateMutability": "view",
      "type": "function",
      "constant": true
    },
    {
      "inputs": [
        {
          "internalType": "address",
          "name": "spender",
          "type": "address"
        },
        {
          "internalType": "uint256",
          "name": "subtractedValue",
          "type": "uint256"
        }
      ],
      "name": "decreaseAllowance",
      "outputs": [
        {
          "internalType": "bool",
          "name": "",
          "type": "bool"
        }
      ],
      "stateMutability": "nonpayable",
      "type": "function"
    },
    {
      "inputs": [
        {
          "internalType": "bytes32",
          "name": "role",
          "type": "bytes32"
        }
      ],
      "name": "getRoleAdmin",
      "outputs": [
        {
          "internalType": "bytes32",
          "name": "",
          "type": "bytes32"
        }
      ],
      "stateMutability": "view",
      "type": "function",
      "constant": true
    },
    {
      "inputs": [
        {
          "internalType": "bytes32",
          "name": "role",
          "type": "bytes32"
        },
        {
          "internalType": "address",
          "name": "account",
          "type": "address"
        }
      ],
      "name": "grantRole",
      "outputs": [],
      "stateMutability": "nonpayable",
      "type": "function"
    },
    {
      "inputs": [
        {
          "internalType": "bytes32",
          "name": "role",
          "type": "bytes32"
        },
        {
          "internalType": "address",
          "name": "account",
          "type": "address"
        }
      ],
      "name": "hasRole",
      "outputs": [
        {
          "internalType": "bool",
          "name": "",
          "type": "bool"
        }
      ],
      "stateMutability": "view",
      "type": "function",
      "constant": true
    },
    {
      "inputs": [
        {
          "internalType": "address",
          "name": "spender",
          "type": "address"
        },
        {
          "internalType": "uint256",
          "name": "addedValue",
          "type": "uint256"
        }
      ],
      "name": "increaseAllowance",
      "outputs": [
        {
          "internalType": "bool",
          "name": "",
          "type": "bool"
        }
      ],
      "stateMutability": "nonpayable",
      "type": "function"
    },
    {
      "inputs": [],
      "name": "name",
      "outputs": [
        {
          "internalType": "string",
          "name": "",
          "type": "string"
        }
      ],
      "stateMutability": "view",
      "type": "function",
      "constant": true
    },
    {
      "inputs": [
        {
          "internalType": "uint256",
          "name": "",
          "type": "uint256"
        }
      ],
      "name": "products",
      "outputs": [
        {
          "internalType": "uint256",
          "name": "id",
          "type": "uint256"
        },
        {
          "internalType": "string",
          "name": "picture",
          "type": "string"
        },
        {
          "internalType": "string",
          "name": "name",
          "type": "string"
        },
        {
          "internalType": "uint256",
          "name": "price",
          "type": "uint256"
        },
        {
          "internalType": "string",
          "name": "console",
          "type": "string"
        }
      ],
      "stateMutability": "view",
      "type": "function",
      "constant": true
    },
    {
      "inputs": [
        {
          "internalType": "bytes32",
          "name": "role",
          "type": "bytes32"
        },
        {
          "internalType": "address",
          "name": "account",
          "type": "address"
        }
      ],
      "name": "renounceRole",
      "outputs": [],
      "stateMutability": "nonpayable",
      "type": "function"
    },
    {
      "inputs": [
        {
          "internalType": "bytes32",
          "name": "role",
          "type": "bytes32"
        },
        {
          "internalType": "address",
          "name": "account",
          "type": "address"
        }
      ],
      "name": "revokeRole",
      "outputs": [],
      "stateMutability": "nonpayable",
      "type": "function"
    },
    {
      "inputs": [
        {
          "internalType": "bytes4",
          "name": "interfaceId",
          "type": "bytes4"
        }
      ],
      "name": "supportsInterface",
      "outputs": [
        {
          "internalType": "bool",
          "name": "",
          "type": "bool"
        }
      ],
      "stateMutability": "view",
      "type": "function",
      "constant": true
    },
    {
      "inputs": [],
      "name": "symbol",
      "outputs": [
        {
          "internalType": "string",
          "name": "",
          "type": "string"
        }
      ],
      "stateMutability": "view",
      "type": "function",
      "constant": true
    },
    {
      "inputs": [],
      "name": "totalSupply",
      "outputs": [
        {
          "internalType": "uint256",
          "name": "",
          "type": "uint256"
        }
      ],
      "stateMutability": "view",
      "type": "function",
      "constant": true
    },
    {
      "inputs": [
        {
          "internalType": "address",
          "name": "to",
          "type": "address"
        },
        {
          "internalType": "uint256",
          "name": "amount",
          "type": "uint256"
        }
      ],
      "name": "transfer",
      "outputs": [
        {
          "internalType": "bool",
          "name": "",
          "type": "bool"
        }
      ],
      "stateMutability": "nonpayable",
      "type": "function"
    },
    {
      "inputs": [
        {
          "internalType": "address",
          "name": "from",
          "type": "address"
        },
        {
          "internalType": "address",
          "name": "to",
          "type": "address"
        },
        {
          "internalType": "uint256",
          "name": "amount",
          "type": "uint256"
        }
      ],
      "name": "transferFrom",
      "outputs": [
        {
          "internalType": "bool",
          "name": "",
          "type": "bool"
        }
      ],
      "stateMutability": "nonpayable",
      "type": "function"
    },
    {
      "inputs": [],
      "name": "preloadProduct",
      "outputs": [],
      "stateMutability": "nonpayable",
      "type": "function"
    },
    {
      "inputs": [],
      "name": "getAllProduct",
      "outputs": [
        {
          "components": [
            {
              "internalType": "uint256",
              "name": "id",
              "type": "uint256"
            },
            {
              "internalType": "string",
              "name": "picture",
              "type": "string"
            },
            {
              "internalType": "string",
              "name": "name",
              "type": "string"
            },
            {
              "internalType": "uint256",
              "name": "price",
              "type": "uint256"
            },
            {
              "internalType": "string",
              "name": "console",
              "type": "string"
            }
          ],
          "internalType": "struct GST_Token.Product[]",
          "name": "",
          "type": "tuple[]"
        }
      ],
      "stateMutability": "view",
      "type": "function",
      "constant": true
    },
    {
      "inputs": [
        {
          "internalType": "uint256",
          "name": "id",
          "type": "uint256"
        },
        {
          "internalType": "string",
          "name": "name",
          "type": "string"
        },
        {
          "internalType": "uint256",
          "name": "price",
          "type": "uint256"
        },
        {
          "internalType": "string",
          "name": "console",
          "type": "string"
        }
      ],
      "name": "modifyProdId",
      "outputs": [],
      "stateMutability": "nonpayable",
      "type": "function"
    },
    {
      "inputs": [
        {
          "internalType": "string",
          "name": "name",
          "type": "string"
        },
        {
          "internalType": "string",
          "name": "picture",
          "type": "string"
        },
        {
          "internalType": "uint256",
          "name": "price",
          "type": "uint256"
        },
        {
          "internalType": "string",
          "name": "console",
          "type": "string"
        }
      ],
      "name": "addProduct",
      "outputs": [],
      "stateMutability": "nonpayable",
      "type": "function"
    },
    {
      "inputs": [
        {
          "internalType": "uint256",
          "name": "amount",
          "type": "uint256"
        }
      ],
      "name": "buyProduct",
      "outputs": [
        {
          "internalType": "bool",
          "name": "",
          "type": "bool"
        }
      ],
      "stateMutability": "nonpayable",
      "type": "function"
    },
    {
      "inputs": [],
      "name": "getOwner",
      "outputs": [
        {
          "internalType": "address",
          "name": "",
          "type": "address"
        }
      ],
      "stateMutability": "view",
      "type": "function",
      "constant": true
    },
    {
      "inputs": [
        {
          "internalType": "address",
          "name": "account",
          "type": "address"
        }
      ],
      "name": "isAdmin",
      "outputs": [
        {
          "internalType": "bool",
          "name": "",
          "type": "bool"
        }
      ],
      "stateMutability": "view",
      "type": "function",
      "constant": true
    },
    {
      "inputs": [
        {
          "internalType": "address",
          "name": "account",
          "type": "address"
        }
      ],
      "name": "isMinter",
      "outputs": [
        {
          "internalType": "bool",
          "name": "",
          "type": "bool"
        }
      ],
      "stateMutability": "view",
      "type": "function",
      "constant": true
    },
    {
      "inputs": [
        {
          "internalType": "address",
          "name": "to",
          "type": "address"
        },
        {
          "internalType": "uint256",
          "name": "amount",
          "type": "uint256"
        }
      ],
      "name": "mint",
      "outputs": [],
      "stateMutability": "nonpayable",
      "type": "function"
    },
    {
      "inputs": [
        {
          "internalType": "address",
          "name": "to",
          "type": "address"
        }
      ],
      "name": "addMinterRole",
      "outputs": [],
      "stateMutability": "nonpayable",
      "type": "function"
    },
    {
      "inputs": [
        {
          "internalType": "address",
          "name": "to",
          "type": "address"
        }
      ],
      "name": "removeMinterRole",
      "outputs": [],
      "stateMutability": "nonpayable",
      "type": "function"
    }
  ],
  "bytecode": "0x60806040523480156200001157600080fd5b50604051620058c6380380620058c683398181016040528101906200003791906200117d565b828281600390816200004a919062001458565b5080600490816200005c919062001458565b5050506200007133826200011d60201b60201c565b33600660006101000a81548173ffffffffffffffffffffffffffffffffffffffff021916908373ffffffffffffffffffffffffffffffffffffffff1602179055506000600781905550620000cf6000801b336200028a60201b60201c565b620001047f9f2df0fed2c77648de5860a4cc508cd0818c85b8b8a1ab4ceeef8d981c8956a66000801b620002a060201b60201c565b620001146200030460201b60201c565b5050506200165a565b600073ffffffffffffffffffffffffffffffffffffffff168273ffffffffffffffffffffffffffffffffffffffff16036200018f576040517f08c379a00000000000000000000000000000000000000000000000000000000081526004016200018690620015a0565b60405180910390fd5b620001a36000838362000e2060201b60201c565b8060026000828254620001b79190620015f1565b92505081905550806000808473ffffffffffffffffffffffffffffffffffffffff1673ffffffffffffffffffffffffffffffffffffffff168152602001908152602001600020600082825401925050819055508173ffffffffffffffffffffffffffffffffffffffff16600073ffffffffffffffffffffffffffffffffffffffff167fddf252ad1be2c89b69c2b068fc378daa952ba7f163c4a11628f55a4df523b3ef836040516200026a91906200163d565b60405180910390a3620002866000838362000e2560201b60201c565b5050565b6200029c828262000e2a60201b60201c565b5050565b6000620002b38362000f1c60201b60201c565b90508160056000858152602001908152602001600020600101819055508181847fbd79b86ffe0ab8e8776151514217cd7cacd52c909f66475c3af44e129f0b00ff60405160405180910390a4505050565b6040518060a00160405280600081526020016040518060400160405280601381526020017f696d616765732f476f644f665761722e6a70670000000000000000000000000081525081526020016040518060400160405280601381526020017f476f64204f6620576172205261676e61726f6b000000000000000000000000008152508152602001604681526020016040518060400160405280600d81526020017f506c617953746174696f6e2035000000000000000000000000000000000000008152508152506008600080815260200190815260200160002060008201518160000155602082015181600101908162000400919062001458565b50604082015181600201908162000418919062001458565b506060820151816003015560808201518160040190816200043a919062001458565b509050506040518060a00160405280600181526020016040518060400160405280600e81526020017f696d616765732f4d57322e6a706700000000000000000000000000000000000081525081526020016040518060400160405280601f81526020017f43616c6c206f6620447574793a204d6f6465726e2057617266617265204949008152508152602001604b81526020016040518060400160405280600d81526020017f506c617953746174696f6e20350000000000000000000000000000000000000081525081525060086000600181526020019081526020016000206000820151816000015560208201518160010190816200053b919062001458565b50604082015181600201908162000553919062001458565b5060608201518160030155608082015181600401908162000575919062001458565b509050506040518060a00160405280600281526020016040518060400160405280601281526020017f696d616765732f486f72697a6f6e2e6a7067000000000000000000000000000081525081526020016040518060400160405280601781526020017f486f72697a6f6e3a20466f7262696464656e20576573740000000000000000008152508152602001603581526020016040518060400160405280600d81526020017f506c617953746174696f6e203500000000000000000000000000000000000000815250815250600860006002815260200190815260200160002060008201518160000155602082015181600101908162000676919062001458565b5060408201518160020190816200068e919062001458565b50606082015181600301556080820151816004019081620006b0919062001458565b509050506040518060a00160405280600381526020016040518060400160405280601281526020017f696d616765732f466172437279362e6a7067000000000000000000000000000081525081526020016040518060400160405280600981526020017f46617220437279203600000000000000000000000000000000000000000000008152508152602001601481526020016040518060400160405280600d81526020017f58626f78205365726965732058000000000000000000000000000000000000008152508152506008600060038152602001908152602001600020600082015181600001556020820151816001019081620007b1919062001458565b506040820151816002019081620007c9919062001458565b50606082015181600301556080820151816004019081620007eb919062001458565b509050506040518060a00160405280600481526020016040518060400160405280601b81526020017f696d616765732f43616c6c6973746f50726f746f636f6c2e6a7067000000000081525081526020016040518060400160405280601581526020017f5468652043616c6c6973746f2050726f746f636f6c00000000000000000000008152508152602001603781526020016040518060400160405280600d81526020017f58626f78205365726965732058000000000000000000000000000000000000008152508152506008600060048152602001908152602001600020600082015181600001556020820151816001019081620008ec919062001458565b50604082015181600201908162000904919062001458565b5060608201518160030155608082015181600401908162000926919062001458565b509050506040518060a00160405280600581526020016040518060400160405280601081526020017f696d616765732f4d6574726f2e6a70670000000000000000000000000000000081525081526020016040518060400160405280600c81526020017f4d6574726f2045786f64757300000000000000000000000000000000000000008152508152602001601e81526020016040518060400160405280600d81526020017f58626f7820536572696573205800000000000000000000000000000000000000815250815250600860006005815260200190815260200160002060008201518160000155602082015181600101908162000a27919062001458565b50604082015181600201908162000a3f919062001458565b5060608201518160030155608082015181600401908162000a61919062001458565b509050506040518060a00160405280600681526020016040518060400160405280601481526020017f696d616765732f4d6172696f42726f732e6a706700000000000000000000000081525081526020016040518060400160405280601481526020017f4e6577205375706572204d6172696f2042726f730000000000000000000000008152508152602001603281526020016040518060400160405280600f81526020017f4e696e74656e646f205377697463680000000000000000000000000000000000815250815250600860006006815260200190815260200160002060008201518160000155602082015181600101908162000b62919062001458565b50604082015181600201908162000b7a919062001458565b5060608201518160030155608082015181600401908162000b9c919062001458565b509050506040518060a00160405280600781526020016040518060400160405280601281526020017f696d616765732f506f6b656d6f6e2e6a7067000000000000000000000000000081525081526020016040518060400160405280601181526020017f506f6b656d6f6e2056696f6c6574746f200000000000000000000000000000008152508152602001603081526020016040518060400160405280600f81526020017f4e696e74656e646f205377697463680000000000000000000000000000000000815250815250600860006007815260200190815260200160002060008201518160000155602082015181600101908162000c9d919062001458565b50604082015181600201908162000cb5919062001458565b5060608201518160030155608082015181600401908162000cd7919062001458565b509050506040518060a00160405280600881526020016040518060400160405280601981526020017f696d616765732f416e696d616c43726f7373696e672e6a70670000000000000081525081526020016040518060400160405280601d81526020017f416e696d616c2043726f7373696e673a204e657720486f72697a6f6e730000008152508152602001603a81526020016040518060400160405280600f81526020017f4e696e74656e646f205377697463680000000000000000000000000000000000815250815250600860006008815260200190815260200160002060008201518160000155602082015181600101908162000dd8919062001458565b50604082015181600201908162000df0919062001458565b5060608201518160030155608082015181600401908162000e12919062001458565b509050506009600781905550565b505050565b505050565b62000e3c828262000f3c60201b60201c565b62000f185760016005600084815260200190815260200160002060000160008373ffffffffffffffffffffffffffffffffffffffff1673ffffffffffffffffffffffffffffffffffffffff16815260200190815260200160002060006101000a81548160ff02191690831515021790555062000ebd62000fa760201b60201c565b73ffffffffffffffffffffffffffffffffffffffff168173ffffffffffffffffffffffffffffffffffffffff16837f2f8788117e7eff1d82e926ec794901d17c78024a50270940304540a733656f0d60405160405180910390a45b5050565b600060056000838152602001908152602001600020600101549050919050565b60006005600084815260200190815260200160002060000160008373ffffffffffffffffffffffffffffffffffffffff1673ffffffffffffffffffffffffffffffffffffffff16815260200190815260200160002060009054906101000a900460ff16905092915050565b600033905090565b6000604051905090565b600080fd5b600080fd5b600080fd5b600080fd5b6000601f19601f8301169050919050565b7f4e487b7100000000000000000000000000000000000000000000000000000000600052604160045260246000fd5b620010188262000fcd565b810181811067ffffffffffffffff821117156200103a576200103962000fde565b5b80604052505050565b60006200104f62000faf565b90506200105d82826200100d565b919050565b600067ffffffffffffffff82111562001080576200107f62000fde565b5b6200108b8262000fcd565b9050602081019050919050565b60005b83811015620010b85780820151818401526020810190506200109b565b60008484015250505050565b6000620010db620010d58462001062565b62001043565b905082815260208101848484011115620010fa57620010f962000fc8565b5b6200110784828562001098565b509392505050565b600082601f83011262001127576200112662000fc3565b5b815162001139848260208601620010c4565b91505092915050565b6000819050919050565b620011578162001142565b81146200116357600080fd5b50565b60008151905062001177816200114c565b92915050565b60008060006060848603121562001199576200119862000fb9565b5b600084015167ffffffffffffffff811115620011ba57620011b962000fbe565b5b620011c8868287016200110f565b935050602084015167ffffffffffffffff811115620011ec57620011eb62000fbe565b5b620011fa868287016200110f565b92505060406200120d8682870162001166565b9150509250925092565b600081519050919050565b7f4e487b7100000000000000000000000000000000000000000000000000000000600052602260045260246000fd5b600060028204905060018216806200126a57607f821691505b60208210810362001280576200127f62001222565b5b50919050565b60008190508160005260206000209050919050565b60006020601f8301049050919050565b600082821b905092915050565b600060088302620012ea7fffffffffffffffffffffffffffffffffffffffffffffffffffffffffffffffff82620012ab565b620012f68683620012ab565b95508019841693508086168417925050509392505050565b6000819050919050565b600062001339620013336200132d8462001142565b6200130e565b62001142565b9050919050565b6000819050919050565b620013558362001318565b6200136d620013648262001340565b848454620012b8565b825550505050565b600090565b6200138462001375565b620013918184846200134a565b505050565b5b81811015620013b957620013ad6000826200137a565b60018101905062001397565b5050565b601f8211156200140857620013d28162001286565b620013dd846200129b565b81016020851015620013ed578190505b62001405620013fc856200129b565b83018262001396565b50505b505050565b600082821c905092915050565b60006200142d600019846008026200140d565b1980831691505092915050565b60006200144883836200141a565b9150826002028217905092915050565b620014638262001217565b67ffffffffffffffff8111156200147f576200147e62000fde565b5b6200148b825462001251565b62001498828285620013bd565b600060209050601f831160018114620014d05760008415620014bb578287015190505b620014c785826200143a565b86555062001537565b601f198416620014e08662001286565b60005b828110156200150a57848901518255600182019150602085019450602081019050620014e3565b868310156200152a578489015162001526601f8916826200141a565b8355505b6001600288020188555050505b505050505050565b600082825260208201905092915050565b7f45524332303a206d696e7420746f20746865207a65726f206164647265737300600082015250565b600062001588601f836200153f565b9150620015958262001550565b602082019050919050565b60006020820190508181036000830152620015bb8162001579565b9050919050565b7f4e487b7100000000000000000000000000000000000000000000000000000000600052601160045260246000fd5b6000620015fe8262001142565b91506200160b8362001142565b9250828201905080821115620016265762001625620015c2565b5b92915050565b620016378162001142565b82525050565b60006020820190506200165460008301846200162c565b92915050565b61425c806200166a6000396000f3fe608060405234801561001057600080fd5b50600436106101e55760003560e01c80638642269e1161010f578063aa271e1a116100a2578063d539139311610071578063d5391393146105e2578063d547741f14610600578063dd62ed3e1461061c578063f800d3321461064c576101e5565b8063aa271e1a1461055c578063adbf37761461058c578063bece8748146105a8578063d055a75f146105c4576101e5565b80639a743b3a116100de5780639a743b3a146104d4578063a217fddf146104de578063a457c2d7146104fc578063a9059cbb1461052c576101e5565b80638642269e14610438578063893d20e81461046857806391d148541461048657806395d89b41146104b6576101e5565b80632f2ff15d1161018757806340c10f191161015657806340c10f191461039c57806354f1e126146103b857806370a08231146103d45780637acc0b2014610404576101e5565b80632f2ff15d14610316578063313ce5671461033257806336568abe14610350578063395093511461036c576101e5565b806318160ddd116101c357806318160ddd1461026857806323b872dd14610286578063248a9ca3146102b657806324d7806c146102e6576101e5565b806301ffc9a7146101ea57806306fdde031461021a578063095ea7b314610238575b600080fd5b61020460048036038101906101ff9190612da2565b610668565b6040516102119190612dea565b60405180910390f35b6102226106e2565b60405161022f9190612e95565b60405180910390f35b610252600480360381019061024d9190612f4b565b610774565b60405161025f9190612dea565b60405180910390f35b610270610797565b60405161027d9190612f9a565b60405180910390f35b6102a0600480360381019061029b9190612fb5565b6107a1565b6040516102ad9190612dea565b60405180910390f35b6102d060048036038101906102cb919061303e565b6107d0565b6040516102dd919061307a565b60405180910390f35b61030060048036038101906102fb9190613095565b6107f0565b60405161030d9190612dea565b60405180910390f35b610330600480360381019061032b91906130c2565b610806565b005b61033a610827565b604051610347919061311e565b60405180910390f35b61036a600480360381019061036591906130c2565b610830565b005b61038660048036038101906103819190612f4b565b6108b3565b6040516103939190612dea565b60405180910390f35b6103b660048036038101906103b19190612f4b565b6108ea565b005b6103d260048036038101906103cd9190613095565b610977565b005b6103ee60048036038101906103e99190613095565b6109a4565b6040516103fb9190612f9a565b60405180910390f35b61041e60048036038101906104199190613139565b6109ec565b60405161042f959493929190613166565b60405180910390f35b610452600480360381019061044d9190613139565b610bba565b60405161045f9190612dea565b60405180910390f35b610470610bef565b60405161047d91906131dd565b60405180910390f35b6104a0600480360381019061049b91906130c2565b610c19565b6040516104ad9190612dea565b60405180910390f35b6104be610c84565b6040516104cb9190612e95565b60405180910390f35b6104dc610d16565b005b6104e66117fc565b6040516104f3919061307a565b60405180910390f35b61051660048036038101906105119190612f4b565b611803565b6040516105239190612dea565b60405180910390f35b61054660048036038101906105419190612f4b565b61187a565b6040516105539190612dea565b60405180910390f35b61057660048036038101906105719190613095565b61189d565b6040516105839190612dea565b60405180910390f35b6105a660048036038101906105a19190613095565b6118d0565b005b6105c260048036038101906105bd919061332d565b611a06565b005b6105cc611d15565b6040516105d9919061356b565b60405180910390f35b6105ea611f9f565b6040516105f7919061307a565b60405180910390f35b61061a600480360381019061061591906130c2565b611fc3565b005b6106366004803603810190610631919061358d565b611fe4565b6040516106439190612f9a565b60405180910390f35b610666600480360381019061066191906135cd565b61206b565b005b60007f7965db0b000000000000000000000000000000000000000000000000000000007bffffffffffffffffffffffffffffffffffffffffffffffffffffffff1916827bffffffffffffffffffffffffffffffffffffffffffffffffffffffff191614806106db57506106da826121a5565b5b9050919050565b6060600380546106f1906136b7565b80601f016020809104026020016040519081016040528092919081815260200182805461071d906136b7565b801561076a5780601f1061073f5761010080835404028352916020019161076a565b820191906000526020600020905b81548152906001019060200180831161074d57829003601f168201915b5050505050905090565b60008061077f61220f565b905061078c818585612217565b600191505092915050565b6000600254905090565b6000806107ac61220f565b90506107b98582856123e0565b6107c485858561246c565b60019150509392505050565b600060056000838152602001908152602001600020600101549050919050565b60006107ff6000801b83610c19565b9050919050565b61080f826107d0565b610818816126e2565b61082283836126f6565b505050565b60006012905090565b61083861220f565b73ffffffffffffffffffffffffffffffffffffffff168173ffffffffffffffffffffffffffffffffffffffff16146108a5576040517f08c379a000000000000000000000000000000000000000000000000000000000815260040161089c9061375a565b60405180910390fd5b6108af82826127d7565b5050565b6000806108be61220f565b90506108df8185856108d08589611fe4565b6108da91906137a9565b612217565b600191505092915050565b7f30961df266e1c49061f4de998a0d33e0a256c0b6b9a896ed98ac9293063b7cc73360405161091991906131dd565b60405180910390a161092a3361189d565b610969576040517f08c379a000000000000000000000000000000000000000000000000000000000815260040161096090613829565b60405180910390fd5b61097382826128b9565b5050565b6109a17f9f2df0fed2c77648de5860a4cc508cd0818c85b8b8a1ab4ceeef8d981c8956a682610830565b50565b60008060008373ffffffffffffffffffffffffffffffffffffffff1673ffffffffffffffffffffffffffffffffffffffff168152602001908152602001600020549050919050565b6008602052806000526040600020600091509050806000015490806001018054610a15906136b7565b80601f0160208091040260200160405190810160405280929190818152602001828054610a41906136b7565b8015610a8e5780601f10610a6357610100808354040283529160200191610a8e565b820191906000526020600020905b815481529060010190602001808311610a7157829003601f168201915b505050505090806002018054610aa3906136b7565b80601f0160208091040260200160405190810160405280929190818152602001828054610acf906136b7565b8015610b1c5780601f10610af157610100808354040283529160200191610b1c565b820191906000526020600020905b815481529060010190602001808311610aff57829003601f168201915b505050505090806003015490806004018054610b37906136b7565b80601f0160208091040260200160405190810160405280929190818152602001828054610b63906136b7565b8015610bb05780601f10610b8557610100808354040283529160200191610bb0565b820191906000526020600020905b815481529060010190602001808311610b9357829003601f168201915b5050505050905085565b6000610be8600660009054906101000a900473ffffffffffffffffffffffffffffffffffffffff168361187a565b9050919050565b6000600660009054906101000a900473ffffffffffffffffffffffffffffffffffffffff16905090565b60006005600084815260200190815260200160002060000160008373ffffffffffffffffffffffffffffffffffffffff1673ffffffffffffffffffffffffffffffffffffffff16815260200190815260200160002060009054906101000a900460ff16905092915050565b606060048054610c93906136b7565b80601f0160208091040260200160405190810160405280929190818152602001828054610cbf906136b7565b8015610d0c5780601f10610ce157610100808354040283529160200191610d0c565b820191906000526020600020905b815481529060010190602001808311610cef57829003601f168201915b5050505050905090565b6040518060a00160405280600081526020016040518060400160405280601381526020017f696d616765732f476f644f665761722e6a70670000000000000000000000000081525081526020016040518060400160405280601381526020017f476f64204f6620576172205261676e61726f6b000000000000000000000000008152508152602001604681526020016040518060400160405280600d81526020017f506c617953746174696f6e20350000000000000000000000000000000000000081525081525060086000808152602001908152602001600020600082015181600001556020820151816001019081610e1091906139f5565b506040820151816002019081610e2691906139f5565b50606082015181600301556080820151816004019081610e4691906139f5565b509050506040518060a00160405280600181526020016040518060400160405280600e81526020017f696d616765732f4d57322e6a706700000000000000000000000000000000000081525081526020016040518060400160405280601f81526020017f43616c6c206f6620447574793a204d6f6465726e2057617266617265204949008152508152602001604b81526020016040518060400160405280600d81526020017f506c617953746174696f6e2035000000000000000000000000000000000000008152508152506008600060018152602001908152602001600020600082015181600001556020820151816001019081610f4591906139f5565b506040820151816002019081610f5b91906139f5565b50606082015181600301556080820151816004019081610f7b91906139f5565b509050506040518060a00160405280600281526020016040518060400160405280601281526020017f696d616765732f486f72697a6f6e2e6a7067000000000000000000000000000081525081526020016040518060400160405280601781526020017f486f72697a6f6e3a20466f7262696464656e20576573740000000000000000008152508152602001603581526020016040518060400160405280600d81526020017f506c617953746174696f6e203500000000000000000000000000000000000000815250815250600860006002815260200190815260200160002060008201518160000155602082015181600101908161107a91906139f5565b50604082015181600201908161109091906139f5565b506060820151816003015560808201518160040190816110b091906139f5565b509050506040518060a00160405280600381526020016040518060400160405280601281526020017f696d616765732f466172437279362e6a7067000000000000000000000000000081525081526020016040518060400160405280600981526020017f46617220437279203600000000000000000000000000000000000000000000008152508152602001601481526020016040518060400160405280600d81526020017f58626f782053657269657320580000000000000000000000000000000000000081525081525060086000600381526020019081526020016000206000820151816000015560208201518160010190816111af91906139f5565b5060408201518160020190816111c591906139f5565b506060820151816003015560808201518160040190816111e591906139f5565b509050506040518060a00160405280600481526020016040518060400160405280601b81526020017f696d616765732f43616c6c6973746f50726f746f636f6c2e6a7067000000000081525081526020016040518060400160405280601581526020017f5468652043616c6c6973746f2050726f746f636f6c00000000000000000000008152508152602001603781526020016040518060400160405280600d81526020017f58626f782053657269657320580000000000000000000000000000000000000081525081525060086000600481526020019081526020016000206000820151816000015560208201518160010190816112e491906139f5565b5060408201518160020190816112fa91906139f5565b5060608201518160030155608082015181600401908161131a91906139f5565b509050506040518060a00160405280600581526020016040518060400160405280601081526020017f696d616765732f4d6574726f2e6a70670000000000000000000000000000000081525081526020016040518060400160405280600c81526020017f4d6574726f2045786f64757300000000000000000000000000000000000000008152508152602001601e81526020016040518060400160405280600d81526020017f58626f7820536572696573205800000000000000000000000000000000000000815250815250600860006005815260200190815260200160002060008201518160000155602082015181600101908161141991906139f5565b50604082015181600201908161142f91906139f5565b5060608201518160030155608082015181600401908161144f91906139f5565b509050506040518060a00160405280600681526020016040518060400160405280601481526020017f696d616765732f4d6172696f42726f732e6a706700000000000000000000000081525081526020016040518060400160405280601481526020017f4e6577205375706572204d6172696f2042726f730000000000000000000000008152508152602001603281526020016040518060400160405280600f81526020017f4e696e74656e646f205377697463680000000000000000000000000000000000815250815250600860006006815260200190815260200160002060008201518160000155602082015181600101908161154e91906139f5565b50604082015181600201908161156491906139f5565b5060608201518160030155608082015181600401908161158491906139f5565b509050506040518060a00160405280600781526020016040518060400160405280601281526020017f696d616765732f506f6b656d6f6e2e6a7067000000000000000000000000000081525081526020016040518060400160405280601181526020017f506f6b656d6f6e2056696f6c6574746f200000000000000000000000000000008152508152602001603081526020016040518060400160405280600f81526020017f4e696e74656e646f205377697463680000000000000000000000000000000000815250815250600860006007815260200190815260200160002060008201518160000155602082015181600101908161168391906139f5565b50604082015181600201908161169991906139f5565b506060820151816003015560808201518160040190816116b991906139f5565b509050506040518060a00160405280600881526020016040518060400160405280601981526020017f696d616765732f416e696d616c43726f7373696e672e6a70670000000000000081525081526020016040518060400160405280601d81526020017f416e696d616c2043726f7373696e673a204e657720486f72697a6f6e730000008152508152602001603a81526020016040518060400160405280600f81526020017f4e696e74656e646f20537769746368000000000000000000000000000000000081525081525060086000600881526020019081526020016000206000820151816000015560208201518160010190816117b891906139f5565b5060408201518160020190816117ce91906139f5565b506060820151816003015560808201518160040190816117ee91906139f5565b509050506009600781905550565b6000801b81565b60008061180e61220f565b9050600061181c8286611fe4565b905083811015611861576040517f08c379a000000000000000000000000000000000000000000000000000000000815260040161185890613b39565b60405180910390fd5b61186e8286868403612217565b60019250505092915050565b60008061188561220f565b905061189281858561246c565b600191505092915050565b60006118c97f9f2df0fed2c77648de5860a4cc508cd0818c85b8b8a1ab4ceeef8d981c8956a683610c19565b9050919050565b7ff8ef03ce9f2cfdd733d77d52a15531b9932a15f9d03c8f7705d67e6fdeb11e6f336040516118ff91906131dd565b60405180910390a1611910336107f0565b61194f576040517f08c379a000000000000000000000000000000000000000000000000000000000815260040161194690613ba5565b60405180910390fd5b7ffbeaa2d4b24ea8784b2e518c3040f6dfe5edce67a0ffce9f5162d2a149b3523c81337f9f2df0fed2c77648de5860a4cc508cd0818c85b8b8a1ab4ceeef8d981c8956a66119bc7f9f2df0fed2c77648de5860a4cc508cd0818c85b8b8a1ab4ceeef8d981c8956a66107d0565b6000801b6040516119d1959493929190613bc5565b60405180910390a1611a037f9f2df0fed2c77648de5860a4cc508cd0818c85b8b8a1ab4ceeef8d981c8956a682610806565b50565b7ff8ef03ce9f2cfdd733d77d52a15531b9932a15f9d03c8f7705d67e6fdeb11e6f33604051611a3591906131dd565b60405180910390a1611a46336107f0565b611a85576040517f08c379a0000000000000000000000000000000000000000000000000000000008152600401611a7c90613ba5565b60405180910390fd5b6000600860008681526020019081526020016000206040518060a001604052908160008201548152602001600182018054611abf906136b7565b80601f0160208091040260200160405190810160405280929190818152602001828054611aeb906136b7565b8015611b385780601f10611b0d57610100808354040283529160200191611b38565b820191906000526020600020905b815481529060010190602001808311611b1b57829003601f168201915b50505050508152602001600282018054611b51906136b7565b80601f0160208091040260200160405190810160405280929190818152602001828054611b7d906136b7565b8015611bca5780601f10611b9f57610100808354040283529160200191611bca565b820191906000526020600020905b815481529060010190602001808311611bad57829003601f168201915b5050505050815260200160038201548152602001600482018054611bed906136b7565b80601f0160208091040260200160405190810160405280929190818152602001828054611c19906136b7565b8015611c665780601f10611c3b57610100808354040283529160200191611c66565b820191906000526020600020905b815481529060010190602001808311611c4957829003601f168201915b505050505081525050905060006040518060a00160405280878152602001836020015181526020018681526020018581526020018481525090508060086000888152602001908152602001600020600082015181600001556020820151816001019081611cd391906139f5565b506040820151816002019081611ce991906139f5565b50606082015181600301556080820151816004019081611d0991906139f5565b50905050505050505050565b6060600060075467ffffffffffffffff811115611d3557611d34613202565b5b604051908082528060200260200182016040528015611d6e57816020015b611d5b612d07565b815260200190600190039081611d535790505b50905060005b600754811015611f9757600860008281526020019081526020016000206040518060a001604052908160008201548152602001600182018054611db6906136b7565b80601f0160208091040260200160405190810160405280929190818152602001828054611de2906136b7565b8015611e2f5780601f10611e0457610100808354040283529160200191611e2f565b820191906000526020600020905b815481529060010190602001808311611e1257829003601f168201915b50505050508152602001600282018054611e48906136b7565b80601f0160208091040260200160405190810160405280929190818152602001828054611e74906136b7565b8015611ec15780601f10611e9657610100808354040283529160200191611ec1565b820191906000526020600020905b815481529060010190602001808311611ea457829003601f168201915b5050505050815260200160038201548152602001600482018054611ee4906136b7565b80601f0160208091040260200160405190810160405280929190818152602001828054611f10906136b7565b8015611f5d5780601f10611f3257610100808354040283529160200191611f5d565b820191906000526020600020905b815481529060010190602001808311611f4057829003601f168201915b505050505081525050828281518110611f7957611f78613c18565b5b60200260200101819052508080611f8f90613c47565b915050611d74565b508091505090565b7f9f2df0fed2c77648de5860a4cc508cd0818c85b8b8a1ab4ceeef8d981c8956a681565b611fcc826107d0565b611fd5816126e2565b611fdf83836127d7565b505050565b6000600160008473ffffffffffffffffffffffffffffffffffffffff1673ffffffffffffffffffffffffffffffffffffffff16815260200190815260200160002060008373ffffffffffffffffffffffffffffffffffffffff1673ffffffffffffffffffffffffffffffffffffffff16815260200190815260200160002054905092915050565b7ff8ef03ce9f2cfdd733d77d52a15531b9932a15f9d03c8f7705d67e6fdeb11e6f3360405161209a91906131dd565b60405180910390a16120ab336107f0565b6120ea576040517f08c379a00000000000000000000000000000000000000000000000000000000081526004016120e190613ba5565b60405180910390fd5b60006040518060a0016040528060075481526020018581526020018681526020018481526020018381525090508060086000600754815260200190815260200160002060008201518160000155602082015181600101908161214c91906139f5565b50604082015181600201908161216291906139f5565b5060608201518160030155608082015181600401908161218291906139f5565b509050506007600081548092919061219990613c47565b91905055505050505050565b60007f01ffc9a7000000000000000000000000000000000000000000000000000000007bffffffffffffffffffffffffffffffffffffffffffffffffffffffff1916827bffffffffffffffffffffffffffffffffffffffffffffffffffffffff1916149050919050565b600033905090565b600073ffffffffffffffffffffffffffffffffffffffff168373ffffffffffffffffffffffffffffffffffffffff1603612286576040517f08c379a000000000000000000000000000000000000000000000000000000000815260040161227d90613d01565b60405180910390fd5b600073ffffffffffffffffffffffffffffffffffffffff168273ffffffffffffffffffffffffffffffffffffffff16036122f5576040517f08c379a00000000000000000000000000000000000000000000000000000000081526004016122ec90613d93565b60405180910390fd5b80600160008573ffffffffffffffffffffffffffffffffffffffff1673ffffffffffffffffffffffffffffffffffffffff16815260200190815260200160002060008473ffffffffffffffffffffffffffffffffffffffff1673ffffffffffffffffffffffffffffffffffffffff168152602001908152602001600020819055508173ffffffffffffffffffffffffffffffffffffffff168373ffffffffffffffffffffffffffffffffffffffff167f8c5be1e5ebec7d5bd14f71427d1e84f3dd0314c0f7b2291e5b200ac8c7c3b925836040516123d39190612f9a565b60405180910390a3505050565b60006123ec8484611fe4565b90507fffffffffffffffffffffffffffffffffffffffffffffffffffffffffffffffff81146124665781811015612458576040517f08c379a000000000000000000000000000000000000000000000000000000000815260040161244f90613dff565b60405180910390fd5b6124658484848403612217565b5b50505050565b600073ffffffffffffffffffffffffffffffffffffffff168373ffffffffffffffffffffffffffffffffffffffff16036124db576040517f08c379a00000000000000000000000000000000000000000000000000000000081526004016124d290613e91565b60405180910390fd5b600073ffffffffffffffffffffffffffffffffffffffff168273ffffffffffffffffffffffffffffffffffffffff160361254a576040517f08c379a000000000000000000000000000000000000000000000000000000000815260040161254190613f23565b60405180910390fd5b612555838383612a0f565b60008060008573ffffffffffffffffffffffffffffffffffffffff1673ffffffffffffffffffffffffffffffffffffffff168152602001908152602001600020549050818110156125db576040517f08c379a00000000000000000000000000000000000000000000000000000000081526004016125d290613fb5565b60405180910390fd5b8181036000808673ffffffffffffffffffffffffffffffffffffffff1673ffffffffffffffffffffffffffffffffffffffff16815260200190815260200160002081905550816000808573ffffffffffffffffffffffffffffffffffffffff1673ffffffffffffffffffffffffffffffffffffffff168152602001908152602001600020600082825401925050819055508273ffffffffffffffffffffffffffffffffffffffff168473ffffffffffffffffffffffffffffffffffffffff167fddf252ad1be2c89b69c2b068fc378daa952ba7f163c4a11628f55a4df523b3ef846040516126c99190612f9a565b60405180910390a36126dc848484612a14565b50505050565b6126f3816126ee61220f565b612a19565b50565b6127008282610c19565b6127d35760016005600084815260200190815260200160002060000160008373ffffffffffffffffffffffffffffffffffffffff1673ffffffffffffffffffffffffffffffffffffffff16815260200190815260200160002060006101000a81548160ff02191690831515021790555061277861220f565b73ffffffffffffffffffffffffffffffffffffffff168173ffffffffffffffffffffffffffffffffffffffff16837f2f8788117e7eff1d82e926ec794901d17c78024a50270940304540a733656f0d60405160405180910390a45b5050565b6127e18282610c19565b156128b55760006005600084815260200190815260200160002060000160008373ffffffffffffffffffffffffffffffffffffffff1673ffffffffffffffffffffffffffffffffffffffff16815260200190815260200160002060006101000a81548160ff02191690831515021790555061285a61220f565b73ffffffffffffffffffffffffffffffffffffffff168173ffffffffffffffffffffffffffffffffffffffff16837ff6391f5c32d9c69d2a47ea670b442974b53935d1edc7fd64eb21e047a839171b60405160405180910390a45b5050565b600073ffffffffffffffffffffffffffffffffffffffff168273ffffffffffffffffffffffffffffffffffffffff1603612928576040517f08c379a000000000000000000000000000000000000000000000000000000000815260040161291f90614021565b60405180910390fd5b61293460008383612a0f565b806002600082825461294691906137a9565b92505081905550806000808473ffffffffffffffffffffffffffffffffffffffff1673ffffffffffffffffffffffffffffffffffffffff168152602001908152602001600020600082825401925050819055508173ffffffffffffffffffffffffffffffffffffffff16600073ffffffffffffffffffffffffffffffffffffffff167fddf252ad1be2c89b69c2b068fc378daa952ba7f163c4a11628f55a4df523b3ef836040516129f79190612f9a565b60405180910390a3612a0b60008383612a14565b5050565b505050565b505050565b612a238282610c19565b612a9a57612a3081612a9e565b612a3e8360001c6020612acb565b604051602001612a4f929190614115565b6040516020818303038152906040526040517f08c379a0000000000000000000000000000000000000000000000000000000008152600401612a919190612e95565b60405180910390fd5b5050565b6060612ac48273ffffffffffffffffffffffffffffffffffffffff16601460ff16612acb565b9050919050565b606060006002836002612ade919061414f565b612ae891906137a9565b67ffffffffffffffff811115612b0157612b00613202565b5b6040519080825280601f01601f191660200182016040528015612b335781602001600182028036833780820191505090505b5090507f300000000000000000000000000000000000000000000000000000000000000081600081518110612b6b57612b6a613c18565b5b60200101907effffffffffffffffffffffffffffffffffffffffffffffffffffffffffffff1916908160001a9053507f780000000000000000000000000000000000000000000000000000000000000081600181518110612bcf57612bce613c18565b5b60200101907effffffffffffffffffffffffffffffffffffffffffffffffffffffffffffff1916908160001a90535060006001846002612c0f919061414f565b612c1991906137a9565b90505b6001811115612cb9577f3031323334353637383961626364656600000000000000000000000000000000600f861660108110612c5b57612c5a613c18565b5b1a60f81b828281518110612c7257612c71613c18565b5b60200101907effffffffffffffffffffffffffffffffffffffffffffffffffffffffffffff1916908160001a905350600485901c945080612cb290614191565b9050612c1c565b5060008414612cfd576040517f08c379a0000000000000000000000000000000000000000000000000000000008152600401612cf490614206565b60405180910390fd5b8091505092915050565b6040518060a0016040528060008152602001606081526020016060815260200160008152602001606081525090565b6000604051905090565b600080fd5b600080fd5b60007fffffffff0000000000000000000000000000000000000000000000000000000082169050919050565b612d7f81612d4a565b8114612d8a57600080fd5b50565b600081359050612d9c81612d76565b92915050565b600060208284031215612db857612db7612d40565b5b6000612dc684828501612d8d565b91505092915050565b60008115159050919050565b612de481612dcf565b82525050565b6000602082019050612dff6000830184612ddb565b92915050565b600081519050919050565b600082825260208201905092915050565b60005b83811015612e3f578082015181840152602081019050612e24565b60008484015250505050565b6000601f19601f8301169050919050565b6000612e6782612e05565b612e718185612e10565b9350612e81818560208601612e21565b612e8a81612e4b565b840191505092915050565b60006020820190508181036000830152612eaf8184612e5c565b905092915050565b600073ffffffffffffffffffffffffffffffffffffffff82169050919050565b6000612ee282612eb7565b9050919050565b612ef281612ed7565b8114612efd57600080fd5b50565b600081359050612f0f81612ee9565b92915050565b6000819050919050565b612f2881612f15565b8114612f3357600080fd5b50565b600081359050612f4581612f1f565b92915050565b60008060408385031215612f6257612f61612d40565b5b6000612f7085828601612f00565b9250506020612f8185828601612f36565b9150509250929050565b612f9481612f15565b82525050565b6000602082019050612faf6000830184612f8b565b92915050565b600080600060608486031215612fce57612fcd612d40565b5b6000612fdc86828701612f00565b9350506020612fed86828701612f00565b9250506040612ffe86828701612f36565b9150509250925092565b6000819050919050565b61301b81613008565b811461302657600080fd5b50565b60008135905061303881613012565b92915050565b60006020828403121561305457613053612d40565b5b600061306284828501613029565b91505092915050565b61307481613008565b82525050565b600060208201905061308f600083018461306b565b92915050565b6000602082840312156130ab576130aa612d40565b5b60006130b984828501612f00565b91505092915050565b600080604083850312156130d9576130d8612d40565b5b60006130e785828601613029565b92505060206130f885828601612f00565b9150509250929050565b600060ff82169050919050565b61311881613102565b82525050565b6000602082019050613133600083018461310f565b92915050565b60006020828403121561314f5761314e612d40565b5b600061315d84828501612f36565b91505092915050565b600060a08201905061317b6000830188612f8b565b818103602083015261318d8187612e5c565b905081810360408301526131a18186612e5c565b90506131b06060830185612f8b565b81810360808301526131c28184612e5c565b90509695505050505050565b6131d781612ed7565b82525050565b60006020820190506131f260008301846131ce565b92915050565b600080fd5b600080fd5b7f4e487b7100000000000000000000000000000000000000000000000000000000600052604160045260246000fd5b61323a82612e4b565b810181811067ffffffffffffffff8211171561325957613258613202565b5b80604052505050565b600061326c612d36565b90506132788282613231565b919050565b600067ffffffffffffffff82111561329857613297613202565b5b6132a182612e4b565b9050602081019050919050565b82818337600083830152505050565b60006132d06132cb8461327d565b613262565b9050828152602081018484840111156132ec576132eb6131fd565b5b6132f78482856132ae565b509392505050565b600082601f830112613314576133136131f8565b5b81356133248482602086016132bd565b91505092915050565b6000806000806080858703121561334757613346612d40565b5b600061335587828801612f36565b945050602085013567ffffffffffffffff81111561337657613375612d45565b5b613382878288016132ff565b935050604061339387828801612f36565b925050606085013567ffffffffffffffff8111156133b4576133b3612d45565b5b6133c0878288016132ff565b91505092959194509250565b600081519050919050565b600082825260208201905092915050565b6000819050602082019050919050565b61340181612f15565b82525050565b600082825260208201905092915050565b600061342382612e05565b61342d8185613407565b935061343d818560208601612e21565b61344681612e4b565b840191505092915050565b600060a08301600083015161346960008601826133f8565b50602083015184820360208601526134818282613418565b9150506040830151848203604086015261349b8282613418565b91505060608301516134b060608601826133f8565b50608083015184820360808601526134c88282613418565b9150508091505092915050565b60006134e18383613451565b905092915050565b6000602082019050919050565b6000613501826133cc565b61350b81856133d7565b93508360208202850161351d856133e8565b8060005b85811015613559578484038952815161353a85826134d5565b9450613545836134e9565b925060208a01995050600181019050613521565b50829750879550505050505092915050565b6000602082019050818103600083015261358581846134f6565b905092915050565b600080604083850312156135a4576135a3612d40565b5b60006135b285828601612f00565b92505060206135c385828601612f00565b9150509250929050565b600080600080608085870312156135e7576135e6612d40565b5b600085013567ffffffffffffffff81111561360557613604612d45565b5b613611878288016132ff565b945050602085013567ffffffffffffffff81111561363257613631612d45565b5b61363e878288016132ff565b935050604061364f87828801612f36565b925050606085013567ffffffffffffffff8111156136705761366f612d45565b5b61367c878288016132ff565b91505092959194509250565b7f4e487b7100000000000000000000000000000000000000000000000000000000600052602260045260246000fd5b600060028204905060018216806136cf57607f821691505b6020821081036136e2576136e1613688565b5b50919050565b7f416363657373436f6e74726f6c3a2063616e206f6e6c792072656e6f756e636560008201527f20726f6c657320666f722073656c660000000000000000000000000000000000602082015250565b6000613744602f83612e10565b915061374f826136e8565b604082019050919050565b6000602082019050818103600083015261377381613737565b9050919050565b7f4e487b7100000000000000000000000000000000000000000000000000000000600052601160045260246000fd5b60006137b482612f15565b91506137bf83612f15565b92508282019050808211156137d7576137d661377a565b5b92915050565b7f43616c6c6572206973206e6f742061206d696e74657200000000000000000000600082015250565b6000613813601683612e10565b915061381e826137dd565b602082019050919050565b6000602082019050818103600083015261384281613806565b9050919050565b60008190508160005260206000209050919050565b60006020601f8301049050919050565b600082821b905092915050565b6000600883026138ab7fffffffffffffffffffffffffffffffffffffffffffffffffffffffffffffffff8261386e565b6138b5868361386e565b95508019841693508086168417925050509392505050565b6000819050919050565b60006138f26138ed6138e884612f15565b6138cd565b612f15565b9050919050565b6000819050919050565b61390c836138d7565b613920613918826138f9565b84845461387b565b825550505050565b600090565b613935613928565b613940818484613903565b505050565b5b818110156139645761395960008261392d565b600181019050613946565b5050565b601f8211156139a95761397a81613849565b6139838461385e565b81016020851015613992578190505b6139a661399e8561385e565b830182613945565b50505b505050565b600082821c905092915050565b60006139cc600019846008026139ae565b1980831691505092915050565b60006139e583836139bb565b9150826002028217905092915050565b6139fe82612e05565b67ffffffffffffffff811115613a1757613a16613202565b5b613a2182546136b7565b613a2c828285613968565b600060209050601f831160018114613a5f5760008415613a4d578287015190505b613a5785826139d9565b865550613abf565b601f198416613a6d86613849565b60005b82811015613a9557848901518255600182019150602085019450602081019050613a70565b86831015613ab25784890151613aae601f8916826139bb565b8355505b6001600288020188555050505b505050505050565b7f45524332303a2064656372656173656420616c6c6f77616e63652062656c6f7760008201527f207a65726f000000000000000000000000000000000000000000000000000000602082015250565b6000613b23602583612e10565b9150613b2e82613ac7565b604082019050919050565b60006020820190508181036000830152613b5281613b16565b9050919050565b7f5265737472696374656420746f2061646d696e73000000000000000000000000600082015250565b6000613b8f601483612e10565b9150613b9a82613b59565b602082019050919050565b60006020820190508181036000830152613bbe81613b82565b9050919050565b600060a082019050613bda60008301886131ce565b613be760208301876131ce565b613bf4604083018661306b565b613c01606083018561306b565b613c0e608083018461306b565b9695505050505050565b7f4e487b7100000000000000000000000000000000000000000000000000000000600052603260045260246000fd5b6000613c5282612f15565b91507fffffffffffffffffffffffffffffffffffffffffffffffffffffffffffffffff8203613c8457613c8361377a565b5b600182019050919050565b7f45524332303a20617070726f76652066726f6d20746865207a65726f2061646460008201527f7265737300000000000000000000000000000000000000000000000000000000602082015250565b6000613ceb602483612e10565b9150613cf682613c8f565b604082019050919050565b60006020820190508181036000830152613d1a81613cde565b9050919050565b7f45524332303a20617070726f766520746f20746865207a65726f20616464726560008201527f7373000000000000000000000000000000000000000000000000000000000000602082015250565b6000613d7d602283612e10565b9150613d8882613d21565b604082019050919050565b60006020820190508181036000830152613dac81613d70565b9050919050565b7f45524332303a20696e73756666696369656e7420616c6c6f77616e6365000000600082015250565b6000613de9601d83612e10565b9150613df482613db3565b602082019050919050565b60006020820190508181036000830152613e1881613ddc565b9050919050565b7f45524332303a207472616e736665722066726f6d20746865207a65726f20616460008201527f6472657373000000000000000000000000000000000000000000000000000000602082015250565b6000613e7b602583612e10565b9150613e8682613e1f565b604082019050919050565b60006020820190508181036000830152613eaa81613e6e565b9050919050565b7f45524332303a207472616e7366657220746f20746865207a65726f206164647260008201527f6573730000000000000000000000000000000000000000000000000000000000602082015250565b6000613f0d602383612e10565b9150613f1882613eb1565b604082019050919050565b60006020820190508181036000830152613f3c81613f00565b9050919050565b7f45524332303a207472616e7366657220616d6f756e742065786365656473206260008201527f616c616e63650000000000000000000000000000000000000000000000000000602082015250565b6000613f9f602683612e10565b9150613faa82613f43565b604082019050919050565b60006020820190508181036000830152613fce81613f92565b9050919050565b7f45524332303a206d696e7420746f20746865207a65726f206164647265737300600082015250565b600061400b601f83612e10565b915061401682613fd5565b602082019050919050565b6000602082019050818103600083015261403a81613ffe565b9050919050565b600081905092915050565b7f416363657373436f6e74726f6c3a206163636f756e7420000000000000000000600082015250565b6000614082601783614041565b915061408d8261404c565b601782019050919050565b60006140a382612e05565b6140ad8185614041565b93506140bd818560208601612e21565b80840191505092915050565b7f206973206d697373696e6720726f6c6520000000000000000000000000000000600082015250565b60006140ff601183614041565b915061410a826140c9565b601182019050919050565b600061412082614075565b915061412c8285614098565b9150614137826140f2565b91506141438284614098565b91508190509392505050565b600061415a82612f15565b915061416583612f15565b925082820261417381612f15565b9150828204841483151761418a5761418961377a565b5b5092915050565b600061419c82612f15565b9150600082036141af576141ae61377a565b5b600182039050919050565b7f537472696e67733a20686578206c656e67746820696e73756666696369656e74600082015250565b60006141f0602083612e10565b91506141fb826141ba565b602082019050919050565b6000602082019050818103600083015261421f816141e3565b905091905056fea264697066735822122012ec649a367ca9643fa76f9dbd267ad0cd009280f20abc95fbd53ca14fbe96bb64736f6c63430008110033",
  "immutableReferences": {},
  "source": "pragma solidity ^0.8.17;\r\n\r\n\r\nimport \"@openzeppelin/contracts/token/ERC20/ERC20.sol\";\r\nimport \"@openzeppelin/contracts/access/AccessControl.sol\";\r\nimport \"@openzeppelin/contracts/utils/math/SafeMath.sol\";\r\n\r\ncontract GST_Token is ERC20, AccessControl {\r\n   bytes32 public constant MINTER_ROLE = keccak256(\"MINTER_ROLE\");\r\n   address private _owner;\r\n   uint _counterProd;\r\n\r\n   struct Product {\r\n    uint id;\r\n    string picture;\r\n    string name;\r\n    uint price;\r\n    string console;\r\n}\r\n\r\n    \r\n  mapping (uint256 => Product) public products;\r\n\r\n   constructor(\r\n        string memory name,\r\n        string memory symbol,\r\n        uint256 initialSupply) ERC20(name, symbol) {\r\n      _mint(msg.sender, initialSupply);\r\n      _owner = msg.sender;\r\n      _counterProd = 0;\r\n      _setupRole(DEFAULT_ADMIN_ROLE, msg.sender);\r\n      _setRoleAdmin(MINTER_ROLE, DEFAULT_ADMIN_ROLE);\r\n      preloadProduct();\r\n   }\r\n\r\n   function preloadProduct() public{\r\n      products[0] = Product(0, \"images/GodOfWar.jpg\", \"God Of War Ragnarok\", 70, \"PlayStation 5\");\r\n      products[1] = Product(1, \"images/MW2.jpg\", \"Call of Duty: Modern Warfare II\", 75, \"PlayStation 5\");\r\n      products[2] = Product(2, \"images/Horizon.jpg\", \"Horizon: Forbidden West\", 53, \"PlayStation 5\");\r\n      products[3] = Product(3, \"images/FarCry6.jpg\", \"Far Cry 6\", 20, \"Xbox Series X\");\r\n      products[4] = Product(4, \"images/CallistoProtocol.jpg\", \"The Callisto Protocol\", 55, \"Xbox Series X\");\r\n      products[5] = Product(5, \"images/Metro.jpg\", \"Metro Exodus\", 30, \"Xbox Series X\");\r\n      products[6] = Product(6, \"images/MarioBros.jpg\", \"New Super Mario Bros\", 50, \"Nintendo Switch\");\r\n      products[7] = Product(7, \"images/Pokemon.jpg\",  \"Pokemon Violetto \", 48, \"Nintendo Switch\");\r\n      products[8] = Product(8, \"images/AnimalCrossing.jpg\", \"Animal Crossing: New Horizons\", 58, \"Nintendo Switch\");\r\n      _counterProd = 9;\r\n   }\r\n\r\n\r\n\r\n   function getAllProduct() public view returns (Product[] memory) {\r\n    \r\n    Product[] memory result = new Product[](_counterProd);\r\n    for (uint i = 0; i < _counterProd; i++) {\r\n      result[i] = products[i];\r\n    }\r\n\r\n    return result;\r\n}\r\n\r\n   function modifyProdId(uint id, string memory name, uint price, string memory console) public soloAdmin \r\n   {\r\n\r\n      Product memory x = products[id];\r\n      Product memory p = Product(id, x.picture, name, price,console);\r\n      products[id] = p;\r\n\r\n   }\r\n\r\n   function addProduct(string memory name,string memory picture, uint price, string memory console) public soloAdmin\r\n   {\r\n      Product memory p = Product(_counterProd, picture, name, price,console);\r\n      products[_counterProd] = p;\r\n      _counterProd++;\r\n\r\n   }\r\n\r\n\r\n   event Debug(address user, address sender, bytes32 role, bytes32 adminRole, bytes32 senderRole);\r\n   event ChecksoloAdmin(address user);\r\n   event ChecksoloMinters(address user);\r\n\r\n   modifier soloAdmin() {\r\n      emit ChecksoloAdmin(msg.sender);\r\n      require(isAdmin(msg.sender), \"Restricted to admins\");\r\n      _;\r\n   }\r\n\r\n   modifier soloMinters() {\r\n      emit ChecksoloMinters(msg.sender);\r\n      require(isMinter(msg.sender), \"Caller is not a minter\");\r\n      _;\r\n   }\r\n\r\n   function buyProduct(uint256 amount) public virtual returns(bool)\r\n   {\r\n      return transfer( _owner, amount);\r\n   }\r\n\r\n   function getOwner() public virtual view returns(address)\r\n   {\r\n      return _owner;\r\n   }\r\n\r\n   function isAdmin(address account) public virtual view returns (bool) {\r\n      return hasRole(DEFAULT_ADMIN_ROLE, account);\r\n   }\r\n\r\n   function isMinter(address account) public virtual view returns (bool) {\r\n      return hasRole(MINTER_ROLE, account);\r\n   }\r\n\r\n\r\n\r\n   function mint(address to, uint256 amount) public soloMinters {\r\n      _mint(to, amount);\r\n    }\r\n\r\n    function addMinterRole(address to) public soloAdmin {\r\n      emit Debug(to, msg.sender, MINTER_ROLE, getRoleAdmin(MINTER_ROLE), DEFAULT_ADMIN_ROLE);\r\n      grantRole(MINTER_ROLE, to);\r\n    }\r\n\r\n    function removeMinterRole (address to) public {\r\n      renounceRole(MINTER_ROLE, to);\r\n    }\r\n\r\n\r\n\r\n}\r\n\r\n",
  "sourcePath": "C:\\Users\\marco\\Desktop\\UniMagistrale\\SecondoAnno\\SicurezzaDeiDati\\Test\\contracts\\GST_Token.sol",
  "compiler": {
    "name": "solc",
    "version": "0.8.17+commit.8df45f5f.Emscripten.clang"
  },
  "schemaVersion": "3.4.11",
  "updatedAt": "2023-01-28T17:09:45.679Z",
  "networkType": "ethereum",
  "devdoc": {
    "kind": "dev",
    "methods": {
      "allowance(address,address)": {
        "details": "See {IERC20-allowance}."
      },
      "approve(address,uint256)": {
        "details": "See {IERC20-approve}. NOTE: If `amount` is the maximum `uint256`, the allowance is not updated on `transferFrom`. This is semantically equivalent to an infinite approval. Requirements: - `spender` cannot be the zero address."
      },
      "balanceOf(address)": {
        "details": "See {IERC20-balanceOf}."
      },
      "decimals()": {
        "details": "Returns the number of decimals used to get its user representation. For example, if `decimals` equals `2`, a balance of `505` tokens should be displayed to a user as `5.05` (`505 / 10 ** 2`). Tokens usually opt for a value of 18, imitating the relationship between Ether and Wei. This is the value {ERC20} uses, unless this function is overridden; NOTE: This information is only used for _display_ purposes: it in no way affects any of the arithmetic of the contract, including {IERC20-balanceOf} and {IERC20-transfer}."
      },
      "decreaseAllowance(address,uint256)": {
        "details": "Atomically decreases the allowance granted to `spender` by the caller. This is an alternative to {approve} that can be used as a mitigation for problems described in {IERC20-approve}. Emits an {Approval} event indicating the updated allowance. Requirements: - `spender` cannot be the zero address. - `spender` must have allowance for the caller of at least `subtractedValue`."
      },
      "getRoleAdmin(bytes32)": {
        "details": "Returns the admin role that controls `role`. See {grantRole} and {revokeRole}. To change a role's admin, use {_setRoleAdmin}."
      },
      "grantRole(bytes32,address)": {
        "details": "Grants `role` to `account`. If `account` had not been already granted `role`, emits a {RoleGranted} event. Requirements: - the caller must have ``role``'s admin role. May emit a {RoleGranted} event."
      },
      "hasRole(bytes32,address)": {
        "details": "Returns `true` if `account` has been granted `role`."
      },
      "increaseAllowance(address,uint256)": {
        "details": "Atomically increases the allowance granted to `spender` by the caller. This is an alternative to {approve} that can be used as a mitigation for problems described in {IERC20-approve}. Emits an {Approval} event indicating the updated allowance. Requirements: - `spender` cannot be the zero address."
      },
      "name()": {
        "details": "Returns the name of the token."
      },
      "renounceRole(bytes32,address)": {
        "details": "Revokes `role` from the calling account. Roles are often managed via {grantRole} and {revokeRole}: this function's purpose is to provide a mechanism for accounts to lose their privileges if they are compromised (such as when a trusted device is misplaced). If the calling account had been revoked `role`, emits a {RoleRevoked} event. Requirements: - the caller must be `account`. May emit a {RoleRevoked} event."
      },
      "revokeRole(bytes32,address)": {
        "details": "Revokes `role` from `account`. If `account` had been granted `role`, emits a {RoleRevoked} event. Requirements: - the caller must have ``role``'s admin role. May emit a {RoleRevoked} event."
      },
      "supportsInterface(bytes4)": {
        "details": "See {IERC165-supportsInterface}."
      },
      "symbol()": {
        "details": "Returns the symbol of the token, usually a shorter version of the name."
      },
      "totalSupply()": {
        "details": "See {IERC20-totalSupply}."
      },
      "transfer(address,uint256)": {
        "details": "See {IERC20-transfer}. Requirements: - `to` cannot be the zero address. - the caller must have a balance of at least `amount`."
      },
      "transferFrom(address,address,uint256)": {
        "details": "See {IERC20-transferFrom}. Emits an {Approval} event indicating the updated allowance. This is not required by the EIP. See the note at the beginning of {ERC20}. NOTE: Does not update the allowance if the current allowance is the maximum `uint256`. Requirements: - `from` and `to` cannot be the zero address. - `from` must have a balance of at least `amount`. - the caller must have allowance for ``from``'s tokens of at least `amount`."
      }
    },
    "version": 1
  },
  "userdoc": {
    "kind": "user",
    "methods": {},
    "version": 1
  }
}