{
  "contractName": "GST_Token",
  "abi": [
    {
      "inputs": [
        {
          "internalType": "string",
          "name": "name",
          "type": "string"
        },
        {
          "internalType": "string",
          "name": "symbol",
          "type": "string"
        },
        {
          "internalType": "uint256",
          "name": "initialSupply",
          "type": "uint256"
        }
      ],
      "stateMutability": "nonpayable",
      "type": "constructor"
    },
    {
      "anonymous": false,
      "inputs": [
        {
          "indexed": true,
          "internalType": "address",
          "name": "owner",
          "type": "address"
        },
        {
          "indexed": true,
          "internalType": "address",
          "name": "spender",
          "type": "address"
        },
        {
          "indexed": false,
          "internalType": "uint256",
          "name": "value",
          "type": "uint256"
        }
      ],
      "name": "Approval",
      "type": "event"
    },
    {
      "anonymous": false,
      "inputs": [
        {
          "indexed": false,
          "internalType": "address",
          "name": "user",
          "type": "address"
        }
      ],
      "name": "CheckAddProduct",
      "type": "event"
    },
    {
      "anonymous": false,
      "inputs": [
        {
          "indexed": false,
          "internalType": "address",
          "name": "user",
          "type": "address"
        }
      ],
      "name": "CheckModify",
      "type": "event"
    },
    {
      "anonymous": false,
      "inputs": [
        {
          "indexed": false,
          "internalType": "address",
          "name": "user",
          "type": "address"
        }
      ],
      "name": "ChecksoloAdmin",
      "type": "event"
    },
    {
      "anonymous": false,
      "inputs": [
        {
          "indexed": false,
          "internalType": "address",
          "name": "user",
          "type": "address"
        }
      ],
      "name": "ChecksoloMinters",
      "type": "event"
    },
    {
      "anonymous": false,
      "inputs": [
        {
          "indexed": false,
          "internalType": "address",
          "name": "user",
          "type": "address"
        },
        {
          "indexed": false,
          "internalType": "address",
          "name": "sender",
          "type": "address"
        },
        {
          "indexed": false,
          "internalType": "bytes32",
          "name": "role",
          "type": "bytes32"
        },
        {
          "indexed": false,
          "internalType": "bytes32",
          "name": "adminRole",
          "type": "bytes32"
        },
        {
          "indexed": false,
          "internalType": "bytes32",
          "name": "senderRole",
          "type": "bytes32"
        }
      ],
      "name": "Debug",
      "type": "event"
    },
    {
      "anonymous": false,
      "inputs": [
        {
          "indexed": true,
          "internalType": "bytes32",
          "name": "role",
          "type": "bytes32"
        },
        {
          "indexed": true,
          "internalType": "bytes32",
          "name": "previousAdminRole",
          "type": "bytes32"
        },
        {
          "indexed": true,
          "internalType": "bytes32",
          "name": "newAdminRole",
          "type": "bytes32"
        }
      ],
      "name": "RoleAdminChanged",
      "type": "event"
    },
    {
      "anonymous": false,
      "inputs": [
        {
          "indexed": true,
          "internalType": "bytes32",
          "name": "role",
          "type": "bytes32"
        },
        {
          "indexed": true,
          "internalType": "address",
          "name": "account",
          "type": "address"
        },
        {
          "indexed": true,
          "internalType": "address",
          "name": "sender",
          "type": "address"
        }
      ],
      "name": "RoleGranted",
      "type": "event"
    },
    {
      "anonymous": false,
      "inputs": [
        {
          "indexed": true,
          "internalType": "bytes32",
          "name": "role",
          "type": "bytes32"
        },
        {
          "indexed": true,
          "internalType": "address",
          "name": "account",
          "type": "address"
        },
        {
          "indexed": true,
          "internalType": "address",
          "name": "sender",
          "type": "address"
        }
      ],
      "name": "RoleRevoked",
      "type": "event"
    },
    {
      "anonymous": false,
      "inputs": [
        {
          "indexed": true,
          "internalType": "address",
          "name": "from",
          "type": "address"
        },
        {
          "indexed": true,
          "internalType": "address",
          "name": "to",
          "type": "address"
        },
        {
          "indexed": false,
          "internalType": "uint256",
          "name": "value",
          "type": "uint256"
        }
      ],
      "name": "Transfer",
      "type": "event"
    },
    {
      "inputs": [],
      "name": "DEFAULT_ADMIN_ROLE",
      "outputs": [
        {
          "internalType": "bytes32",
          "name": "",
          "type": "bytes32"
        }
      ],
      "stateMutability": "view",
      "type": "function",
      "constant": true
    },
    {
      "inputs": [],
      "name": "MINTER_ROLE",
      "outputs": [
        {
          "internalType": "bytes32",
          "name": "",
          "type": "bytes32"
        }
      ],
      "stateMutability": "view",
      "type": "function",
      "constant": true
    },
    {
      "inputs": [
        {
          "internalType": "address",
          "name": "owner",
          "type": "address"
        },
        {
          "internalType": "address",
          "name": "spender",
          "type": "address"
        }
      ],
      "name": "allowance",
      "outputs": [
        {
          "internalType": "uint256",
          "name": "",
          "type": "uint256"
        }
      ],
      "stateMutability": "view",
      "type": "function",
      "constant": true
    },
    {
      "inputs": [
        {
          "internalType": "address",
          "name": "spender",
          "type": "address"
        },
        {
          "internalType": "uint256",
          "name": "amount",
          "type": "uint256"
        }
      ],
      "name": "approve",
      "outputs": [
        {
          "internalType": "bool",
          "name": "",
          "type": "bool"
        }
      ],
      "stateMutability": "nonpayable",
      "type": "function"
    },
    {
      "inputs": [
        {
          "internalType": "address",
          "name": "account",
          "type": "address"
        }
      ],
      "name": "balanceOf",
      "outputs": [
        {
          "internalType": "uint256",
          "name": "",
          "type": "uint256"
        }
      ],
      "stateMutability": "view",
      "type": "function",
      "constant": true
    },
    {
      "inputs": [],
      "name": "decimals",
      "outputs": [
        {
          "internalType": "uint8",
          "name": "",
          "type": "uint8"
        }
      ],
      "stateMutability": "view",
      "type": "function",
      "constant": true
    },
    {
      "inputs": [
        {
          "internalType": "address",
          "name": "spender",
          "type": "address"
        },
        {
          "internalType": "uint256",
          "name": "subtractedValue",
          "type": "uint256"
        }
      ],
      "name": "decreaseAllowance",
      "outputs": [
        {
          "internalType": "bool",
          "name": "",
          "type": "bool"
        }
      ],
      "stateMutability": "nonpayable",
      "type": "function"
    },
    {
      "inputs": [
        {
          "internalType": "bytes32",
          "name": "role",
          "type": "bytes32"
        }
      ],
      "name": "getRoleAdmin",
      "outputs": [
        {
          "internalType": "bytes32",
          "name": "",
          "type": "bytes32"
        }
      ],
      "stateMutability": "view",
      "type": "function",
      "constant": true
    },
    {
      "inputs": [
        {
          "internalType": "bytes32",
          "name": "role",
          "type": "bytes32"
        },
        {
          "internalType": "address",
          "name": "account",
          "type": "address"
        }
      ],
      "name": "grantRole",
      "outputs": [],
      "stateMutability": "nonpayable",
      "type": "function"
    },
    {
      "inputs": [
        {
          "internalType": "bytes32",
          "name": "role",
          "type": "bytes32"
        },
        {
          "internalType": "address",
          "name": "account",
          "type": "address"
        }
      ],
      "name": "hasRole",
      "outputs": [
        {
          "internalType": "bool",
          "name": "",
          "type": "bool"
        }
      ],
      "stateMutability": "view",
      "type": "function",
      "constant": true
    },
    {
      "inputs": [
        {
          "internalType": "address",
          "name": "spender",
          "type": "address"
        },
        {
          "internalType": "uint256",
          "name": "addedValue",
          "type": "uint256"
        }
      ],
      "name": "increaseAllowance",
      "outputs": [
        {
          "internalType": "bool",
          "name": "",
          "type": "bool"
        }
      ],
      "stateMutability": "nonpayable",
      "type": "function"
    },
    {
      "inputs": [],
      "name": "name",
      "outputs": [
        {
          "internalType": "string",
          "name": "",
          "type": "string"
        }
      ],
      "stateMutability": "view",
      "type": "function",
      "constant": true
    },
    {
      "inputs": [
        {
          "internalType": "uint256",
          "name": "",
          "type": "uint256"
        }
      ],
      "name": "products",
      "outputs": [
        {
          "internalType": "uint256",
          "name": "id",
          "type": "uint256"
        },
        {
          "internalType": "string",
          "name": "picture",
          "type": "string"
        },
        {
          "internalType": "string",
          "name": "name",
          "type": "string"
        },
        {
          "internalType": "uint256",
          "name": "price",
          "type": "uint256"
        },
        {
          "internalType": "string",
          "name": "console",
          "type": "string"
        }
      ],
      "stateMutability": "view",
      "type": "function",
      "constant": true
    },
    {
      "inputs": [
        {
          "internalType": "bytes32",
          "name": "role",
          "type": "bytes32"
        },
        {
          "internalType": "address",
          "name": "account",
          "type": "address"
        }
      ],
      "name": "renounceRole",
      "outputs": [],
      "stateMutability": "nonpayable",
      "type": "function"
    },
    {
      "inputs": [
        {
          "internalType": "bytes32",
          "name": "role",
          "type": "bytes32"
        },
        {
          "internalType": "address",
          "name": "account",
          "type": "address"
        }
      ],
      "name": "revokeRole",
      "outputs": [],
      "stateMutability": "nonpayable",
      "type": "function"
    },
    {
      "inputs": [
        {
          "internalType": "bytes4",
          "name": "interfaceId",
          "type": "bytes4"
        }
      ],
      "name": "supportsInterface",
      "outputs": [
        {
          "internalType": "bool",
          "name": "",
          "type": "bool"
        }
      ],
      "stateMutability": "view",
      "type": "function",
      "constant": true
    },
    {
      "inputs": [],
      "name": "symbol",
      "outputs": [
        {
          "internalType": "string",
          "name": "",
          "type": "string"
        }
      ],
      "stateMutability": "view",
      "type": "function",
      "constant": true
    },
    {
      "inputs": [],
      "name": "totalSupply",
      "outputs": [
        {
          "internalType": "uint256",
          "name": "",
          "type": "uint256"
        }
      ],
      "stateMutability": "view",
      "type": "function",
      "constant": true
    },
    {
      "inputs": [
        {
          "internalType": "address",
          "name": "to",
          "type": "address"
        },
        {
          "internalType": "uint256",
          "name": "amount",
          "type": "uint256"
        }
      ],
      "name": "transfer",
      "outputs": [
        {
          "internalType": "bool",
          "name": "",
          "type": "bool"
        }
      ],
      "stateMutability": "nonpayable",
      "type": "function"
    },
    {
      "inputs": [
        {
          "internalType": "address",
          "name": "from",
          "type": "address"
        },
        {
          "internalType": "address",
          "name": "to",
          "type": "address"
        },
        {
          "internalType": "uint256",
          "name": "amount",
          "type": "uint256"
        }
      ],
      "name": "transferFrom",
      "outputs": [
        {
          "internalType": "bool",
          "name": "",
          "type": "bool"
        }
      ],
      "stateMutability": "nonpayable",
      "type": "function"
    },
    {
      "inputs": [],
      "name": "preloadProduct",
      "outputs": [],
      "stateMutability": "nonpayable",
      "type": "function"
    },
    {
      "inputs": [],
      "name": "getAllProduct",
      "outputs": [
        {
          "components": [
            {
              "internalType": "uint256",
              "name": "id",
              "type": "uint256"
            },
            {
              "internalType": "string",
              "name": "picture",
              "type": "string"
            },
            {
              "internalType": "string",
              "name": "name",
              "type": "string"
            },
            {
              "internalType": "uint256",
              "name": "price",
              "type": "uint256"
            },
            {
              "internalType": "string",
              "name": "console",
              "type": "string"
            }
          ],
          "internalType": "struct GST_Token.Product[]",
          "name": "",
          "type": "tuple[]"
        }
      ],
      "stateMutability": "view",
      "type": "function",
      "constant": true
    },
    {
      "inputs": [
        {
          "internalType": "string",
          "name": "name",
          "type": "string"
        },
        {
          "internalType": "string",
          "name": "picture",
          "type": "string"
        },
        {
          "internalType": "uint256",
          "name": "price",
          "type": "uint256"
        },
        {
          "internalType": "string",
          "name": "console",
          "type": "string"
        }
      ],
      "name": "addProduct",
      "outputs": [],
      "stateMutability": "nonpayable",
      "type": "function"
    },
    {
      "inputs": [
        {
          "internalType": "uint256",
          "name": "amount",
          "type": "uint256"
        }
      ],
      "name": "buyProduct",
      "outputs": [
        {
          "internalType": "bool",
          "name": "",
          "type": "bool"
        }
      ],
      "stateMutability": "nonpayable",
      "type": "function"
    },
    {
      "inputs": [
        {
          "internalType": "address",
          "name": "account",
          "type": "address"
        }
      ],
      "name": "isAdmin",
      "outputs": [
        {
          "internalType": "bool",
          "name": "",
          "type": "bool"
        }
      ],
      "stateMutability": "view",
      "type": "function",
      "constant": true
    },
    {
      "inputs": [
        {
          "internalType": "address",
          "name": "account",
          "type": "address"
        }
      ],
      "name": "isMinter",
      "outputs": [
        {
          "internalType": "bool",
          "name": "",
          "type": "bool"
        }
      ],
      "stateMutability": "view",
      "type": "function",
      "constant": true
    },
    {
      "inputs": [
        {
          "internalType": "address",
          "name": "to",
          "type": "address"
        },
        {
          "internalType": "uint256",
          "name": "amount",
          "type": "uint256"
        }
      ],
      "name": "mint",
      "outputs": [],
      "stateMutability": "nonpayable",
      "type": "function"
    },
    {
      "inputs": [
        {
          "internalType": "address",
          "name": "to",
          "type": "address"
        }
      ],
      "name": "addMinterRole",
      "outputs": [],
      "stateMutability": "nonpayable",
      "type": "function"
    },
    {
      "inputs": [
        {
          "internalType": "address",
          "name": "to",
          "type": "address"
        }
      ],
      "name": "removeMinterRole",
      "outputs": [],
      "stateMutability": "nonpayable",
      "type": "function"
    }
  ],
  "bytecode": "0x60806040523480156200001157600080fd5b50604051620054fb380380620054fb8339818101604052810190620000379190620011a3565b828281600390816200004a91906200147e565b5080600490816200005c91906200147e565b5050506200007133826200014360201b60201c565b6200009773949708fa9679a5b95c0875a91edc23ba8215c3c4826200014360201b60201c565b33600660006101000a81548173ffffffffffffffffffffffffffffffffffffffff021916908373ffffffffffffffffffffffffffffffffffffffff1602179055506000600781905550620000f56000801b33620002b060201b60201c565b6200012a7f9f2df0fed2c77648de5860a4cc508cd0818c85b8b8a1ab4ceeef8d981c8956a66000801b620002c660201b60201c565b6200013a6200032a60201b60201c565b50505062001680565b600073ffffffffffffffffffffffffffffffffffffffff168273ffffffffffffffffffffffffffffffffffffffff1603620001b5576040517f08c379a0000000000000000000000000000000000000000000000000000000008152600401620001ac90620015c6565b60405180910390fd5b620001c96000838362000e4660201b60201c565b8060026000828254620001dd919062001617565b92505081905550806000808473ffffffffffffffffffffffffffffffffffffffff1673ffffffffffffffffffffffffffffffffffffffff168152602001908152602001600020600082825401925050819055508173ffffffffffffffffffffffffffffffffffffffff16600073ffffffffffffffffffffffffffffffffffffffff167fddf252ad1be2c89b69c2b068fc378daa952ba7f163c4a11628f55a4df523b3ef8360405162000290919062001663565b60405180910390a3620002ac6000838362000e4b60201b60201c565b5050565b620002c2828262000e5060201b60201c565b5050565b6000620002d98362000f4260201b60201c565b90508160056000858152602001908152602001600020600101819055508181847fbd79b86ffe0ab8e8776151514217cd7cacd52c909f66475c3af44e129f0b00ff60405160405180910390a4505050565b6040518060a00160405280600081526020016040518060400160405280601381526020017f696d616765732f476f644f665761722e6a70670000000000000000000000000081525081526020016040518060400160405280601381526020017f476f64204f6620576172205261676e61726f6b000000000000000000000000008152508152602001604681526020016040518060400160405280600d81526020017f506c617953746174696f6e203500000000000000000000000000000000000000815250815250600860008081526020019081526020016000206000820151816000015560208201518160010190816200042691906200147e565b5060408201518160020190816200043e91906200147e565b506060820151816003015560808201518160040190816200046091906200147e565b509050506040518060a00160405280600181526020016040518060400160405280600e81526020017f696d616765732f4d57322e6a706700000000000000000000000000000000000081525081526020016040518060400160405280601f81526020017f43616c6c206f6620447574793a204d6f6465726e2057617266617265204949008152508152602001604b81526020016040518060400160405280600d81526020017f506c617953746174696f6e20350000000000000000000000000000000000000081525081525060086000600181526020019081526020016000206000820151816000015560208201518160010190816200056191906200147e565b5060408201518160020190816200057991906200147e565b506060820151816003015560808201518160040190816200059b91906200147e565b509050506040518060a00160405280600281526020016040518060400160405280601281526020017f696d616765732f486f72697a6f6e2e6a7067000000000000000000000000000081525081526020016040518060400160405280601781526020017f486f72697a6f6e3a20466f7262696464656e20576573740000000000000000008152508152602001603581526020016040518060400160405280600d81526020017f506c617953746174696f6e20350000000000000000000000000000000000000081525081525060086000600281526020019081526020016000206000820151816000015560208201518160010190816200069c91906200147e565b506040820151816002019081620006b491906200147e565b50606082015181600301556080820151816004019081620006d691906200147e565b509050506040518060a00160405280600381526020016040518060400160405280601281526020017f696d616765732f466172437279362e6a7067000000000000000000000000000081525081526020016040518060400160405280600981526020017f46617220437279203600000000000000000000000000000000000000000000008152508152602001601481526020016040518060400160405280600d81526020017f58626f78205365726965732058000000000000000000000000000000000000008152508152506008600060038152602001908152602001600020600082015181600001556020820151816001019081620007d791906200147e565b506040820151816002019081620007ef91906200147e565b506060820151816003015560808201518160040190816200081191906200147e565b509050506040518060a00160405280600481526020016040518060400160405280601b81526020017f696d616765732f43616c6c6973746f50726f746f636f6c2e6a7067000000000081525081526020016040518060400160405280601581526020017f5468652043616c6c6973746f2050726f746f636f6c00000000000000000000008152508152602001603781526020016040518060400160405280600d81526020017f58626f782053657269657320580000000000000000000000000000000000000081525081525060086000600481526020019081526020016000206000820151816000015560208201518160010190816200091291906200147e565b5060408201518160020190816200092a91906200147e565b506060820151816003015560808201518160040190816200094c91906200147e565b509050506040518060a00160405280600581526020016040518060400160405280601081526020017f696d616765732f4d6574726f2e6a70670000000000000000000000000000000081525081526020016040518060400160405280600c81526020017f4d6574726f2045786f64757300000000000000000000000000000000000000008152508152602001601e81526020016040518060400160405280600d81526020017f58626f7820536572696573205800000000000000000000000000000000000000815250815250600860006005815260200190815260200160002060008201518160000155602082015181600101908162000a4d91906200147e565b50604082015181600201908162000a6591906200147e565b5060608201518160030155608082015181600401908162000a8791906200147e565b509050506040518060a00160405280600681526020016040518060400160405280601481526020017f696d616765732f4d6172696f42726f732e6a706700000000000000000000000081525081526020016040518060400160405280601481526020017f4e6577205375706572204d6172696f2042726f730000000000000000000000008152508152602001603281526020016040518060400160405280600f81526020017f4e696e74656e646f205377697463680000000000000000000000000000000000815250815250600860006006815260200190815260200160002060008201518160000155602082015181600101908162000b8891906200147e565b50604082015181600201908162000ba091906200147e565b5060608201518160030155608082015181600401908162000bc291906200147e565b509050506040518060a00160405280600781526020016040518060400160405280601281526020017f696d616765732f506f6b656d6f6e2e6a7067000000000000000000000000000081525081526020016040518060400160405280601181526020017f506f6b656d6f6e2056696f6c6574746f200000000000000000000000000000008152508152602001603081526020016040518060400160405280600f81526020017f4e696e74656e646f205377697463680000000000000000000000000000000000815250815250600860006007815260200190815260200160002060008201518160000155602082015181600101908162000cc391906200147e565b50604082015181600201908162000cdb91906200147e565b5060608201518160030155608082015181600401908162000cfd91906200147e565b509050506040518060a00160405280600881526020016040518060400160405280601981526020017f696d616765732f416e696d616c43726f7373696e672e6a70670000000000000081525081526020016040518060400160405280601d81526020017f416e696d616c2043726f7373696e673a204e657720486f72697a6f6e730000008152508152602001603a81526020016040518060400160405280600f81526020017f4e696e74656e646f205377697463680000000000000000000000000000000000815250815250600860006008815260200190815260200160002060008201518160000155602082015181600101908162000dfe91906200147e565b50604082015181600201908162000e1691906200147e565b5060608201518160030155608082015181600401908162000e3891906200147e565b509050506009600781905550565b505050565b505050565b62000e62828262000f6260201b60201c565b62000f3e5760016005600084815260200190815260200160002060000160008373ffffffffffffffffffffffffffffffffffffffff1673ffffffffffffffffffffffffffffffffffffffff16815260200190815260200160002060006101000a81548160ff02191690831515021790555062000ee362000fcd60201b60201c565b73ffffffffffffffffffffffffffffffffffffffff168173ffffffffffffffffffffffffffffffffffffffff16837f2f8788117e7eff1d82e926ec794901d17c78024a50270940304540a733656f0d60405160405180910390a45b5050565b600060056000838152602001908152602001600020600101549050919050565b60006005600084815260200190815260200160002060000160008373ffffffffffffffffffffffffffffffffffffffff1673ffffffffffffffffffffffffffffffffffffffff16815260200190815260200160002060009054906101000a900460ff16905092915050565b600033905090565b6000604051905090565b600080fd5b600080fd5b600080fd5b600080fd5b6000601f19601f8301169050919050565b7f4e487b7100000000000000000000000000000000000000000000000000000000600052604160045260246000fd5b6200103e8262000ff3565b810181811067ffffffffffffffff8211171562001060576200105f62001004565b5b80604052505050565b60006200107562000fd5565b905062001083828262001033565b919050565b600067ffffffffffffffff821115620010a657620010a562001004565b5b620010b18262000ff3565b9050602081019050919050565b60005b83811015620010de578082015181840152602081019050620010c1565b60008484015250505050565b600062001101620010fb8462001088565b62001069565b90508281526020810184848401111562001120576200111f62000fee565b5b6200112d848285620010be565b509392505050565b600082601f8301126200114d576200114c62000fe9565b5b81516200115f848260208601620010ea565b91505092915050565b6000819050919050565b6200117d8162001168565b81146200118957600080fd5b50565b6000815190506200119d8162001172565b92915050565b600080600060608486031215620011bf57620011be62000fdf565b5b600084015167ffffffffffffffff811115620011e057620011df62000fe4565b5b620011ee8682870162001135565b935050602084015167ffffffffffffffff81111562001212576200121162000fe4565b5b620012208682870162001135565b925050604062001233868287016200118c565b9150509250925092565b600081519050919050565b7f4e487b7100000000000000000000000000000000000000000000000000000000600052602260045260246000fd5b600060028204905060018216806200129057607f821691505b602082108103620012a657620012a562001248565b5b50919050565b60008190508160005260206000209050919050565b60006020601f8301049050919050565b600082821b905092915050565b600060088302620013107fffffffffffffffffffffffffffffffffffffffffffffffffffffffffffffffff82620012d1565b6200131c8683620012d1565b95508019841693508086168417925050509392505050565b6000819050919050565b60006200135f62001359620013538462001168565b62001334565b62001168565b9050919050565b6000819050919050565b6200137b836200133e565b620013936200138a8262001366565b848454620012de565b825550505050565b600090565b620013aa6200139b565b620013b781848462001370565b505050565b5b81811015620013df57620013d3600082620013a0565b600181019050620013bd565b5050565b601f8211156200142e57620013f881620012ac565b6200140384620012c1565b8101602085101562001413578190505b6200142b6200142285620012c1565b830182620013bc565b50505b505050565b600082821c905092915050565b6000620014536000198460080262001433565b1980831691505092915050565b60006200146e838362001440565b9150826002028217905092915050565b62001489826200123d565b67ffffffffffffffff811115620014a557620014a462001004565b5b620014b1825462001277565b620014be828285620013e3565b600060209050601f831160018114620014f65760008415620014e1578287015190505b620014ed858262001460565b8655506200155d565b601f1984166200150686620012ac565b60005b82811015620015305784890151825560018201915060208501945060208101905062001509565b868310156200155057848901516200154c601f89168262001440565b8355505b6001600288020188555050505b505050505050565b600082825260208201905092915050565b7f45524332303a206d696e7420746f20746865207a65726f206164647265737300600082015250565b6000620015ae601f8362001565565b9150620015bb8262001576565b602082019050919050565b60006020820190508181036000830152620015e1816200159f565b9050919050565b7f4e487b7100000000000000000000000000000000000000000000000000000000600052601160045260246000fd5b6000620016248262001168565b9150620016318362001168565b92508282019050808211156200164c576200164b620015e8565b5b92915050565b6200165d8162001168565b82525050565b60006020820190506200167a600083018462001652565b92915050565b613e6b80620016906000396000f3fe608060405234801561001057600080fd5b50600436106101cf5760003560e01c80637acc0b2011610104578063a9059cbb116100a2578063d539139311610071578063d539139314610592578063d547741f146105b0578063dd62ed3e146105cc578063f800d332146105fc576101cf565b8063a9059cbb146104f8578063aa271e1a14610528578063adbf377614610558578063d055a75f14610574576101cf565b806395d89b41116100de57806395d89b41146104825780639a743b3a146104a0578063a217fddf146104aa578063a457c2d7146104c8576101cf565b80637acc0b20146103ee5780638642269e1461042257806391d1485414610452576101cf565b80632f2ff15d11610171578063395093511161014b578063395093511461035657806340c10f191461038657806354f1e126146103a257806370a08231146103be576101cf565b80632f2ff15d14610300578063313ce5671461031c57806336568abe1461033a576101cf565b806318160ddd116101ad57806318160ddd1461025257806323b872dd14610270578063248a9ca3146102a057806324d7806c146102d0576101cf565b806301ffc9a7146101d457806306fdde0314610204578063095ea7b314610222575b600080fd5b6101ee60048036038101906101e99190612a50565b610618565b6040516101fb9190612a98565b60405180910390f35b61020c610692565b6040516102199190612b43565b60405180910390f35b61023c60048036038101906102379190612bf9565b610724565b6040516102499190612a98565b60405180910390f35b61025a610747565b6040516102679190612c48565b60405180910390f35b61028a60048036038101906102859190612c63565b610751565b6040516102979190612a98565b60405180910390f35b6102ba60048036038101906102b59190612cec565b610780565b6040516102c79190612d28565b60405180910390f35b6102ea60048036038101906102e59190612d43565b6107a0565b6040516102f79190612a98565b60405180910390f35b61031a60048036038101906103159190612d70565b6107b6565b005b6103246107d7565b6040516103319190612dcc565b60405180910390f35b610354600480360381019061034f9190612d70565b6107e0565b005b610370600480360381019061036b9190612bf9565b610863565b60405161037d9190612a98565b60405180910390f35b6103a0600480360381019061039b9190612bf9565b61089a565b005b6103bc60048036038101906103b79190612d43565b610927565b005b6103d860048036038101906103d39190612d43565b610954565b6040516103e59190612c48565b60405180910390f35b61040860048036038101906104039190612de7565b61099c565b604051610419959493929190612e14565b60405180910390f35b61043c60048036038101906104379190612de7565b610b6a565b6040516104499190612a98565b60405180910390f35b61046c60048036038101906104679190612d70565b610b9f565b6040516104799190612a98565b60405180910390f35b61048a610c0a565b6040516104979190612b43565b60405180910390f35b6104a8610c9c565b005b6104b2611782565b6040516104bf9190612d28565b60405180910390f35b6104e260048036038101906104dd9190612bf9565b611789565b6040516104ef9190612a98565b60405180910390f35b610512600480360381019061050d9190612bf9565b611800565b60405161051f9190612a98565b60405180910390f35b610542600480360381019061053d9190612d43565b611823565b60405161054f9190612a98565b60405180910390f35b610572600480360381019061056d9190612d43565b611856565b005b61057c61198c565b604051610589919061301b565b60405180910390f35b61059a611c16565b6040516105a79190612d28565b60405180910390f35b6105ca60048036038101906105c59190612d70565b611c3a565b005b6105e660048036038101906105e1919061303d565b611c5b565b6040516105f39190612c48565b60405180910390f35b610616600480360381019061061191906131b2565b611ce2565b005b60007f7965db0b000000000000000000000000000000000000000000000000000000007bffffffffffffffffffffffffffffffffffffffffffffffffffffffff1916827bffffffffffffffffffffffffffffffffffffffffffffffffffffffff1916148061068b575061068a82611e53565b5b9050919050565b6060600380546106a19061329c565b80601f01602080910402602001604051908101604052809291908181526020018280546106cd9061329c565b801561071a5780601f106106ef5761010080835404028352916020019161071a565b820191906000526020600020905b8154815290600101906020018083116106fd57829003601f168201915b5050505050905090565b60008061072f611ebd565b905061073c818585611ec5565b600191505092915050565b6000600254905090565b60008061075c611ebd565b905061076985828561208e565b61077485858561211a565b60019150509392505050565b600060056000838152602001908152602001600020600101549050919050565b60006107af6000801b83610b9f565b9050919050565b6107bf82610780565b6107c881612390565b6107d283836123a4565b505050565b60006012905090565b6107e8611ebd565b73ffffffffffffffffffffffffffffffffffffffff168173ffffffffffffffffffffffffffffffffffffffff1614610855576040517f08c379a000000000000000000000000000000000000000000000000000000000815260040161084c9061333f565b60405180910390fd5b61085f8282612485565b5050565b60008061086e611ebd565b905061088f8185856108808589611c5b565b61088a919061338e565b611ec5565b600191505092915050565b7f30961df266e1c49061f4de998a0d33e0a256c0b6b9a896ed98ac9293063b7cc7336040516108c991906133d1565b60405180910390a16108da33611823565b610919576040517f08c379a000000000000000000000000000000000000000000000000000000000815260040161091090613438565b60405180910390fd5b6109238282612567565b5050565b6109517f9f2df0fed2c77648de5860a4cc508cd0818c85b8b8a1ab4ceeef8d981c8956a6826107e0565b50565b60008060008373ffffffffffffffffffffffffffffffffffffffff1673ffffffffffffffffffffffffffffffffffffffff168152602001908152602001600020549050919050565b60086020528060005260406000206000915090508060000154908060010180546109c59061329c565b80601f01602080910402602001604051908101604052809291908181526020018280546109f19061329c565b8015610a3e5780601f10610a1357610100808354040283529160200191610a3e565b820191906000526020600020905b815481529060010190602001808311610a2157829003601f168201915b505050505090806002018054610a539061329c565b80601f0160208091040260200160405190810160405280929190818152602001828054610a7f9061329c565b8015610acc5780601f10610aa157610100808354040283529160200191610acc565b820191906000526020600020905b815481529060010190602001808311610aaf57829003601f168201915b505050505090806003015490806004018054610ae79061329c565b80601f0160208091040260200160405190810160405280929190818152602001828054610b139061329c565b8015610b605780601f10610b3557610100808354040283529160200191610b60565b820191906000526020600020905b815481529060010190602001808311610b4357829003601f168201915b5050505050905085565b6000610b98600660009054906101000a900473ffffffffffffffffffffffffffffffffffffffff1683611800565b9050919050565b60006005600084815260200190815260200160002060000160008373ffffffffffffffffffffffffffffffffffffffff1673ffffffffffffffffffffffffffffffffffffffff16815260200190815260200160002060009054906101000a900460ff16905092915050565b606060048054610c199061329c565b80601f0160208091040260200160405190810160405280929190818152602001828054610c459061329c565b8015610c925780601f10610c6757610100808354040283529160200191610c92565b820191906000526020600020905b815481529060010190602001808311610c7557829003601f168201915b5050505050905090565b6040518060a00160405280600081526020016040518060400160405280601381526020017f696d616765732f476f644f665761722e6a70670000000000000000000000000081525081526020016040518060400160405280601381526020017f476f64204f6620576172205261676e61726f6b000000000000000000000000008152508152602001604681526020016040518060400160405280600d81526020017f506c617953746174696f6e20350000000000000000000000000000000000000081525081525060086000808152602001908152602001600020600082015181600001556020820151816001019081610d969190613604565b506040820151816002019081610dac9190613604565b50606082015181600301556080820151816004019081610dcc9190613604565b509050506040518060a00160405280600181526020016040518060400160405280600e81526020017f696d616765732f4d57322e6a706700000000000000000000000000000000000081525081526020016040518060400160405280601f81526020017f43616c6c206f6620447574793a204d6f6465726e2057617266617265204949008152508152602001604b81526020016040518060400160405280600d81526020017f506c617953746174696f6e2035000000000000000000000000000000000000008152508152506008600060018152602001908152602001600020600082015181600001556020820151816001019081610ecb9190613604565b506040820151816002019081610ee19190613604565b50606082015181600301556080820151816004019081610f019190613604565b509050506040518060a00160405280600281526020016040518060400160405280601281526020017f696d616765732f486f72697a6f6e2e6a7067000000000000000000000000000081525081526020016040518060400160405280601781526020017f486f72697a6f6e3a20466f7262696464656e20576573740000000000000000008152508152602001603581526020016040518060400160405280600d81526020017f506c617953746174696f6e20350000000000000000000000000000000000000081525081525060086000600281526020019081526020016000206000820151816000015560208201518160010190816110009190613604565b5060408201518160020190816110169190613604565b506060820151816003015560808201518160040190816110369190613604565b509050506040518060a00160405280600381526020016040518060400160405280601281526020017f696d616765732f466172437279362e6a7067000000000000000000000000000081525081526020016040518060400160405280600981526020017f46617220437279203600000000000000000000000000000000000000000000008152508152602001601481526020016040518060400160405280600d81526020017f58626f782053657269657320580000000000000000000000000000000000000081525081525060086000600381526020019081526020016000206000820151816000015560208201518160010190816111359190613604565b50604082015181600201908161114b9190613604565b5060608201518160030155608082015181600401908161116b9190613604565b509050506040518060a00160405280600481526020016040518060400160405280601b81526020017f696d616765732f43616c6c6973746f50726f746f636f6c2e6a7067000000000081525081526020016040518060400160405280601581526020017f5468652043616c6c6973746f2050726f746f636f6c00000000000000000000008152508152602001603781526020016040518060400160405280600d81526020017f58626f7820536572696573205800000000000000000000000000000000000000815250815250600860006004815260200190815260200160002060008201518160000155602082015181600101908161126a9190613604565b5060408201518160020190816112809190613604565b506060820151816003015560808201518160040190816112a09190613604565b509050506040518060a00160405280600581526020016040518060400160405280601081526020017f696d616765732f4d6574726f2e6a70670000000000000000000000000000000081525081526020016040518060400160405280600c81526020017f4d6574726f2045786f64757300000000000000000000000000000000000000008152508152602001601e81526020016040518060400160405280600d81526020017f58626f7820536572696573205800000000000000000000000000000000000000815250815250600860006005815260200190815260200160002060008201518160000155602082015181600101908161139f9190613604565b5060408201518160020190816113b59190613604565b506060820151816003015560808201518160040190816113d59190613604565b509050506040518060a00160405280600681526020016040518060400160405280601481526020017f696d616765732f4d6172696f42726f732e6a706700000000000000000000000081525081526020016040518060400160405280601481526020017f4e6577205375706572204d6172696f2042726f730000000000000000000000008152508152602001603281526020016040518060400160405280600f81526020017f4e696e74656e646f20537769746368000000000000000000000000000000000081525081525060086000600681526020019081526020016000206000820151816000015560208201518160010190816114d49190613604565b5060408201518160020190816114ea9190613604565b5060608201518160030155608082015181600401908161150a9190613604565b509050506040518060a00160405280600781526020016040518060400160405280601281526020017f696d616765732f506f6b656d6f6e2e6a7067000000000000000000000000000081525081526020016040518060400160405280601181526020017f506f6b656d6f6e2056696f6c6574746f200000000000000000000000000000008152508152602001603081526020016040518060400160405280600f81526020017f4e696e74656e646f20537769746368000000000000000000000000000000000081525081525060086000600781526020019081526020016000206000820151816000015560208201518160010190816116099190613604565b50604082015181600201908161161f9190613604565b5060608201518160030155608082015181600401908161163f9190613604565b509050506040518060a00160405280600881526020016040518060400160405280601981526020017f696d616765732f416e696d616c43726f7373696e672e6a70670000000000000081525081526020016040518060400160405280601d81526020017f416e696d616c2043726f7373696e673a204e657720486f72697a6f6e730000008152508152602001603a81526020016040518060400160405280600f81526020017f4e696e74656e646f205377697463680000000000000000000000000000000000815250815250600860006008815260200190815260200160002060008201518160000155602082015181600101908161173e9190613604565b5060408201518160020190816117549190613604565b506060820151816003015560808201518160040190816117749190613604565b509050506009600781905550565b6000801b81565b600080611794611ebd565b905060006117a28286611c5b565b9050838110156117e7576040517f08c379a00000000000000000000000000000000000000000000000000000000081526004016117de90613748565b60405180910390fd5b6117f48286868403611ec5565b60019250505092915050565b60008061180b611ebd565b905061181881858561211a565b600191505092915050565b600061184f7f9f2df0fed2c77648de5860a4cc508cd0818c85b8b8a1ab4ceeef8d981c8956a683610b9f565b9050919050565b7ff8ef03ce9f2cfdd733d77d52a15531b9932a15f9d03c8f7705d67e6fdeb11e6f3360405161188591906133d1565b60405180910390a1611896336107a0565b6118d5576040517f08c379a00000000000000000000000000000000000000000000000000000000081526004016118cc906137b4565b60405180910390fd5b7ffbeaa2d4b24ea8784b2e518c3040f6dfe5edce67a0ffce9f5162d2a149b3523c81337f9f2df0fed2c77648de5860a4cc508cd0818c85b8b8a1ab4ceeef8d981c8956a66119427f9f2df0fed2c77648de5860a4cc508cd0818c85b8b8a1ab4ceeef8d981c8956a6610780565b6000801b6040516119579594939291906137d4565b60405180910390a16119897f9f2df0fed2c77648de5860a4cc508cd0818c85b8b8a1ab4ceeef8d981c8956a6826107b6565b50565b6060600060075467ffffffffffffffff8111156119ac576119ab613087565b5b6040519080825280602002602001820160405280156119e557816020015b6119d26129b5565b8152602001906001900390816119ca5790505b50905060005b600754811015611c0e57600860008281526020019081526020016000206040518060a001604052908160008201548152602001600182018054611a2d9061329c565b80601f0160208091040260200160405190810160405280929190818152602001828054611a599061329c565b8015611aa65780601f10611a7b57610100808354040283529160200191611aa6565b820191906000526020600020905b815481529060010190602001808311611a8957829003601f168201915b50505050508152602001600282018054611abf9061329c565b80601f0160208091040260200160405190810160405280929190818152602001828054611aeb9061329c565b8015611b385780601f10611b0d57610100808354040283529160200191611b38565b820191906000526020600020905b815481529060010190602001808311611b1b57829003601f168201915b5050505050815260200160038201548152602001600482018054611b5b9061329c565b80601f0160208091040260200160405190810160405280929190818152602001828054611b879061329c565b8015611bd45780601f10611ba957610100808354040283529160200191611bd4565b820191906000526020600020905b815481529060010190602001808311611bb757829003601f168201915b505050505081525050828281518110611bf057611bef613827565b5b60200260200101819052508080611c0690613856565b9150506119eb565b508091505090565b7f9f2df0fed2c77648de5860a4cc508cd0818c85b8b8a1ab4ceeef8d981c8956a681565b611c4382610780565b611c4c81612390565b611c568383612485565b505050565b6000600160008473ffffffffffffffffffffffffffffffffffffffff1673ffffffffffffffffffffffffffffffffffffffff16815260200190815260200160002060008373ffffffffffffffffffffffffffffffffffffffff1673ffffffffffffffffffffffffffffffffffffffff16815260200190815260200160002054905092915050565b7ff8ef03ce9f2cfdd733d77d52a15531b9932a15f9d03c8f7705d67e6fdeb11e6f33604051611d1191906133d1565b60405180910390a1611d22336107a0565b611d61576040517f08c379a0000000000000000000000000000000000000000000000000000000008152600401611d58906137b4565b60405180910390fd5b60006040518060a00160405280600754815260200185815260200186815260200184815260200183815250905080600860006007548152602001908152602001600020600082015181600001556020820151816001019081611dc39190613604565b506040820151816002019081611dd99190613604565b50606082015181600301556080820151816004019081611df99190613604565b5090505060076000815480929190611e1090613856565b91905055507f98df350a9a4ad20919bc7cde78be14235a95149faf51b559f017f631a2bc451a33604051611e4491906133d1565b60405180910390a15050505050565b60007f01ffc9a7000000000000000000000000000000000000000000000000000000007bffffffffffffffffffffffffffffffffffffffffffffffffffffffff1916827bffffffffffffffffffffffffffffffffffffffffffffffffffffffff1916149050919050565b600033905090565b600073ffffffffffffffffffffffffffffffffffffffff168373ffffffffffffffffffffffffffffffffffffffff1603611f34576040517f08c379a0000000000000000000000000000000000000000000000000000000008152600401611f2b90613910565b60405180910390fd5b600073ffffffffffffffffffffffffffffffffffffffff168273ffffffffffffffffffffffffffffffffffffffff1603611fa3576040517f08c379a0000000000000000000000000000000000000000000000000000000008152600401611f9a906139a2565b60405180910390fd5b80600160008573ffffffffffffffffffffffffffffffffffffffff1673ffffffffffffffffffffffffffffffffffffffff16815260200190815260200160002060008473ffffffffffffffffffffffffffffffffffffffff1673ffffffffffffffffffffffffffffffffffffffff168152602001908152602001600020819055508173ffffffffffffffffffffffffffffffffffffffff168373ffffffffffffffffffffffffffffffffffffffff167f8c5be1e5ebec7d5bd14f71427d1e84f3dd0314c0f7b2291e5b200ac8c7c3b925836040516120819190612c48565b60405180910390a3505050565b600061209a8484611c5b565b90507fffffffffffffffffffffffffffffffffffffffffffffffffffffffffffffffff81146121145781811015612106576040517f08c379a00000000000000000000000000000000000000000000000000000000081526004016120fd90613a0e565b60405180910390fd5b6121138484848403611ec5565b5b50505050565b600073ffffffffffffffffffffffffffffffffffffffff168373ffffffffffffffffffffffffffffffffffffffff1603612189576040517f08c379a000000000000000000000000000000000000000000000000000000000815260040161218090613aa0565b60405180910390fd5b600073ffffffffffffffffffffffffffffffffffffffff168273ffffffffffffffffffffffffffffffffffffffff16036121f8576040517f08c379a00000000000000000000000000000000000000000000000000000000081526004016121ef90613b32565b60405180910390fd5b6122038383836126bd565b60008060008573ffffffffffffffffffffffffffffffffffffffff1673ffffffffffffffffffffffffffffffffffffffff16815260200190815260200160002054905081811015612289576040517f08c379a000000000000000000000000000000000000000000000000000000000815260040161228090613bc4565b60405180910390fd5b8181036000808673ffffffffffffffffffffffffffffffffffffffff1673ffffffffffffffffffffffffffffffffffffffff16815260200190815260200160002081905550816000808573ffffffffffffffffffffffffffffffffffffffff1673ffffffffffffffffffffffffffffffffffffffff168152602001908152602001600020600082825401925050819055508273ffffffffffffffffffffffffffffffffffffffff168473ffffffffffffffffffffffffffffffffffffffff167fddf252ad1be2c89b69c2b068fc378daa952ba7f163c4a11628f55a4df523b3ef846040516123779190612c48565b60405180910390a361238a8484846126c2565b50505050565b6123a18161239c611ebd565b6126c7565b50565b6123ae8282610b9f565b6124815760016005600084815260200190815260200160002060000160008373ffffffffffffffffffffffffffffffffffffffff1673ffffffffffffffffffffffffffffffffffffffff16815260200190815260200160002060006101000a81548160ff021916908315150217905550612426611ebd565b73ffffffffffffffffffffffffffffffffffffffff168173ffffffffffffffffffffffffffffffffffffffff16837f2f8788117e7eff1d82e926ec794901d17c78024a50270940304540a733656f0d60405160405180910390a45b5050565b61248f8282610b9f565b156125635760006005600084815260200190815260200160002060000160008373ffffffffffffffffffffffffffffffffffffffff1673ffffffffffffffffffffffffffffffffffffffff16815260200190815260200160002060006101000a81548160ff021916908315150217905550612508611ebd565b73ffffffffffffffffffffffffffffffffffffffff168173ffffffffffffffffffffffffffffffffffffffff16837ff6391f5c32d9c69d2a47ea670b442974b53935d1edc7fd64eb21e047a839171b60405160405180910390a45b5050565b600073ffffffffffffffffffffffffffffffffffffffff168273ffffffffffffffffffffffffffffffffffffffff16036125d6576040517f08c379a00000000000000000000000000000000000000000000000000000000081526004016125cd90613c30565b60405180910390fd5b6125e2600083836126bd565b80600260008282546125f4919061338e565b92505081905550806000808473ffffffffffffffffffffffffffffffffffffffff1673ffffffffffffffffffffffffffffffffffffffff168152602001908152602001600020600082825401925050819055508173ffffffffffffffffffffffffffffffffffffffff16600073ffffffffffffffffffffffffffffffffffffffff167fddf252ad1be2c89b69c2b068fc378daa952ba7f163c4a11628f55a4df523b3ef836040516126a59190612c48565b60405180910390a36126b9600083836126c2565b5050565b505050565b505050565b6126d18282610b9f565b612748576126de8161274c565b6126ec8360001c6020612779565b6040516020016126fd929190613d24565b6040516020818303038152906040526040517f08c379a000000000000000000000000000000000000000000000000000000000815260040161273f9190612b43565b60405180910390fd5b5050565b60606127728273ffffffffffffffffffffffffffffffffffffffff16601460ff16612779565b9050919050565b60606000600283600261278c9190613d5e565b612796919061338e565b67ffffffffffffffff8111156127af576127ae613087565b5b6040519080825280601f01601f1916602001820160405280156127e15781602001600182028036833780820191505090505b5090507f30000000000000000000000000000000000000000000000000000000000000008160008151811061281957612818613827565b5b60200101907effffffffffffffffffffffffffffffffffffffffffffffffffffffffffffff1916908160001a9053507f78000000000000000000000000000000000000000000000000000000000000008160018151811061287d5761287c613827565b5b60200101907effffffffffffffffffffffffffffffffffffffffffffffffffffffffffffff1916908160001a905350600060018460026128bd9190613d5e565b6128c7919061338e565b90505b6001811115612967577f3031323334353637383961626364656600000000000000000000000000000000600f86166010811061290957612908613827565b5b1a60f81b8282815181106129205761291f613827565b5b60200101907effffffffffffffffffffffffffffffffffffffffffffffffffffffffffffff1916908160001a905350600485901c94508061296090613da0565b90506128ca565b50600084146129ab576040517f08c379a00000000000000000000000000000000000000000000000000000000081526004016129a290613e15565b60405180910390fd5b8091505092915050565b6040518060a0016040528060008152602001606081526020016060815260200160008152602001606081525090565b6000604051905090565b600080fd5b600080fd5b60007fffffffff0000000000000000000000000000000000000000000000000000000082169050919050565b612a2d816129f8565b8114612a3857600080fd5b50565b600081359050612a4a81612a24565b92915050565b600060208284031215612a6657612a656129ee565b5b6000612a7484828501612a3b565b91505092915050565b60008115159050919050565b612a9281612a7d565b82525050565b6000602082019050612aad6000830184612a89565b92915050565b600081519050919050565b600082825260208201905092915050565b60005b83811015612aed578082015181840152602081019050612ad2565b60008484015250505050565b6000601f19601f8301169050919050565b6000612b1582612ab3565b612b1f8185612abe565b9350612b2f818560208601612acf565b612b3881612af9565b840191505092915050565b60006020820190508181036000830152612b5d8184612b0a565b905092915050565b600073ffffffffffffffffffffffffffffffffffffffff82169050919050565b6000612b9082612b65565b9050919050565b612ba081612b85565b8114612bab57600080fd5b50565b600081359050612bbd81612b97565b92915050565b6000819050919050565b612bd681612bc3565b8114612be157600080fd5b50565b600081359050612bf381612bcd565b92915050565b60008060408385031215612c1057612c0f6129ee565b5b6000612c1e85828601612bae565b9250506020612c2f85828601612be4565b9150509250929050565b612c4281612bc3565b82525050565b6000602082019050612c5d6000830184612c39565b92915050565b600080600060608486031215612c7c57612c7b6129ee565b5b6000612c8a86828701612bae565b9350506020612c9b86828701612bae565b9250506040612cac86828701612be4565b9150509250925092565b6000819050919050565b612cc981612cb6565b8114612cd457600080fd5b50565b600081359050612ce681612cc0565b92915050565b600060208284031215612d0257612d016129ee565b5b6000612d1084828501612cd7565b91505092915050565b612d2281612cb6565b82525050565b6000602082019050612d3d6000830184612d19565b92915050565b600060208284031215612d5957612d586129ee565b5b6000612d6784828501612bae565b91505092915050565b60008060408385031215612d8757612d866129ee565b5b6000612d9585828601612cd7565b9250506020612da685828601612bae565b9150509250929050565b600060ff82169050919050565b612dc681612db0565b82525050565b6000602082019050612de16000830184612dbd565b92915050565b600060208284031215612dfd57612dfc6129ee565b5b6000612e0b84828501612be4565b91505092915050565b600060a082019050612e296000830188612c39565b8181036020830152612e3b8187612b0a565b90508181036040830152612e4f8186612b0a565b9050612e5e6060830185612c39565b8181036080830152612e708184612b0a565b90509695505050505050565b600081519050919050565b600082825260208201905092915050565b6000819050602082019050919050565b612eb181612bc3565b82525050565b600082825260208201905092915050565b6000612ed382612ab3565b612edd8185612eb7565b9350612eed818560208601612acf565b612ef681612af9565b840191505092915050565b600060a083016000830151612f196000860182612ea8565b5060208301518482036020860152612f318282612ec8565b91505060408301518482036040860152612f4b8282612ec8565b9150506060830151612f606060860182612ea8565b5060808301518482036080860152612f788282612ec8565b9150508091505092915050565b6000612f918383612f01565b905092915050565b6000602082019050919050565b6000612fb182612e7c565b612fbb8185612e87565b935083602082028501612fcd85612e98565b8060005b858110156130095784840389528151612fea8582612f85565b9450612ff583612f99565b925060208a01995050600181019050612fd1565b50829750879550505050505092915050565b600060208201905081810360008301526130358184612fa6565b905092915050565b60008060408385031215613054576130536129ee565b5b600061306285828601612bae565b925050602061307385828601612bae565b9150509250929050565b600080fd5b600080fd5b7f4e487b7100000000000000000000000000000000000000000000000000000000600052604160045260246000fd5b6130bf82612af9565b810181811067ffffffffffffffff821117156130de576130dd613087565b5b80604052505050565b60006130f16129e4565b90506130fd82826130b6565b919050565b600067ffffffffffffffff82111561311d5761311c613087565b5b61312682612af9565b9050602081019050919050565b82818337600083830152505050565b600061315561315084613102565b6130e7565b90508281526020810184848401111561317157613170613082565b5b61317c848285613133565b509392505050565b600082601f8301126131995761319861307d565b5b81356131a9848260208601613142565b91505092915050565b600080600080608085870312156131cc576131cb6129ee565b5b600085013567ffffffffffffffff8111156131ea576131e96129f3565b5b6131f687828801613184565b945050602085013567ffffffffffffffff811115613217576132166129f3565b5b61322387828801613184565b935050604061323487828801612be4565b925050606085013567ffffffffffffffff811115613255576132546129f3565b5b61326187828801613184565b91505092959194509250565b7f4e487b7100000000000000000000000000000000000000000000000000000000600052602260045260246000fd5b600060028204905060018216806132b457607f821691505b6020821081036132c7576132c661326d565b5b50919050565b7f416363657373436f6e74726f6c3a2063616e206f6e6c792072656e6f756e636560008201527f20726f6c657320666f722073656c660000000000000000000000000000000000602082015250565b6000613329602f83612abe565b9150613334826132cd565b604082019050919050565b600060208201905081810360008301526133588161331c565b9050919050565b7f4e487b7100000000000000000000000000000000000000000000000000000000600052601160045260246000fd5b600061339982612bc3565b91506133a483612bc3565b92508282019050808211156133bc576133bb61335f565b5b92915050565b6133cb81612b85565b82525050565b60006020820190506133e660008301846133c2565b92915050565b7f43616c6c6572206973206e6f742061206d696e74657200000000000000000000600082015250565b6000613422601683612abe565b915061342d826133ec565b602082019050919050565b6000602082019050818103600083015261345181613415565b9050919050565b60008190508160005260206000209050919050565b60006020601f8301049050919050565b600082821b905092915050565b6000600883026134ba7fffffffffffffffffffffffffffffffffffffffffffffffffffffffffffffffff8261347d565b6134c4868361347d565b95508019841693508086168417925050509392505050565b6000819050919050565b60006135016134fc6134f784612bc3565b6134dc565b612bc3565b9050919050565b6000819050919050565b61351b836134e6565b61352f61352782613508565b84845461348a565b825550505050565b600090565b613544613537565b61354f818484613512565b505050565b5b818110156135735761356860008261353c565b600181019050613555565b5050565b601f8211156135b85761358981613458565b6135928461346d565b810160208510156135a1578190505b6135b56135ad8561346d565b830182613554565b50505b505050565b600082821c905092915050565b60006135db600019846008026135bd565b1980831691505092915050565b60006135f483836135ca565b9150826002028217905092915050565b61360d82612ab3565b67ffffffffffffffff81111561362657613625613087565b5b613630825461329c565b61363b828285613577565b600060209050601f83116001811461366e576000841561365c578287015190505b61366685826135e8565b8655506136ce565b601f19841661367c86613458565b60005b828110156136a45784890151825560018201915060208501945060208101905061367f565b868310156136c157848901516136bd601f8916826135ca565b8355505b6001600288020188555050505b505050505050565b7f45524332303a2064656372656173656420616c6c6f77616e63652062656c6f7760008201527f207a65726f000000000000000000000000000000000000000000000000000000602082015250565b6000613732602583612abe565b915061373d826136d6565b604082019050919050565b6000602082019050818103600083015261376181613725565b9050919050565b7f5265737472696374656420746f2061646d696e73000000000000000000000000600082015250565b600061379e601483612abe565b91506137a982613768565b602082019050919050565b600060208201905081810360008301526137cd81613791565b9050919050565b600060a0820190506137e960008301886133c2565b6137f660208301876133c2565b6138036040830186612d19565b6138106060830185612d19565b61381d6080830184612d19565b9695505050505050565b7f4e487b7100000000000000000000000000000000000000000000000000000000600052603260045260246000fd5b600061386182612bc3565b91507fffffffffffffffffffffffffffffffffffffffffffffffffffffffffffffffff82036138935761389261335f565b5b600182019050919050565b7f45524332303a20617070726f76652066726f6d20746865207a65726f2061646460008201527f7265737300000000000000000000000000000000000000000000000000000000602082015250565b60006138fa602483612abe565b91506139058261389e565b604082019050919050565b60006020820190508181036000830152613929816138ed565b9050919050565b7f45524332303a20617070726f766520746f20746865207a65726f20616464726560008201527f7373000000000000000000000000000000000000000000000000000000000000602082015250565b600061398c602283612abe565b915061399782613930565b604082019050919050565b600060208201905081810360008301526139bb8161397f565b9050919050565b7f45524332303a20696e73756666696369656e7420616c6c6f77616e6365000000600082015250565b60006139f8601d83612abe565b9150613a03826139c2565b602082019050919050565b60006020820190508181036000830152613a27816139eb565b9050919050565b7f45524332303a207472616e736665722066726f6d20746865207a65726f20616460008201527f6472657373000000000000000000000000000000000000000000000000000000602082015250565b6000613a8a602583612abe565b9150613a9582613a2e565b604082019050919050565b60006020820190508181036000830152613ab981613a7d565b9050919050565b7f45524332303a207472616e7366657220746f20746865207a65726f206164647260008201527f6573730000000000000000000000000000000000000000000000000000000000602082015250565b6000613b1c602383612abe565b9150613b2782613ac0565b604082019050919050565b60006020820190508181036000830152613b4b81613b0f565b9050919050565b7f45524332303a207472616e7366657220616d6f756e742065786365656473206260008201527f616c616e63650000000000000000000000000000000000000000000000000000602082015250565b6000613bae602683612abe565b9150613bb982613b52565b604082019050919050565b60006020820190508181036000830152613bdd81613ba1565b9050919050565b7f45524332303a206d696e7420746f20746865207a65726f206164647265737300600082015250565b6000613c1a601f83612abe565b9150613c2582613be4565b602082019050919050565b60006020820190508181036000830152613c4981613c0d565b9050919050565b600081905092915050565b7f416363657373436f6e74726f6c3a206163636f756e7420000000000000000000600082015250565b6000613c91601783613c50565b9150613c9c82613c5b565b601782019050919050565b6000613cb282612ab3565b613cbc8185613c50565b9350613ccc818560208601612acf565b80840191505092915050565b7f206973206d697373696e6720726f6c6520000000000000000000000000000000600082015250565b6000613d0e601183613c50565b9150613d1982613cd8565b601182019050919050565b6000613d2f82613c84565b9150613d3b8285613ca7565b9150613d4682613d01565b9150613d528284613ca7565b91508190509392505050565b6000613d6982612bc3565b9150613d7483612bc3565b9250828202613d8281612bc3565b91508282048414831517613d9957613d9861335f565b5b5092915050565b6000613dab82612bc3565b915060008203613dbe57613dbd61335f565b5b600182039050919050565b7f537472696e67733a20686578206c656e67746820696e73756666696369656e74600082015250565b6000613dff602083612abe565b9150613e0a82613dc9565b602082019050919050565b60006020820190508181036000830152613e2e81613df2565b905091905056fea26469706673582212207d62ccade453e67dc3c6dccbd00c65c2f61ade62a2230b2fddef45be7919d1fe64736f6c63430008120033",
  "immutableReferences": {},
  "source": "pragma solidity ^0.8.17;\r\n\r\n\r\nimport \"@openzeppelin/contracts/token/ERC20/ERC20.sol\";\r\nimport \"@openzeppelin/contracts/access/AccessControl.sol\";\r\nimport \"@openzeppelin/contracts/utils/math/SafeMath.sol\";\r\n\r\ncontract GST_Token is ERC20, AccessControl {\r\n   bytes32 public constant MINTER_ROLE = keccak256(\"MINTER_ROLE\");\r\n   address private _owner;\r\n   uint _counterProd;\r\n\r\n   struct Product {\r\n    uint id;\r\n    string picture;\r\n    string name;\r\n    uint price;\r\n    string console;\r\n}\r\n\r\n    \r\n  mapping (uint256 => Product) public products;\r\n\r\n   constructor(\r\n        string memory name,\r\n        string memory symbol,\r\n        uint256 initialSupply) ERC20(name, symbol) {\r\n      _mint(msg.sender, initialSupply);\r\n      _mint(0x949708fa9679A5b95C0875A91edc23Ba8215C3c4, initialSupply);\r\n      _owner = msg.sender;\r\n      _counterProd = 0;\r\n      _setupRole(DEFAULT_ADMIN_ROLE, msg.sender);\r\n      _setRoleAdmin(MINTER_ROLE, DEFAULT_ADMIN_ROLE);\r\n      preloadProduct();\r\n   }\r\n\r\n   function preloadProduct() public{\r\n      products[0] = Product(0, \"images/GodOfWar.jpg\", \"God Of War Ragnarok\", 70, \"PlayStation 5\");\r\n      products[1] = Product(1, \"images/MW2.jpg\", \"Call of Duty: Modern Warfare II\", 75, \"PlayStation 5\");\r\n      products[2] = Product(2, \"images/Horizon.jpg\", \"Horizon: Forbidden West\", 53, \"PlayStation 5\");\r\n      products[3] = Product(3, \"images/FarCry6.jpg\", \"Far Cry 6\", 20, \"Xbox Series X\");\r\n      products[4] = Product(4, \"images/CallistoProtocol.jpg\", \"The Callisto Protocol\", 55, \"Xbox Series X\");\r\n      products[5] = Product(5, \"images/Metro.jpg\", \"Metro Exodus\", 30, \"Xbox Series X\");\r\n      products[6] = Product(6, \"images/MarioBros.jpg\", \"New Super Mario Bros\", 50, \"Nintendo Switch\");\r\n      products[7] = Product(7, \"images/Pokemon.jpg\",  \"Pokemon Violetto \", 48, \"Nintendo Switch\");\r\n      products[8] = Product(8, \"images/AnimalCrossing.jpg\", \"Animal Crossing: New Horizons\", 58, \"Nintendo Switch\");\r\n      _counterProd = 9;\r\n   }\r\n\r\n\r\n\r\n   function getAllProduct() public view returns (Product[] memory) {\r\n    \r\n    Product[] memory result = new Product[](_counterProd);\r\n    for (uint i = 0; i < _counterProd; i++) {\r\n      result[i] = products[i];\r\n    }\r\n\r\n    return result;\r\n}\r\n\r\n   function addProduct(string memory name,string memory picture, uint price, string memory console) public soloAdmin\r\n   {\r\n      Product memory p = Product(_counterProd, picture, name, price,console);\r\n      products[_counterProd] = p;\r\n      _counterProd++;\r\n\r\n      emit CheckAddProduct(msg.sender);\r\n\r\n   }\r\n\r\n\r\n   event Debug(address user, address sender, bytes32 role, bytes32 adminRole, bytes32 senderRole);\r\n   event ChecksoloAdmin(address user);\r\n   event ChecksoloMinters(address user);\r\n   event CheckModify(address user);\r\n   event CheckAddProduct(address user);\r\n\r\n   modifier soloAdmin() {\r\n      emit ChecksoloAdmin(msg.sender);\r\n      require(isAdmin(msg.sender), \"Restricted to admins\");\r\n      _;\r\n   }\r\n\r\n   modifier soloMinters() {\r\n      emit ChecksoloMinters(msg.sender);\r\n      require(isMinter(msg.sender), \"Caller is not a minter\");\r\n      _;\r\n   }\r\n\r\n   function buyProduct(uint256 amount) public virtual returns(bool)\r\n   {\r\n      return transfer( _owner, amount);\r\n   }\r\n\r\n   function isAdmin(address account) public virtual view returns (bool) {\r\n      return hasRole(DEFAULT_ADMIN_ROLE, account);\r\n   }\r\n\r\n   function isMinter(address account) public virtual view returns (bool) {\r\n      return hasRole(MINTER_ROLE, account);\r\n   }\r\n\r\n   function mint(address to, uint256 amount) public soloMinters {\r\n      _mint(to, amount);\r\n    }\r\n\r\n    function addMinterRole(address to) public soloAdmin {\r\n      emit Debug(to, msg.sender, MINTER_ROLE, getRoleAdmin(MINTER_ROLE), DEFAULT_ADMIN_ROLE);\r\n      grantRole(MINTER_ROLE, to);\r\n    }\r\n\r\n    function removeMinterRole (address to) public {\r\n      renounceRole(MINTER_ROLE, to);\r\n    }\r\n\r\n\r\n\r\n}\r\n\r\n",
  "sourcePath": "C:\\Users\\marco\\Desktop\\UniMagistrale\\SecondoAnno\\SicurezzaDeiDati\\Test\\contracts\\GST_Token.sol",
  "compiler": {
    "name": "solc",
    "version": "0.8.18+commit.87f61d96.Emscripten.clang"
  },
  "schemaVersion": "3.4.11",
  "updatedAt": "2023-02-18T16:19:24.396Z",
  "networkType": "ethereum",
  "devdoc": {
    "events": {
      "Approval(address,address,uint256)": {
        "details": "Emitted when the allowance of a `spender` for an `owner` is set by a call to {approve}. `value` is the new allowance."
      },
      "RoleAdminChanged(bytes32,bytes32,bytes32)": {
        "details": "Emitted when `newAdminRole` is set as ``role``'s admin role, replacing `previousAdminRole` `DEFAULT_ADMIN_ROLE` is the starting admin for all roles, despite {RoleAdminChanged} not being emitted signaling this. _Available since v3.1._"
      },
      "RoleGranted(bytes32,address,address)": {
        "details": "Emitted when `account` is granted `role`. `sender` is the account that originated the contract call, an admin role bearer except when using {AccessControl-_setupRole}."
      },
      "RoleRevoked(bytes32,address,address)": {
        "details": "Emitted when `account` is revoked `role`. `sender` is the account that originated the contract call:   - if using `revokeRole`, it is the admin role bearer   - if using `renounceRole`, it is the role bearer (i.e. `account`)"
      },
      "Transfer(address,address,uint256)": {
        "details": "Emitted when `value` tokens are moved from one account (`from`) to another (`to`). Note that `value` may be zero."
      }
    },
    "kind": "dev",
    "methods": {
      "allowance(address,address)": {
        "details": "See {IERC20-allowance}."
      },
      "approve(address,uint256)": {
        "details": "See {IERC20-approve}. NOTE: If `amount` is the maximum `uint256`, the allowance is not updated on `transferFrom`. This is semantically equivalent to an infinite approval. Requirements: - `spender` cannot be the zero address."
      },
      "balanceOf(address)": {
        "details": "See {IERC20-balanceOf}."
      },
      "decimals()": {
        "details": "Returns the number of decimals used to get its user representation. For example, if `decimals` equals `2`, a balance of `505` tokens should be displayed to a user as `5.05` (`505 / 10 ** 2`). Tokens usually opt for a value of 18, imitating the relationship between Ether and Wei. This is the value {ERC20} uses, unless this function is overridden; NOTE: This information is only used for _display_ purposes: it in no way affects any of the arithmetic of the contract, including {IERC20-balanceOf} and {IERC20-transfer}."
      },
      "decreaseAllowance(address,uint256)": {
        "details": "Atomically decreases the allowance granted to `spender` by the caller. This is an alternative to {approve} that can be used as a mitigation for problems described in {IERC20-approve}. Emits an {Approval} event indicating the updated allowance. Requirements: - `spender` cannot be the zero address. - `spender` must have allowance for the caller of at least `subtractedValue`."
      },
      "getRoleAdmin(bytes32)": {
        "details": "Returns the admin role that controls `role`. See {grantRole} and {revokeRole}. To change a role's admin, use {_setRoleAdmin}."
      },
      "grantRole(bytes32,address)": {
        "details": "Grants `role` to `account`. If `account` had not been already granted `role`, emits a {RoleGranted} event. Requirements: - the caller must have ``role``'s admin role. May emit a {RoleGranted} event."
      },
      "hasRole(bytes32,address)": {
        "details": "Returns `true` if `account` has been granted `role`."
      },
      "increaseAllowance(address,uint256)": {
        "details": "Atomically increases the allowance granted to `spender` by the caller. This is an alternative to {approve} that can be used as a mitigation for problems described in {IERC20-approve}. Emits an {Approval} event indicating the updated allowance. Requirements: - `spender` cannot be the zero address."
      },
      "name()": {
        "details": "Returns the name of the token."
      },
      "renounceRole(bytes32,address)": {
        "details": "Revokes `role` from the calling account. Roles are often managed via {grantRole} and {revokeRole}: this function's purpose is to provide a mechanism for accounts to lose their privileges if they are compromised (such as when a trusted device is misplaced). If the calling account had been revoked `role`, emits a {RoleRevoked} event. Requirements: - the caller must be `account`. May emit a {RoleRevoked} event."
      },
      "revokeRole(bytes32,address)": {
        "details": "Revokes `role` from `account`. If `account` had been granted `role`, emits a {RoleRevoked} event. Requirements: - the caller must have ``role``'s admin role. May emit a {RoleRevoked} event."
      },
      "supportsInterface(bytes4)": {
        "details": "See {IERC165-supportsInterface}."
      },
      "symbol()": {
        "details": "Returns the symbol of the token, usually a shorter version of the name."
      },
      "totalSupply()": {
        "details": "See {IERC20-totalSupply}."
      },
      "transfer(address,uint256)": {
        "details": "See {IERC20-transfer}. Requirements: - `to` cannot be the zero address. - the caller must have a balance of at least `amount`."
      },
      "transferFrom(address,address,uint256)": {
        "details": "See {IERC20-transferFrom}. Emits an {Approval} event indicating the updated allowance. This is not required by the EIP. See the note at the beginning of {ERC20}. NOTE: Does not update the allowance if the current allowance is the maximum `uint256`. Requirements: - `from` and `to` cannot be the zero address. - `from` must have a balance of at least `amount`. - the caller must have allowance for ``from``'s tokens of at least `amount`."
      }
    },
    "version": 1
  },
  "userdoc": {
    "kind": "user",
    "methods": {},
    "version": 1
  }
}