{
  "contractName": "TutorialToken_AC",
  "abi": [
    {
      "inputs": [
        {
          "internalType": "string",
          "name": "name",
          "type": "string"
        },
        {
          "internalType": "string",
          "name": "symbol",
          "type": "string"
        },
        {
          "internalType": "uint256",
          "name": "initialSupply",
          "type": "uint256"
        }
      ],
      "stateMutability": "nonpayable",
      "type": "constructor"
    },
    {
      "anonymous": false,
      "inputs": [
        {
          "indexed": true,
          "internalType": "address",
          "name": "owner",
          "type": "address"
        },
        {
          "indexed": true,
          "internalType": "address",
          "name": "spender",
          "type": "address"
        },
        {
          "indexed": false,
          "internalType": "uint256",
          "name": "value",
          "type": "uint256"
        }
      ],
      "name": "Approval",
      "type": "event"
    },
    {
      "anonymous": false,
      "inputs": [
        {
          "indexed": false,
          "internalType": "address",
          "name": "user",
          "type": "address"
        }
      ],
      "name": "ChecksoloAdmin",
      "type": "event"
    },
    {
      "anonymous": false,
      "inputs": [
        {
          "indexed": false,
          "internalType": "address",
          "name": "user",
          "type": "address"
        }
      ],
      "name": "ChecksoloMinters",
      "type": "event"
    },
    {
      "anonymous": false,
      "inputs": [
        {
          "indexed": false,
          "internalType": "address",
          "name": "user",
          "type": "address"
        },
        {
          "indexed": false,
          "internalType": "address",
          "name": "sender",
          "type": "address"
        },
        {
          "indexed": false,
          "internalType": "bytes32",
          "name": "role",
          "type": "bytes32"
        },
        {
          "indexed": false,
          "internalType": "bytes32",
          "name": "adminRole",
          "type": "bytes32"
        },
        {
          "indexed": false,
          "internalType": "bytes32",
          "name": "senderRole",
          "type": "bytes32"
        }
      ],
      "name": "Debug",
      "type": "event"
    },
    {
      "anonymous": false,
      "inputs": [
        {
          "indexed": true,
          "internalType": "bytes32",
          "name": "role",
          "type": "bytes32"
        },
        {
          "indexed": true,
          "internalType": "bytes32",
          "name": "previousAdminRole",
          "type": "bytes32"
        },
        {
          "indexed": true,
          "internalType": "bytes32",
          "name": "newAdminRole",
          "type": "bytes32"
        }
      ],
      "name": "RoleAdminChanged",
      "type": "event"
    },
    {
      "anonymous": false,
      "inputs": [
        {
          "indexed": true,
          "internalType": "bytes32",
          "name": "role",
          "type": "bytes32"
        },
        {
          "indexed": true,
          "internalType": "address",
          "name": "account",
          "type": "address"
        },
        {
          "indexed": true,
          "internalType": "address",
          "name": "sender",
          "type": "address"
        }
      ],
      "name": "RoleGranted",
      "type": "event"
    },
    {
      "anonymous": false,
      "inputs": [
        {
          "indexed": true,
          "internalType": "bytes32",
          "name": "role",
          "type": "bytes32"
        },
        {
          "indexed": true,
          "internalType": "address",
          "name": "account",
          "type": "address"
        },
        {
          "indexed": true,
          "internalType": "address",
          "name": "sender",
          "type": "address"
        }
      ],
      "name": "RoleRevoked",
      "type": "event"
    },
    {
      "anonymous": false,
      "inputs": [
        {
          "indexed": true,
          "internalType": "address",
          "name": "from",
          "type": "address"
        },
        {
          "indexed": true,
          "internalType": "address",
          "name": "to",
          "type": "address"
        },
        {
          "indexed": false,
          "internalType": "uint256",
          "name": "value",
          "type": "uint256"
        }
      ],
      "name": "Transfer",
      "type": "event"
    },
    {
      "inputs": [],
      "name": "DEFAULT_ADMIN_ROLE",
      "outputs": [
        {
          "internalType": "bytes32",
          "name": "",
          "type": "bytes32"
        }
      ],
      "stateMutability": "view",
      "type": "function",
      "constant": true
    },
    {
      "inputs": [],
      "name": "MINTER_ROLE",
      "outputs": [
        {
          "internalType": "bytes32",
          "name": "",
          "type": "bytes32"
        }
      ],
      "stateMutability": "view",
      "type": "function",
      "constant": true
    },
    {
      "inputs": [
        {
          "internalType": "address",
          "name": "owner",
          "type": "address"
        },
        {
          "internalType": "address",
          "name": "spender",
          "type": "address"
        }
      ],
      "name": "allowance",
      "outputs": [
        {
          "internalType": "uint256",
          "name": "",
          "type": "uint256"
        }
      ],
      "stateMutability": "view",
      "type": "function",
      "constant": true
    },
    {
      "inputs": [
        {
          "internalType": "address",
          "name": "spender",
          "type": "address"
        },
        {
          "internalType": "uint256",
          "name": "amount",
          "type": "uint256"
        }
      ],
      "name": "approve",
      "outputs": [
        {
          "internalType": "bool",
          "name": "",
          "type": "bool"
        }
      ],
      "stateMutability": "nonpayable",
      "type": "function"
    },
    {
      "inputs": [
        {
          "internalType": "address",
          "name": "account",
          "type": "address"
        }
      ],
      "name": "balanceOf",
      "outputs": [
        {
          "internalType": "uint256",
          "name": "",
          "type": "uint256"
        }
      ],
      "stateMutability": "view",
      "type": "function",
      "constant": true
    },
    {
      "inputs": [],
      "name": "decimals",
      "outputs": [
        {
          "internalType": "uint8",
          "name": "",
          "type": "uint8"
        }
      ],
      "stateMutability": "view",
      "type": "function",
      "constant": true
    },
    {
      "inputs": [
        {
          "internalType": "address",
          "name": "spender",
          "type": "address"
        },
        {
          "internalType": "uint256",
          "name": "subtractedValue",
          "type": "uint256"
        }
      ],
      "name": "decreaseAllowance",
      "outputs": [
        {
          "internalType": "bool",
          "name": "",
          "type": "bool"
        }
      ],
      "stateMutability": "nonpayable",
      "type": "function"
    },
    {
      "inputs": [
        {
          "internalType": "bytes32",
          "name": "role",
          "type": "bytes32"
        }
      ],
      "name": "getRoleAdmin",
      "outputs": [
        {
          "internalType": "bytes32",
          "name": "",
          "type": "bytes32"
        }
      ],
      "stateMutability": "view",
      "type": "function",
      "constant": true
    },
    {
      "inputs": [
        {
          "internalType": "bytes32",
          "name": "role",
          "type": "bytes32"
        },
        {
          "internalType": "address",
          "name": "account",
          "type": "address"
        }
      ],
      "name": "grantRole",
      "outputs": [],
      "stateMutability": "nonpayable",
      "type": "function"
    },
    {
      "inputs": [
        {
          "internalType": "bytes32",
          "name": "role",
          "type": "bytes32"
        },
        {
          "internalType": "address",
          "name": "account",
          "type": "address"
        }
      ],
      "name": "hasRole",
      "outputs": [
        {
          "internalType": "bool",
          "name": "",
          "type": "bool"
        }
      ],
      "stateMutability": "view",
      "type": "function",
      "constant": true
    },
    {
      "inputs": [
        {
          "internalType": "address",
          "name": "spender",
          "type": "address"
        },
        {
          "internalType": "uint256",
          "name": "addedValue",
          "type": "uint256"
        }
      ],
      "name": "increaseAllowance",
      "outputs": [
        {
          "internalType": "bool",
          "name": "",
          "type": "bool"
        }
      ],
      "stateMutability": "nonpayable",
      "type": "function"
    },
    {
      "inputs": [],
      "name": "name",
      "outputs": [
        {
          "internalType": "string",
          "name": "",
          "type": "string"
        }
      ],
      "stateMutability": "view",
      "type": "function",
      "constant": true
    },
    {
      "inputs": [
        {
          "internalType": "uint256",
          "name": "",
          "type": "uint256"
        }
      ],
      "name": "products",
      "outputs": [
        {
          "internalType": "uint256",
          "name": "id",
          "type": "uint256"
        },
        {
          "internalType": "string",
          "name": "picture",
          "type": "string"
        },
        {
          "internalType": "string",
          "name": "name",
          "type": "string"
        },
        {
          "internalType": "uint256",
          "name": "price",
          "type": "uint256"
        },
        {
          "internalType": "string",
          "name": "console",
          "type": "string"
        }
      ],
      "stateMutability": "view",
      "type": "function",
      "constant": true
    },
    {
      "inputs": [
        {
          "internalType": "bytes32",
          "name": "role",
          "type": "bytes32"
        },
        {
          "internalType": "address",
          "name": "account",
          "type": "address"
        }
      ],
      "name": "renounceRole",
      "outputs": [],
      "stateMutability": "nonpayable",
      "type": "function"
    },
    {
      "inputs": [
        {
          "internalType": "bytes32",
          "name": "role",
          "type": "bytes32"
        },
        {
          "internalType": "address",
          "name": "account",
          "type": "address"
        }
      ],
      "name": "revokeRole",
      "outputs": [],
      "stateMutability": "nonpayable",
      "type": "function"
    },
    {
      "inputs": [
        {
          "internalType": "bytes4",
          "name": "interfaceId",
          "type": "bytes4"
        }
      ],
      "name": "supportsInterface",
      "outputs": [
        {
          "internalType": "bool",
          "name": "",
          "type": "bool"
        }
      ],
      "stateMutability": "view",
      "type": "function",
      "constant": true
    },
    {
      "inputs": [],
      "name": "symbol",
      "outputs": [
        {
          "internalType": "string",
          "name": "",
          "type": "string"
        }
      ],
      "stateMutability": "view",
      "type": "function",
      "constant": true
    },
    {
      "inputs": [],
      "name": "totalSupply",
      "outputs": [
        {
          "internalType": "uint256",
          "name": "",
          "type": "uint256"
        }
      ],
      "stateMutability": "view",
      "type": "function",
      "constant": true
    },
    {
      "inputs": [
        {
          "internalType": "address",
          "name": "to",
          "type": "address"
        },
        {
          "internalType": "uint256",
          "name": "amount",
          "type": "uint256"
        }
      ],
      "name": "transfer",
      "outputs": [
        {
          "internalType": "bool",
          "name": "",
          "type": "bool"
        }
      ],
      "stateMutability": "nonpayable",
      "type": "function"
    },
    {
      "inputs": [
        {
          "internalType": "address",
          "name": "from",
          "type": "address"
        },
        {
          "internalType": "address",
          "name": "to",
          "type": "address"
        },
        {
          "internalType": "uint256",
          "name": "amount",
          "type": "uint256"
        }
      ],
      "name": "transferFrom",
      "outputs": [
        {
          "internalType": "bool",
          "name": "",
          "type": "bool"
        }
      ],
      "stateMutability": "nonpayable",
      "type": "function"
    },
    {
      "inputs": [],
      "name": "preloadProduct",
      "outputs": [],
      "stateMutability": "nonpayable",
      "type": "function"
    },
    {
      "inputs": [],
      "name": "getAllProduct",
      "outputs": [
        {
          "components": [
            {
              "internalType": "uint256",
              "name": "id",
              "type": "uint256"
            },
            {
              "internalType": "string",
              "name": "picture",
              "type": "string"
            },
            {
              "internalType": "string",
              "name": "name",
              "type": "string"
            },
            {
              "internalType": "uint256",
              "name": "price",
              "type": "uint256"
            },
            {
              "internalType": "string",
              "name": "console",
              "type": "string"
            }
          ],
          "internalType": "struct TutorialToken_AC.Product[]",
          "name": "",
          "type": "tuple[]"
        }
      ],
      "stateMutability": "view",
      "type": "function",
      "constant": true
    },
    {
      "inputs": [
        {
          "internalType": "uint256",
          "name": "id",
          "type": "uint256"
        },
        {
          "internalType": "string",
          "name": "name",
          "type": "string"
        },
        {
          "internalType": "uint256",
          "name": "price",
          "type": "uint256"
        },
        {
          "internalType": "string",
          "name": "console",
          "type": "string"
        }
      ],
      "name": "modifyProdId",
      "outputs": [],
      "stateMutability": "nonpayable",
      "type": "function"
    },
    {
      "inputs": [
        {
          "internalType": "uint256",
          "name": "amount",
          "type": "uint256"
        }
      ],
      "name": "buyProduct",
      "outputs": [
        {
          "internalType": "bool",
          "name": "",
          "type": "bool"
        }
      ],
      "stateMutability": "nonpayable",
      "type": "function"
    },
    {
      "inputs": [
        {
          "internalType": "address",
          "name": "account",
          "type": "address"
        }
      ],
      "name": "isAdmin",
      "outputs": [
        {
          "internalType": "bool",
          "name": "",
          "type": "bool"
        }
      ],
      "stateMutability": "view",
      "type": "function",
      "constant": true
    },
    {
      "inputs": [
        {
          "internalType": "address",
          "name": "account",
          "type": "address"
        }
      ],
      "name": "isMinter",
      "outputs": [
        {
          "internalType": "bool",
          "name": "",
          "type": "bool"
        }
      ],
      "stateMutability": "view",
      "type": "function",
      "constant": true
    },
    {
      "inputs": [],
      "name": "showOwner",
      "outputs": [
        {
          "internalType": "address",
          "name": "",
          "type": "address"
        }
      ],
      "stateMutability": "view",
      "type": "function",
      "constant": true
    },
    {
      "inputs": [
        {
          "internalType": "address",
          "name": "to",
          "type": "address"
        },
        {
          "internalType": "uint256",
          "name": "amount",
          "type": "uint256"
        }
      ],
      "name": "mint",
      "outputs": [],
      "stateMutability": "nonpayable",
      "type": "function"
    },
    {
      "inputs": [
        {
          "internalType": "address",
          "name": "to",
          "type": "address"
        }
      ],
      "name": "addMinterRole",
      "outputs": [],
      "stateMutability": "nonpayable",
      "type": "function"
    },
    {
      "inputs": [
        {
          "internalType": "address",
          "name": "to",
          "type": "address"
        }
      ],
      "name": "removeMinterRole",
      "outputs": [],
      "stateMutability": "nonpayable",
      "type": "function"
    }
  ],
  "bytecode": "0x60806040523480156200001157600080fd5b50604051620056903803806200569083398181016040528101906200003791906200116d565b828281600390816200004a919062001448565b5080600490816200005c919062001448565b5050506200007133826200011560201b60201c565b33600660006101000a81548173ffffffffffffffffffffffffffffffffffffffff021916908373ffffffffffffffffffffffffffffffffffffffff160217905550620000c76000801b336200028260201b60201c565b620000fc7f9f2df0fed2c77648de5860a4cc508cd0818c85b8b8a1ab4ceeef8d981c8956a66000801b6200029860201b60201c565b6200010c620002fc60201b60201c565b5050506200164a565b600073ffffffffffffffffffffffffffffffffffffffff168273ffffffffffffffffffffffffffffffffffffffff160362000187576040517f08c379a00000000000000000000000000000000000000000000000000000000081526004016200017e9062001590565b60405180910390fd5b6200019b6000838362000e1060201b60201c565b8060026000828254620001af9190620015e1565b92505081905550806000808473ffffffffffffffffffffffffffffffffffffffff1673ffffffffffffffffffffffffffffffffffffffff168152602001908152602001600020600082825401925050819055508173ffffffffffffffffffffffffffffffffffffffff16600073ffffffffffffffffffffffffffffffffffffffff167fddf252ad1be2c89b69c2b068fc378daa952ba7f163c4a11628f55a4df523b3ef836040516200026291906200162d565b60405180910390a36200027e6000838362000e1560201b60201c565b5050565b62000294828262000e1a60201b60201c565b5050565b6000620002ab8362000f0c60201b60201c565b90508160056000858152602001908152602001600020600101819055508181847fbd79b86ffe0ab8e8776151514217cd7cacd52c909f66475c3af44e129f0b00ff60405160405180910390a4505050565b6040518060a00160405280600081526020016040518060400160405280601381526020017f696d616765732f476f644f665761722e6a70670000000000000000000000000081525081526020016040518060400160405280601381526020017f476f64204f6620576172205261676e61726f6b000000000000000000000000008152508152602001604681526020016040518060400160405280600d81526020017f506c617953746174696f6e20350000000000000000000000000000000000000081525081525060076000808152602001908152602001600020600082015181600001556020820151816001019081620003f8919062001448565b50604082015181600201908162000410919062001448565b5060608201518160030155608082015181600401908162000432919062001448565b509050506040518060a00160405280600181526020016040518060400160405280600e81526020017f696d616765732f4d57322e6a706700000000000000000000000000000000000081525081526020016040518060400160405280601f81526020017f43616c6c206f6620447574793a204d6f6465726e2057617266617265204949008152508152602001604b81526020016040518060400160405280600d81526020017f506c617953746174696f6e203500000000000000000000000000000000000000815250815250600760006001815260200190815260200160002060008201518160000155602082015181600101908162000533919062001448565b5060408201518160020190816200054b919062001448565b506060820151816003015560808201518160040190816200056d919062001448565b509050506040518060a00160405280600281526020016040518060400160405280601281526020017f696d616765732f486f72697a6f6e2e6a7067000000000000000000000000000081525081526020016040518060400160405280601781526020017f486f72697a6f6e3a20466f7262696464656e20576573740000000000000000008152508152602001603581526020016040518060400160405280600d81526020017f506c617953746174696f6e20350000000000000000000000000000000000000081525081525060076000600281526020019081526020016000206000820151816000015560208201518160010190816200066e919062001448565b50604082015181600201908162000686919062001448565b50606082015181600301556080820151816004019081620006a8919062001448565b509050506040518060a00160405280600381526020016040518060400160405280601281526020017f696d616765732f466172437279362e6a7067000000000000000000000000000081525081526020016040518060400160405280600981526020017f46617220437279203600000000000000000000000000000000000000000000008152508152602001601481526020016040518060400160405280600d81526020017f58626f78205365726965732058000000000000000000000000000000000000008152508152506007600060038152602001908152602001600020600082015181600001556020820151816001019081620007a9919062001448565b506040820151816002019081620007c1919062001448565b50606082015181600301556080820151816004019081620007e3919062001448565b509050506040518060a00160405280600481526020016040518060400160405280601b81526020017f696d616765732f43616c6c6973746f50726f746f636f6c2e6a7067000000000081525081526020016040518060400160405280601581526020017f5468652043616c6c6973746f2050726f746f636f6c00000000000000000000008152508152602001603781526020016040518060400160405280600d81526020017f58626f78205365726965732058000000000000000000000000000000000000008152508152506007600060048152602001908152602001600020600082015181600001556020820151816001019081620008e4919062001448565b506040820151816002019081620008fc919062001448565b506060820151816003015560808201518160040190816200091e919062001448565b509050506040518060a00160405280600581526020016040518060400160405280601081526020017f696d616765732f4d6574726f2e6a70670000000000000000000000000000000081525081526020016040518060400160405280600c81526020017f4d6574726f2045786f64757300000000000000000000000000000000000000008152508152602001601e81526020016040518060400160405280600d81526020017f58626f7820536572696573205800000000000000000000000000000000000000815250815250600760006005815260200190815260200160002060008201518160000155602082015181600101908162000a1f919062001448565b50604082015181600201908162000a37919062001448565b5060608201518160030155608082015181600401908162000a59919062001448565b509050506040518060a00160405280600681526020016040518060400160405280601481526020017f696d616765732f4d6172696f42726f732e6a706700000000000000000000000081525081526020016040518060400160405280601481526020017f4e6577205375706572204d6172696f2042726f730000000000000000000000008152508152602001603281526020016040518060400160405280600f81526020017f4e696e74656e646f205377697463680000000000000000000000000000000000815250815250600760006006815260200190815260200160002060008201518160000155602082015181600101908162000b5a919062001448565b50604082015181600201908162000b72919062001448565b5060608201518160030155608082015181600401908162000b94919062001448565b509050506040518060a00160405280600781526020016040518060400160405280601281526020017f696d616765732f506f6b656d6f6e2e6a7067000000000000000000000000000081525081526020016040518060400160405280601181526020017f506f6b656d6f6e2056696f6c6574746f200000000000000000000000000000008152508152602001603081526020016040518060400160405280600f81526020017f4e696e74656e646f205377697463680000000000000000000000000000000000815250815250600760006007815260200190815260200160002060008201518160000155602082015181600101908162000c95919062001448565b50604082015181600201908162000cad919062001448565b5060608201518160030155608082015181600401908162000ccf919062001448565b509050506040518060a00160405280600881526020016040518060400160405280601981526020017f696d616765732f416e696d616c43726f7373696e672e6a70670000000000000081525081526020016040518060400160405280601d81526020017f416e696d616c2043726f7373696e673a204e657720486f72697a6f6e730000008152508152602001603a81526020016040518060400160405280600f81526020017f4e696e74656e646f205377697463680000000000000000000000000000000000815250815250600760006008815260200190815260200160002060008201518160000155602082015181600101908162000dd0919062001448565b50604082015181600201908162000de8919062001448565b5060608201518160030155608082015181600401908162000e0a919062001448565b50905050565b505050565b505050565b62000e2c828262000f2c60201b60201c565b62000f085760016005600084815260200190815260200160002060000160008373ffffffffffffffffffffffffffffffffffffffff1673ffffffffffffffffffffffffffffffffffffffff16815260200190815260200160002060006101000a81548160ff02191690831515021790555062000ead62000f9760201b60201c565b73ffffffffffffffffffffffffffffffffffffffff168173ffffffffffffffffffffffffffffffffffffffff16837f2f8788117e7eff1d82e926ec794901d17c78024a50270940304540a733656f0d60405160405180910390a45b5050565b600060056000838152602001908152602001600020600101549050919050565b60006005600084815260200190815260200160002060000160008373ffffffffffffffffffffffffffffffffffffffff1673ffffffffffffffffffffffffffffffffffffffff16815260200190815260200160002060009054906101000a900460ff16905092915050565b600033905090565b6000604051905090565b600080fd5b600080fd5b600080fd5b600080fd5b6000601f19601f8301169050919050565b7f4e487b7100000000000000000000000000000000000000000000000000000000600052604160045260246000fd5b620010088262000fbd565b810181811067ffffffffffffffff821117156200102a576200102962000fce565b5b80604052505050565b60006200103f62000f9f565b90506200104d828262000ffd565b919050565b600067ffffffffffffffff82111562001070576200106f62000fce565b5b6200107b8262000fbd565b9050602081019050919050565b60005b83811015620010a85780820151818401526020810190506200108b565b60008484015250505050565b6000620010cb620010c58462001052565b62001033565b905082815260208101848484011115620010ea57620010e962000fb8565b5b620010f784828562001088565b509392505050565b600082601f83011262001117576200111662000fb3565b5b815162001129848260208601620010b4565b91505092915050565b6000819050919050565b620011478162001132565b81146200115357600080fd5b50565b60008151905062001167816200113c565b92915050565b60008060006060848603121562001189576200118862000fa9565b5b600084015167ffffffffffffffff811115620011aa57620011a962000fae565b5b620011b886828701620010ff565b935050602084015167ffffffffffffffff811115620011dc57620011db62000fae565b5b620011ea86828701620010ff565b9250506040620011fd8682870162001156565b9150509250925092565b600081519050919050565b7f4e487b7100000000000000000000000000000000000000000000000000000000600052602260045260246000fd5b600060028204905060018216806200125a57607f821691505b60208210810362001270576200126f62001212565b5b50919050565b60008190508160005260206000209050919050565b60006020601f8301049050919050565b600082821b905092915050565b600060088302620012da7fffffffffffffffffffffffffffffffffffffffffffffffffffffffffffffffff826200129b565b620012e686836200129b565b95508019841693508086168417925050509392505050565b6000819050919050565b600062001329620013236200131d8462001132565b620012fe565b62001132565b9050919050565b6000819050919050565b620013458362001308565b6200135d620013548262001330565b848454620012a8565b825550505050565b600090565b6200137462001365565b620013818184846200133a565b505050565b5b81811015620013a9576200139d6000826200136a565b60018101905062001387565b5050565b601f821115620013f857620013c28162001276565b620013cd846200128b565b81016020851015620013dd578190505b620013f5620013ec856200128b565b83018262001386565b50505b505050565b600082821c905092915050565b60006200141d60001984600802620013fd565b1980831691505092915050565b60006200143883836200140a565b9150826002028217905092915050565b620014538262001207565b67ffffffffffffffff8111156200146f576200146e62000fce565b5b6200147b825462001241565b62001488828285620013ad565b600060209050601f831160018114620014c05760008415620014ab578287015190505b620014b785826200142a565b86555062001527565b601f198416620014d08662001276565b60005b82811015620014fa57848901518255600182019150602085019450602081019050620014d3565b868310156200151a578489015162001516601f8916826200140a565b8355505b6001600288020188555050505b505050505050565b600082825260208201905092915050565b7f45524332303a206d696e7420746f20746865207a65726f206164647265737300600082015250565b600062001578601f836200152f565b9150620015858262001540565b602082019050919050565b60006020820190508181036000830152620015ab8162001569565b9050919050565b7f4e487b7100000000000000000000000000000000000000000000000000000000600052601160045260246000fd5b6000620015ee8262001132565b9150620015fb8362001132565b9250828201905080821115620016165762001615620015b2565b5b92915050565b620016278162001132565b82525050565b60006020820190506200164460008301846200161c565b92915050565b614036806200165a6000396000f3fe608060405234801561001057600080fd5b50600436106101da5760003560e01c80638642269e11610104578063aa271e1a116100a2578063d539139311610071578063d5391393146105b9578063d547741f146105d7578063dd62ed3e146105f3578063ded9468814610623576101da565b8063aa271e1a14610533578063adbf377614610563578063bece87481461057f578063d055a75f1461059b576101da565b80639a743b3a116100de5780639a743b3a146104ab578063a217fddf146104b5578063a457c2d7146104d3578063a9059cbb14610503576101da565b80638642269e1461042d57806391d148541461045d57806395d89b411461048d576101da565b80632f2ff15d1161017c57806340c10f191161014b57806340c10f191461039157806354f1e126146103ad57806370a08231146103c95780637acc0b20146103f9576101da565b80632f2ff15d1461030b578063313ce5671461032757806336568abe146103455780633950935114610361576101da565b806318160ddd116101b857806318160ddd1461025d57806323b872dd1461027b578063248a9ca3146102ab57806324d7806c146102db576101da565b806301ffc9a7146101df57806306fdde031461020f578063095ea7b31461022d575b600080fd5b6101f960048036038101906101f49190612c37565b610641565b6040516102069190612c7f565b60405180910390f35b6102176106bb565b6040516102249190612d2a565b60405180910390f35b61024760048036038101906102429190612de0565b61074d565b6040516102549190612c7f565b60405180910390f35b610265610770565b6040516102729190612e2f565b60405180910390f35b61029560048036038101906102909190612e4a565b61077a565b6040516102a29190612c7f565b60405180910390f35b6102c560048036038101906102c09190612ed3565b6107a9565b6040516102d29190612f0f565b60405180910390f35b6102f560048036038101906102f09190612f2a565b6107c9565b6040516103029190612c7f565b60405180910390f35b61032560048036038101906103209190612f57565b6107df565b005b61032f610800565b60405161033c9190612fb3565b60405180910390f35b61035f600480360381019061035a9190612f57565b610809565b005b61037b60048036038101906103769190612de0565b61088c565b6040516103889190612c7f565b60405180910390f35b6103ab60048036038101906103a69190612de0565b6108c3565b005b6103c760048036038101906103c29190612f2a565b610950565b005b6103e360048036038101906103de9190612f2a565b61097d565b6040516103f09190612e2f565b60405180910390f35b610413600480360381019061040e9190612fce565b6109c5565b604051610424959493929190612ffb565b60405180910390f35b61044760048036038101906104429190612fce565b610b93565b6040516104549190612c7f565b60405180910390f35b61047760048036038101906104729190612f57565b610bc8565b6040516104849190612c7f565b60405180910390f35b610495610c33565b6040516104a29190612d2a565b60405180910390f35b6104b3610cc5565b005b6104bd6117a3565b6040516104ca9190612f0f565b60405180910390f35b6104ed60048036038101906104e89190612de0565b6117aa565b6040516104fa9190612c7f565b60405180910390f35b61051d60048036038101906105189190612de0565b611821565b60405161052a9190612c7f565b60405180910390f35b61054d60048036038101906105489190612f2a565b611844565b60405161055a9190612c7f565b60405180910390f35b61057d60048036038101906105789190612f2a565b611877565b005b61059960048036038101906105949190613198565b6119ad565b005b6105a3611cbc565b6040516105b091906133d6565b60405180910390f35b6105c1611f44565b6040516105ce9190612f0f565b60405180910390f35b6105f160048036038101906105ec9190612f57565b611f68565b005b61060d600480360381019061060891906133f8565b611f89565b60405161061a9190612e2f565b60405180910390f35b61062b612010565b6040516106389190613447565b60405180910390f35b60007f7965db0b000000000000000000000000000000000000000000000000000000007bffffffffffffffffffffffffffffffffffffffffffffffffffffffff1916827bffffffffffffffffffffffffffffffffffffffffffffffffffffffff191614806106b457506106b38261203a565b5b9050919050565b6060600380546106ca90613491565b80601f01602080910402602001604051908101604052809291908181526020018280546106f690613491565b80156107435780601f1061071857610100808354040283529160200191610743565b820191906000526020600020905b81548152906001019060200180831161072657829003601f168201915b5050505050905090565b6000806107586120a4565b90506107658185856120ac565b600191505092915050565b6000600254905090565b6000806107856120a4565b9050610792858285612275565b61079d858585612301565b60019150509392505050565b600060056000838152602001908152602001600020600101549050919050565b60006107d86000801b83610bc8565b9050919050565b6107e8826107a9565b6107f181612577565b6107fb838361258b565b505050565b60006012905090565b6108116120a4565b73ffffffffffffffffffffffffffffffffffffffff168173ffffffffffffffffffffffffffffffffffffffff161461087e576040517f08c379a000000000000000000000000000000000000000000000000000000000815260040161087590613534565b60405180910390fd5b610888828261266c565b5050565b6000806108976120a4565b90506108b88185856108a98589611f89565b6108b39190613583565b6120ac565b600191505092915050565b7f30961df266e1c49061f4de998a0d33e0a256c0b6b9a896ed98ac9293063b7cc7336040516108f29190613447565b60405180910390a161090333611844565b610942576040517f08c379a000000000000000000000000000000000000000000000000000000000815260040161093990613603565b60405180910390fd5b61094c828261274e565b5050565b61097a7f9f2df0fed2c77648de5860a4cc508cd0818c85b8b8a1ab4ceeef8d981c8956a682610809565b50565b60008060008373ffffffffffffffffffffffffffffffffffffffff1673ffffffffffffffffffffffffffffffffffffffff168152602001908152602001600020549050919050565b60076020528060005260406000206000915090508060000154908060010180546109ee90613491565b80601f0160208091040260200160405190810160405280929190818152602001828054610a1a90613491565b8015610a675780601f10610a3c57610100808354040283529160200191610a67565b820191906000526020600020905b815481529060010190602001808311610a4a57829003601f168201915b505050505090806002018054610a7c90613491565b80601f0160208091040260200160405190810160405280929190818152602001828054610aa890613491565b8015610af55780601f10610aca57610100808354040283529160200191610af5565b820191906000526020600020905b815481529060010190602001808311610ad857829003601f168201915b505050505090806003015490806004018054610b1090613491565b80601f0160208091040260200160405190810160405280929190818152602001828054610b3c90613491565b8015610b895780601f10610b5e57610100808354040283529160200191610b89565b820191906000526020600020905b815481529060010190602001808311610b6c57829003601f168201915b5050505050905085565b6000610bc1600660009054906101000a900473ffffffffffffffffffffffffffffffffffffffff1683611821565b9050919050565b60006005600084815260200190815260200160002060000160008373ffffffffffffffffffffffffffffffffffffffff1673ffffffffffffffffffffffffffffffffffffffff16815260200190815260200160002060009054906101000a900460ff16905092915050565b606060048054610c4290613491565b80601f0160208091040260200160405190810160405280929190818152602001828054610c6e90613491565b8015610cbb5780601f10610c9057610100808354040283529160200191610cbb565b820191906000526020600020905b815481529060010190602001808311610c9e57829003601f168201915b5050505050905090565b6040518060a00160405280600081526020016040518060400160405280601381526020017f696d616765732f476f644f665761722e6a70670000000000000000000000000081525081526020016040518060400160405280601381526020017f476f64204f6620576172205261676e61726f6b000000000000000000000000008152508152602001604681526020016040518060400160405280600d81526020017f506c617953746174696f6e20350000000000000000000000000000000000000081525081525060076000808152602001908152602001600020600082015181600001556020820151816001019081610dbf91906137cf565b506040820151816002019081610dd591906137cf565b50606082015181600301556080820151816004019081610df591906137cf565b509050506040518060a00160405280600181526020016040518060400160405280600e81526020017f696d616765732f4d57322e6a706700000000000000000000000000000000000081525081526020016040518060400160405280601f81526020017f43616c6c206f6620447574793a204d6f6465726e2057617266617265204949008152508152602001604b81526020016040518060400160405280600d81526020017f506c617953746174696f6e2035000000000000000000000000000000000000008152508152506007600060018152602001908152602001600020600082015181600001556020820151816001019081610ef491906137cf565b506040820151816002019081610f0a91906137cf565b50606082015181600301556080820151816004019081610f2a91906137cf565b509050506040518060a00160405280600281526020016040518060400160405280601281526020017f696d616765732f486f72697a6f6e2e6a7067000000000000000000000000000081525081526020016040518060400160405280601781526020017f486f72697a6f6e3a20466f7262696464656e20576573740000000000000000008152508152602001603581526020016040518060400160405280600d81526020017f506c617953746174696f6e203500000000000000000000000000000000000000815250815250600760006002815260200190815260200160002060008201518160000155602082015181600101908161102991906137cf565b50604082015181600201908161103f91906137cf565b5060608201518160030155608082015181600401908161105f91906137cf565b509050506040518060a00160405280600381526020016040518060400160405280601281526020017f696d616765732f466172437279362e6a7067000000000000000000000000000081525081526020016040518060400160405280600981526020017f46617220437279203600000000000000000000000000000000000000000000008152508152602001601481526020016040518060400160405280600d81526020017f58626f7820536572696573205800000000000000000000000000000000000000815250815250600760006003815260200190815260200160002060008201518160000155602082015181600101908161115e91906137cf565b50604082015181600201908161117491906137cf565b5060608201518160030155608082015181600401908161119491906137cf565b509050506040518060a00160405280600481526020016040518060400160405280601b81526020017f696d616765732f43616c6c6973746f50726f746f636f6c2e6a7067000000000081525081526020016040518060400160405280601581526020017f5468652043616c6c6973746f2050726f746f636f6c00000000000000000000008152508152602001603781526020016040518060400160405280600d81526020017f58626f7820536572696573205800000000000000000000000000000000000000815250815250600760006004815260200190815260200160002060008201518160000155602082015181600101908161129391906137cf565b5060408201518160020190816112a991906137cf565b506060820151816003015560808201518160040190816112c991906137cf565b509050506040518060a00160405280600581526020016040518060400160405280601081526020017f696d616765732f4d6574726f2e6a70670000000000000000000000000000000081525081526020016040518060400160405280600c81526020017f4d6574726f2045786f64757300000000000000000000000000000000000000008152508152602001601e81526020016040518060400160405280600d81526020017f58626f782053657269657320580000000000000000000000000000000000000081525081525060076000600581526020019081526020016000206000820151816000015560208201518160010190816113c891906137cf565b5060408201518160020190816113de91906137cf565b506060820151816003015560808201518160040190816113fe91906137cf565b509050506040518060a00160405280600681526020016040518060400160405280601481526020017f696d616765732f4d6172696f42726f732e6a706700000000000000000000000081525081526020016040518060400160405280601481526020017f4e6577205375706572204d6172696f2042726f730000000000000000000000008152508152602001603281526020016040518060400160405280600f81526020017f4e696e74656e646f20537769746368000000000000000000000000000000000081525081525060076000600681526020019081526020016000206000820151816000015560208201518160010190816114fd91906137cf565b50604082015181600201908161151391906137cf565b5060608201518160030155608082015181600401908161153391906137cf565b509050506040518060a00160405280600781526020016040518060400160405280601281526020017f696d616765732f506f6b656d6f6e2e6a7067000000000000000000000000000081525081526020016040518060400160405280601181526020017f506f6b656d6f6e2056696f6c6574746f200000000000000000000000000000008152508152602001603081526020016040518060400160405280600f81526020017f4e696e74656e646f205377697463680000000000000000000000000000000000815250815250600760006007815260200190815260200160002060008201518160000155602082015181600101908161163291906137cf565b50604082015181600201908161164891906137cf565b5060608201518160030155608082015181600401908161166891906137cf565b509050506040518060a00160405280600881526020016040518060400160405280601981526020017f696d616765732f416e696d616c43726f7373696e672e6a70670000000000000081525081526020016040518060400160405280601d81526020017f416e696d616c2043726f7373696e673a204e657720486f72697a6f6e730000008152508152602001603a81526020016040518060400160405280600f81526020017f4e696e74656e646f205377697463680000000000000000000000000000000000815250815250600760006008815260200190815260200160002060008201518160000155602082015181600101908161176791906137cf565b50604082015181600201908161177d91906137cf565b5060608201518160030155608082015181600401908161179d91906137cf565b50905050565b6000801b81565b6000806117b56120a4565b905060006117c38286611f89565b905083811015611808576040517f08c379a00000000000000000000000000000000000000000000000000000000081526004016117ff90613913565b60405180910390fd5b61181582868684036120ac565b60019250505092915050565b60008061182c6120a4565b9050611839818585612301565b600191505092915050565b60006118707f9f2df0fed2c77648de5860a4cc508cd0818c85b8b8a1ab4ceeef8d981c8956a683610bc8565b9050919050565b7ff8ef03ce9f2cfdd733d77d52a15531b9932a15f9d03c8f7705d67e6fdeb11e6f336040516118a69190613447565b60405180910390a16118b7336107c9565b6118f6576040517f08c379a00000000000000000000000000000000000000000000000000000000081526004016118ed9061397f565b60405180910390fd5b7ffbeaa2d4b24ea8784b2e518c3040f6dfe5edce67a0ffce9f5162d2a149b3523c81337f9f2df0fed2c77648de5860a4cc508cd0818c85b8b8a1ab4ceeef8d981c8956a66119637f9f2df0fed2c77648de5860a4cc508cd0818c85b8b8a1ab4ceeef8d981c8956a66107a9565b6000801b60405161197895949392919061399f565b60405180910390a16119aa7f9f2df0fed2c77648de5860a4cc508cd0818c85b8b8a1ab4ceeef8d981c8956a6826107df565b50565b7ff8ef03ce9f2cfdd733d77d52a15531b9932a15f9d03c8f7705d67e6fdeb11e6f336040516119dc9190613447565b60405180910390a16119ed336107c9565b611a2c576040517f08c379a0000000000000000000000000000000000000000000000000000000008152600401611a239061397f565b60405180910390fd5b6000600760008681526020019081526020016000206040518060a001604052908160008201548152602001600182018054611a6690613491565b80601f0160208091040260200160405190810160405280929190818152602001828054611a9290613491565b8015611adf5780601f10611ab457610100808354040283529160200191611adf565b820191906000526020600020905b815481529060010190602001808311611ac257829003601f168201915b50505050508152602001600282018054611af890613491565b80601f0160208091040260200160405190810160405280929190818152602001828054611b2490613491565b8015611b715780601f10611b4657610100808354040283529160200191611b71565b820191906000526020600020905b815481529060010190602001808311611b5457829003601f168201915b5050505050815260200160038201548152602001600482018054611b9490613491565b80601f0160208091040260200160405190810160405280929190818152602001828054611bc090613491565b8015611c0d5780601f10611be257610100808354040283529160200191611c0d565b820191906000526020600020905b815481529060010190602001808311611bf057829003601f168201915b505050505081525050905060006040518060a00160405280878152602001836020015181526020018681526020018581526020018481525090508060076000888152602001908152602001600020600082015181600001556020820151816001019081611c7a91906137cf565b506040820151816002019081611c9091906137cf565b50606082015181600301556080820151816004019081611cb091906137cf565b50905050505050505050565b60606000600967ffffffffffffffff811115611cdb57611cda61306d565b5b604051908082528060200260200182016040528015611d1457816020015b611d01612b9c565b815260200190600190039081611cf95790505b50905060005b6009811015611f3c57600760008281526020019081526020016000206040518060a001604052908160008201548152602001600182018054611d5b90613491565b80601f0160208091040260200160405190810160405280929190818152602001828054611d8790613491565b8015611dd45780601f10611da957610100808354040283529160200191611dd4565b820191906000526020600020905b815481529060010190602001808311611db757829003601f168201915b50505050508152602001600282018054611ded90613491565b80601f0160208091040260200160405190810160405280929190818152602001828054611e1990613491565b8015611e665780601f10611e3b57610100808354040283529160200191611e66565b820191906000526020600020905b815481529060010190602001808311611e4957829003601f168201915b5050505050815260200160038201548152602001600482018054611e8990613491565b80601f0160208091040260200160405190810160405280929190818152602001828054611eb590613491565b8015611f025780601f10611ed757610100808354040283529160200191611f02565b820191906000526020600020905b815481529060010190602001808311611ee557829003601f168201915b505050505081525050828281518110611f1e57611f1d6139f2565b5b60200260200101819052508080611f3490613a21565b915050611d1a565b508091505090565b7f9f2df0fed2c77648de5860a4cc508cd0818c85b8b8a1ab4ceeef8d981c8956a681565b611f71826107a9565b611f7a81612577565b611f84838361266c565b505050565b6000600160008473ffffffffffffffffffffffffffffffffffffffff1673ffffffffffffffffffffffffffffffffffffffff16815260200190815260200160002060008373ffffffffffffffffffffffffffffffffffffffff1673ffffffffffffffffffffffffffffffffffffffff16815260200190815260200160002054905092915050565b6000600660009054906101000a900473ffffffffffffffffffffffffffffffffffffffff16905090565b60007f01ffc9a7000000000000000000000000000000000000000000000000000000007bffffffffffffffffffffffffffffffffffffffffffffffffffffffff1916827bffffffffffffffffffffffffffffffffffffffffffffffffffffffff1916149050919050565b600033905090565b600073ffffffffffffffffffffffffffffffffffffffff168373ffffffffffffffffffffffffffffffffffffffff160361211b576040517f08c379a000000000000000000000000000000000000000000000000000000000815260040161211290613adb565b60405180910390fd5b600073ffffffffffffffffffffffffffffffffffffffff168273ffffffffffffffffffffffffffffffffffffffff160361218a576040517f08c379a000000000000000000000000000000000000000000000000000000000815260040161218190613b6d565b60405180910390fd5b80600160008573ffffffffffffffffffffffffffffffffffffffff1673ffffffffffffffffffffffffffffffffffffffff16815260200190815260200160002060008473ffffffffffffffffffffffffffffffffffffffff1673ffffffffffffffffffffffffffffffffffffffff168152602001908152602001600020819055508173ffffffffffffffffffffffffffffffffffffffff168373ffffffffffffffffffffffffffffffffffffffff167f8c5be1e5ebec7d5bd14f71427d1e84f3dd0314c0f7b2291e5b200ac8c7c3b925836040516122689190612e2f565b60405180910390a3505050565b60006122818484611f89565b90507fffffffffffffffffffffffffffffffffffffffffffffffffffffffffffffffff81146122fb57818110156122ed576040517f08c379a00000000000000000000000000000000000000000000000000000000081526004016122e490613bd9565b60405180910390fd5b6122fa84848484036120ac565b5b50505050565b600073ffffffffffffffffffffffffffffffffffffffff168373ffffffffffffffffffffffffffffffffffffffff1603612370576040517f08c379a000000000000000000000000000000000000000000000000000000000815260040161236790613c6b565b60405180910390fd5b600073ffffffffffffffffffffffffffffffffffffffff168273ffffffffffffffffffffffffffffffffffffffff16036123df576040517f08c379a00000000000000000000000000000000000000000000000000000000081526004016123d690613cfd565b60405180910390fd5b6123ea8383836128a4565b60008060008573ffffffffffffffffffffffffffffffffffffffff1673ffffffffffffffffffffffffffffffffffffffff16815260200190815260200160002054905081811015612470576040517f08c379a000000000000000000000000000000000000000000000000000000000815260040161246790613d8f565b60405180910390fd5b8181036000808673ffffffffffffffffffffffffffffffffffffffff1673ffffffffffffffffffffffffffffffffffffffff16815260200190815260200160002081905550816000808573ffffffffffffffffffffffffffffffffffffffff1673ffffffffffffffffffffffffffffffffffffffff168152602001908152602001600020600082825401925050819055508273ffffffffffffffffffffffffffffffffffffffff168473ffffffffffffffffffffffffffffffffffffffff167fddf252ad1be2c89b69c2b068fc378daa952ba7f163c4a11628f55a4df523b3ef8460405161255e9190612e2f565b60405180910390a36125718484846128a9565b50505050565b612588816125836120a4565b6128ae565b50565b6125958282610bc8565b6126685760016005600084815260200190815260200160002060000160008373ffffffffffffffffffffffffffffffffffffffff1673ffffffffffffffffffffffffffffffffffffffff16815260200190815260200160002060006101000a81548160ff02191690831515021790555061260d6120a4565b73ffffffffffffffffffffffffffffffffffffffff168173ffffffffffffffffffffffffffffffffffffffff16837f2f8788117e7eff1d82e926ec794901d17c78024a50270940304540a733656f0d60405160405180910390a45b5050565b6126768282610bc8565b1561274a5760006005600084815260200190815260200160002060000160008373ffffffffffffffffffffffffffffffffffffffff1673ffffffffffffffffffffffffffffffffffffffff16815260200190815260200160002060006101000a81548160ff0219169083151502179055506126ef6120a4565b73ffffffffffffffffffffffffffffffffffffffff168173ffffffffffffffffffffffffffffffffffffffff16837ff6391f5c32d9c69d2a47ea670b442974b53935d1edc7fd64eb21e047a839171b60405160405180910390a45b5050565b600073ffffffffffffffffffffffffffffffffffffffff168273ffffffffffffffffffffffffffffffffffffffff16036127bd576040517f08c379a00000000000000000000000000000000000000000000000000000000081526004016127b490613dfb565b60405180910390fd5b6127c9600083836128a4565b80600260008282546127db9190613583565b92505081905550806000808473ffffffffffffffffffffffffffffffffffffffff1673ffffffffffffffffffffffffffffffffffffffff168152602001908152602001600020600082825401925050819055508173ffffffffffffffffffffffffffffffffffffffff16600073ffffffffffffffffffffffffffffffffffffffff167fddf252ad1be2c89b69c2b068fc378daa952ba7f163c4a11628f55a4df523b3ef8360405161288c9190612e2f565b60405180910390a36128a0600083836128a9565b5050565b505050565b505050565b6128b88282610bc8565b61292f576128c581612933565b6128d38360001c6020612960565b6040516020016128e4929190613eef565b6040516020818303038152906040526040517f08c379a00000000000000000000000000000000000000000000000000000000081526004016129269190612d2a565b60405180910390fd5b5050565b60606129598273ffffffffffffffffffffffffffffffffffffffff16601460ff16612960565b9050919050565b6060600060028360026129739190613f29565b61297d9190613583565b67ffffffffffffffff8111156129965761299561306d565b5b6040519080825280601f01601f1916602001820160405280156129c85781602001600182028036833780820191505090505b5090507f300000000000000000000000000000000000000000000000000000000000000081600081518110612a00576129ff6139f2565b5b60200101907effffffffffffffffffffffffffffffffffffffffffffffffffffffffffffff1916908160001a9053507f780000000000000000000000000000000000000000000000000000000000000081600181518110612a6457612a636139f2565b5b60200101907effffffffffffffffffffffffffffffffffffffffffffffffffffffffffffff1916908160001a90535060006001846002612aa49190613f29565b612aae9190613583565b90505b6001811115612b4e577f3031323334353637383961626364656600000000000000000000000000000000600f861660108110612af057612aef6139f2565b5b1a60f81b828281518110612b0757612b066139f2565b5b60200101907effffffffffffffffffffffffffffffffffffffffffffffffffffffffffffff1916908160001a905350600485901c945080612b4790613f6b565b9050612ab1565b5060008414612b92576040517f08c379a0000000000000000000000000000000000000000000000000000000008152600401612b8990613fe0565b60405180910390fd5b8091505092915050565b6040518060a0016040528060008152602001606081526020016060815260200160008152602001606081525090565b6000604051905090565b600080fd5b600080fd5b60007fffffffff0000000000000000000000000000000000000000000000000000000082169050919050565b612c1481612bdf565b8114612c1f57600080fd5b50565b600081359050612c3181612c0b565b92915050565b600060208284031215612c4d57612c4c612bd5565b5b6000612c5b84828501612c22565b91505092915050565b60008115159050919050565b612c7981612c64565b82525050565b6000602082019050612c946000830184612c70565b92915050565b600081519050919050565b600082825260208201905092915050565b60005b83811015612cd4578082015181840152602081019050612cb9565b60008484015250505050565b6000601f19601f8301169050919050565b6000612cfc82612c9a565b612d068185612ca5565b9350612d16818560208601612cb6565b612d1f81612ce0565b840191505092915050565b60006020820190508181036000830152612d448184612cf1565b905092915050565b600073ffffffffffffffffffffffffffffffffffffffff82169050919050565b6000612d7782612d4c565b9050919050565b612d8781612d6c565b8114612d9257600080fd5b50565b600081359050612da481612d7e565b92915050565b6000819050919050565b612dbd81612daa565b8114612dc857600080fd5b50565b600081359050612dda81612db4565b92915050565b60008060408385031215612df757612df6612bd5565b5b6000612e0585828601612d95565b9250506020612e1685828601612dcb565b9150509250929050565b612e2981612daa565b82525050565b6000602082019050612e446000830184612e20565b92915050565b600080600060608486031215612e6357612e62612bd5565b5b6000612e7186828701612d95565b9350506020612e8286828701612d95565b9250506040612e9386828701612dcb565b9150509250925092565b6000819050919050565b612eb081612e9d565b8114612ebb57600080fd5b50565b600081359050612ecd81612ea7565b92915050565b600060208284031215612ee957612ee8612bd5565b5b6000612ef784828501612ebe565b91505092915050565b612f0981612e9d565b82525050565b6000602082019050612f246000830184612f00565b92915050565b600060208284031215612f4057612f3f612bd5565b5b6000612f4e84828501612d95565b91505092915050565b60008060408385031215612f6e57612f6d612bd5565b5b6000612f7c85828601612ebe565b9250506020612f8d85828601612d95565b9150509250929050565b600060ff82169050919050565b612fad81612f97565b82525050565b6000602082019050612fc86000830184612fa4565b92915050565b600060208284031215612fe457612fe3612bd5565b5b6000612ff284828501612dcb565b91505092915050565b600060a0820190506130106000830188612e20565b81810360208301526130228187612cf1565b905081810360408301526130368186612cf1565b90506130456060830185612e20565b81810360808301526130578184612cf1565b90509695505050505050565b600080fd5b600080fd5b7f4e487b7100000000000000000000000000000000000000000000000000000000600052604160045260246000fd5b6130a582612ce0565b810181811067ffffffffffffffff821117156130c4576130c361306d565b5b80604052505050565b60006130d7612bcb565b90506130e3828261309c565b919050565b600067ffffffffffffffff8211156131035761310261306d565b5b61310c82612ce0565b9050602081019050919050565b82818337600083830152505050565b600061313b613136846130e8565b6130cd565b90508281526020810184848401111561315757613156613068565b5b613162848285613119565b509392505050565b600082601f83011261317f5761317e613063565b5b813561318f848260208601613128565b91505092915050565b600080600080608085870312156131b2576131b1612bd5565b5b60006131c087828801612dcb565b945050602085013567ffffffffffffffff8111156131e1576131e0612bda565b5b6131ed8782880161316a565b93505060406131fe87828801612dcb565b925050606085013567ffffffffffffffff81111561321f5761321e612bda565b5b61322b8782880161316a565b91505092959194509250565b600081519050919050565b600082825260208201905092915050565b6000819050602082019050919050565b61326c81612daa565b82525050565b600082825260208201905092915050565b600061328e82612c9a565b6132988185613272565b93506132a8818560208601612cb6565b6132b181612ce0565b840191505092915050565b600060a0830160008301516132d46000860182613263565b50602083015184820360208601526132ec8282613283565b915050604083015184820360408601526133068282613283565b915050606083015161331b6060860182613263565b50608083015184820360808601526133338282613283565b9150508091505092915050565b600061334c83836132bc565b905092915050565b6000602082019050919050565b600061336c82613237565b6133768185613242565b93508360208202850161338885613253565b8060005b858110156133c457848403895281516133a58582613340565b94506133b083613354565b925060208a0199505060018101905061338c565b50829750879550505050505092915050565b600060208201905081810360008301526133f08184613361565b905092915050565b6000806040838503121561340f5761340e612bd5565b5b600061341d85828601612d95565b925050602061342e85828601612d95565b9150509250929050565b61344181612d6c565b82525050565b600060208201905061345c6000830184613438565b92915050565b7f4e487b7100000000000000000000000000000000000000000000000000000000600052602260045260246000fd5b600060028204905060018216806134a957607f821691505b6020821081036134bc576134bb613462565b5b50919050565b7f416363657373436f6e74726f6c3a2063616e206f6e6c792072656e6f756e636560008201527f20726f6c657320666f722073656c660000000000000000000000000000000000602082015250565b600061351e602f83612ca5565b9150613529826134c2565b604082019050919050565b6000602082019050818103600083015261354d81613511565b9050919050565b7f4e487b7100000000000000000000000000000000000000000000000000000000600052601160045260246000fd5b600061358e82612daa565b915061359983612daa565b92508282019050808211156135b1576135b0613554565b5b92915050565b7f43616c6c6572206973206e6f742061206d696e74657200000000000000000000600082015250565b60006135ed601683612ca5565b91506135f8826135b7565b602082019050919050565b6000602082019050818103600083015261361c816135e0565b9050919050565b60008190508160005260206000209050919050565b60006020601f8301049050919050565b600082821b905092915050565b6000600883026136857fffffffffffffffffffffffffffffffffffffffffffffffffffffffffffffffff82613648565b61368f8683613648565b95508019841693508086168417925050509392505050565b6000819050919050565b60006136cc6136c76136c284612daa565b6136a7565b612daa565b9050919050565b6000819050919050565b6136e6836136b1565b6136fa6136f2826136d3565b848454613655565b825550505050565b600090565b61370f613702565b61371a8184846136dd565b505050565b5b8181101561373e57613733600082613707565b600181019050613720565b5050565b601f8211156137835761375481613623565b61375d84613638565b8101602085101561376c578190505b61378061377885613638565b83018261371f565b50505b505050565b600082821c905092915050565b60006137a660001984600802613788565b1980831691505092915050565b60006137bf8383613795565b9150826002028217905092915050565b6137d882612c9a565b67ffffffffffffffff8111156137f1576137f061306d565b5b6137fb8254613491565b613806828285613742565b600060209050601f8311600181146138395760008415613827578287015190505b61383185826137b3565b865550613899565b601f19841661384786613623565b60005b8281101561386f5784890151825560018201915060208501945060208101905061384a565b8683101561388c5784890151613888601f891682613795565b8355505b6001600288020188555050505b505050505050565b7f45524332303a2064656372656173656420616c6c6f77616e63652062656c6f7760008201527f207a65726f000000000000000000000000000000000000000000000000000000602082015250565b60006138fd602583612ca5565b9150613908826138a1565b604082019050919050565b6000602082019050818103600083015261392c816138f0565b9050919050565b7f5265737472696374656420746f2061646d696e73000000000000000000000000600082015250565b6000613969601483612ca5565b915061397482613933565b602082019050919050565b600060208201905081810360008301526139988161395c565b9050919050565b600060a0820190506139b46000830188613438565b6139c16020830187613438565b6139ce6040830186612f00565b6139db6060830185612f00565b6139e86080830184612f00565b9695505050505050565b7f4e487b7100000000000000000000000000000000000000000000000000000000600052603260045260246000fd5b6000613a2c82612daa565b91507fffffffffffffffffffffffffffffffffffffffffffffffffffffffffffffffff8203613a5e57613a5d613554565b5b600182019050919050565b7f45524332303a20617070726f76652066726f6d20746865207a65726f2061646460008201527f7265737300000000000000000000000000000000000000000000000000000000602082015250565b6000613ac5602483612ca5565b9150613ad082613a69565b604082019050919050565b60006020820190508181036000830152613af481613ab8565b9050919050565b7f45524332303a20617070726f766520746f20746865207a65726f20616464726560008201527f7373000000000000000000000000000000000000000000000000000000000000602082015250565b6000613b57602283612ca5565b9150613b6282613afb565b604082019050919050565b60006020820190508181036000830152613b8681613b4a565b9050919050565b7f45524332303a20696e73756666696369656e7420616c6c6f77616e6365000000600082015250565b6000613bc3601d83612ca5565b9150613bce82613b8d565b602082019050919050565b60006020820190508181036000830152613bf281613bb6565b9050919050565b7f45524332303a207472616e736665722066726f6d20746865207a65726f20616460008201527f6472657373000000000000000000000000000000000000000000000000000000602082015250565b6000613c55602583612ca5565b9150613c6082613bf9565b604082019050919050565b60006020820190508181036000830152613c8481613c48565b9050919050565b7f45524332303a207472616e7366657220746f20746865207a65726f206164647260008201527f6573730000000000000000000000000000000000000000000000000000000000602082015250565b6000613ce7602383612ca5565b9150613cf282613c8b565b604082019050919050565b60006020820190508181036000830152613d1681613cda565b9050919050565b7f45524332303a207472616e7366657220616d6f756e742065786365656473206260008201527f616c616e63650000000000000000000000000000000000000000000000000000602082015250565b6000613d79602683612ca5565b9150613d8482613d1d565b604082019050919050565b60006020820190508181036000830152613da881613d6c565b9050919050565b7f45524332303a206d696e7420746f20746865207a65726f206164647265737300600082015250565b6000613de5601f83612ca5565b9150613df082613daf565b602082019050919050565b60006020820190508181036000830152613e1481613dd8565b9050919050565b600081905092915050565b7f416363657373436f6e74726f6c3a206163636f756e7420000000000000000000600082015250565b6000613e5c601783613e1b565b9150613e6782613e26565b601782019050919050565b6000613e7d82612c9a565b613e878185613e1b565b9350613e97818560208601612cb6565b80840191505092915050565b7f206973206d697373696e6720726f6c6520000000000000000000000000000000600082015250565b6000613ed9601183613e1b565b9150613ee482613ea3565b601182019050919050565b6000613efa82613e4f565b9150613f068285613e72565b9150613f1182613ecc565b9150613f1d8284613e72565b91508190509392505050565b6000613f3482612daa565b9150613f3f83612daa565b9250828202613f4d81612daa565b91508282048414831517613f6457613f63613554565b5b5092915050565b6000613f7682612daa565b915060008203613f8957613f88613554565b5b600182039050919050565b7f537472696e67733a20686578206c656e67746820696e73756666696369656e74600082015250565b6000613fca602083612ca5565b9150613fd582613f94565b602082019050919050565b60006020820190508181036000830152613ff981613fbd565b905091905056fea264697066735822122030eff3db394ad4b979752eecaa4b4aedb955a58730815c9936dda9c3f4598b9564736f6c63430008110033",
  "immutableReferences": {},
  "source": "pragma solidity ^0.8.17;\r\n\r\n\r\nimport \"@openzeppelin/contracts/token/ERC20/ERC20.sol\";\r\nimport \"@openzeppelin/contracts/access/AccessControl.sol\";\r\nimport \"@openzeppelin/contracts/utils/math/SafeMath.sol\";\r\n\r\ncontract TutorialToken_AC is ERC20, AccessControl {\r\n   bytes32 public constant MINTER_ROLE = keccak256(\"MINTER_ROLE\");\r\n   address _owner;\r\n\r\n   struct Product {\r\n    uint id;\r\n    string picture;\r\n    string name;\r\n    uint price;\r\n    string console;\r\n}\r\n\r\n    \r\n  mapping (uint256 => Product) public products;\r\n\r\n   constructor(\r\n        string memory name,\r\n        string memory symbol,\r\n        uint256 initialSupply) ERC20(name, symbol) {\r\n      _mint(msg.sender, initialSupply);\r\n      _owner = msg.sender;\r\n      _setupRole(DEFAULT_ADMIN_ROLE, msg.sender);\r\n      _setRoleAdmin(MINTER_ROLE, DEFAULT_ADMIN_ROLE);\r\n      preloadProduct();\r\n   }\r\n\r\n   function preloadProduct() public{\r\n      products[0] = Product(0, \"images/GodOfWar.jpg\", \"God Of War Ragnarok\", 70, \"PlayStation 5\");\r\n      products[1] = Product(1, \"images/MW2.jpg\", \"Call of Duty: Modern Warfare II\", 75, \"PlayStation 5\");\r\n      products[2] = Product(2, \"images/Horizon.jpg\", \"Horizon: Forbidden West\", 53, \"PlayStation 5\");\r\n      products[3] = Product(3, \"images/FarCry6.jpg\", \"Far Cry 6\", 20, \"Xbox Series X\");\r\n      products[4] = Product(4, \"images/CallistoProtocol.jpg\", \"The Callisto Protocol\", 55, \"Xbox Series X\");\r\n      products[5] = Product(5, \"images/Metro.jpg\", \"Metro Exodus\", 30, \"Xbox Series X\");\r\n      products[6] = Product(6, \"images/MarioBros.jpg\", \"New Super Mario Bros\", 50, \"Nintendo Switch\");\r\n      products[7] = Product(7, \"images/Pokemon.jpg\",  \"Pokemon Violetto \", 48, \"Nintendo Switch\");\r\n      products[8] = Product(8, \"images/AnimalCrossing.jpg\", \"Animal Crossing: New Horizons\", 58, \"Nintendo Switch\");\r\n   }\r\n\r\n\r\n\r\n   function getAllProduct() public view returns (Product[] memory) {\r\n    \r\n    Product[] memory result = new Product[](9);\r\n    for (uint i = 0; i < 9; i++) {\r\n      result[i] = products[i];\r\n    }\r\n\r\n    return result;\r\n}\r\n\r\n   function modifyProdId(uint id, string memory name, uint price, string memory console) public soloAdmin \r\n   {\r\n\r\n      Product memory x = products[id];\r\n      Product memory p = Product(id, x.picture, name, price,console);\r\n      products[id] = p;\r\n\r\n   }\r\n\r\n\r\n   event Debug(address user, address sender, bytes32 role, bytes32 adminRole, bytes32 senderRole);\r\n   event ChecksoloAdmin(address user);\r\n   event ChecksoloMinters(address user);\r\n\r\n   modifier soloAdmin() {\r\n      emit ChecksoloAdmin(msg.sender);\r\n      require(isAdmin(msg.sender), \"Restricted to admins\");\r\n      _;\r\n   }\r\n\r\n   modifier soloMinters() {\r\n      emit ChecksoloMinters(msg.sender);\r\n      require(isMinter(msg.sender), \"Caller is not a minter\");\r\n      _;\r\n   }\r\n\r\n   function buyProduct(uint256 amount) public virtual returns(bool) {\r\n      return transfer(_owner, amount);\r\n\r\n   }\r\n\r\n   function isAdmin(address account) public virtual view returns (bool) {\r\n      return hasRole(DEFAULT_ADMIN_ROLE, account);\r\n   }\r\n\r\n   function isMinter(address account) public virtual view returns (bool) {\r\n      return hasRole(MINTER_ROLE, account);\r\n   }\r\n\r\n   function showOwner() public virtual view returns(address){\r\n      return _owner;\r\n   }\r\n\r\n   function mint(address to, uint256 amount) public soloMinters {\r\n      _mint(to, amount);\r\n    }\r\n\r\n    function addMinterRole(address to) public soloAdmin {\r\n      emit Debug(to, msg.sender, MINTER_ROLE, getRoleAdmin(MINTER_ROLE), DEFAULT_ADMIN_ROLE);\r\n      grantRole(MINTER_ROLE, to);\r\n    }\r\n\r\n    function removeMinterRole (address to) public {\r\n      renounceRole(MINTER_ROLE, to);\r\n    }\r\n\r\n\r\n\r\n}\r\n\r\n",
  "sourcePath": "C:\\Users\\marco\\Desktop\\UniMagistrale\\SecondoAnno\\SicurezzaDeiDati\\ProgettoSicurezza\\Test\\contracts\\TutorialToken_AC.sol",
  "compiler": {
    "name": "solc",
    "version": "0.8.17+commit.8df45f5f.Emscripten.clang"
  },
  "schemaVersion": "3.4.11",
  "updatedAt": "2023-01-27T16:41:28.762Z",
  "networkType": "ethereum",
  "devdoc": {
    "kind": "dev",
    "methods": {
      "allowance(address,address)": {
        "details": "See {IERC20-allowance}."
      },
      "approve(address,uint256)": {
        "details": "See {IERC20-approve}. NOTE: If `amount` is the maximum `uint256`, the allowance is not updated on `transferFrom`. This is semantically equivalent to an infinite approval. Requirements: - `spender` cannot be the zero address."
      },
      "balanceOf(address)": {
        "details": "See {IERC20-balanceOf}."
      },
      "decimals()": {
        "details": "Returns the number of decimals used to get its user representation. For example, if `decimals` equals `2`, a balance of `505` tokens should be displayed to a user as `5.05` (`505 / 10 ** 2`). Tokens usually opt for a value of 18, imitating the relationship between Ether and Wei. This is the value {ERC20} uses, unless this function is overridden; NOTE: This information is only used for _display_ purposes: it in no way affects any of the arithmetic of the contract, including {IERC20-balanceOf} and {IERC20-transfer}."
      },
      "decreaseAllowance(address,uint256)": {
        "details": "Atomically decreases the allowance granted to `spender` by the caller. This is an alternative to {approve} that can be used as a mitigation for problems described in {IERC20-approve}. Emits an {Approval} event indicating the updated allowance. Requirements: - `spender` cannot be the zero address. - `spender` must have allowance for the caller of at least `subtractedValue`."
      },
      "getRoleAdmin(bytes32)": {
        "details": "Returns the admin role that controls `role`. See {grantRole} and {revokeRole}. To change a role's admin, use {_setRoleAdmin}."
      },
      "grantRole(bytes32,address)": {
        "details": "Grants `role` to `account`. If `account` had not been already granted `role`, emits a {RoleGranted} event. Requirements: - the caller must have ``role``'s admin role. May emit a {RoleGranted} event."
      },
      "hasRole(bytes32,address)": {
        "details": "Returns `true` if `account` has been granted `role`."
      },
      "increaseAllowance(address,uint256)": {
        "details": "Atomically increases the allowance granted to `spender` by the caller. This is an alternative to {approve} that can be used as a mitigation for problems described in {IERC20-approve}. Emits an {Approval} event indicating the updated allowance. Requirements: - `spender` cannot be the zero address."
      },
      "name()": {
        "details": "Returns the name of the token."
      },
      "renounceRole(bytes32,address)": {
        "details": "Revokes `role` from the calling account. Roles are often managed via {grantRole} and {revokeRole}: this function's purpose is to provide a mechanism for accounts to lose their privileges if they are compromised (such as when a trusted device is misplaced). If the calling account had been revoked `role`, emits a {RoleRevoked} event. Requirements: - the caller must be `account`. May emit a {RoleRevoked} event."
      },
      "revokeRole(bytes32,address)": {
        "details": "Revokes `role` from `account`. If `account` had been granted `role`, emits a {RoleRevoked} event. Requirements: - the caller must have ``role``'s admin role. May emit a {RoleRevoked} event."
      },
      "supportsInterface(bytes4)": {
        "details": "See {IERC165-supportsInterface}."
      },
      "symbol()": {
        "details": "Returns the symbol of the token, usually a shorter version of the name."
      },
      "totalSupply()": {
        "details": "See {IERC20-totalSupply}."
      },
      "transfer(address,uint256)": {
        "details": "See {IERC20-transfer}. Requirements: - `to` cannot be the zero address. - the caller must have a balance of at least `amount`."
      },
      "transferFrom(address,address,uint256)": {
        "details": "See {IERC20-transferFrom}. Emits an {Approval} event indicating the updated allowance. This is not required by the EIP. See the note at the beginning of {ERC20}. NOTE: Does not update the allowance if the current allowance is the maximum `uint256`. Requirements: - `from` and `to` cannot be the zero address. - `from` must have a balance of at least `amount`. - the caller must have allowance for ``from``'s tokens of at least `amount`."
      }
    },
    "version": 1
  },
  "userdoc": {
    "kind": "user",
    "methods": {},
    "version": 1
  }
}