{
  "contractName": "TutorialToken_AC",
  "abi": [
    {
      "inputs": [
        {
          "internalType": "string",
          "name": "name",
          "type": "string"
        },
        {
          "internalType": "string",
          "name": "symbol",
          "type": "string"
        },
        {
          "internalType": "uint256",
          "name": "initialSupply",
          "type": "uint256"
        }
      ],
      "stateMutability": "nonpayable",
      "type": "constructor"
    },
    {
      "anonymous": false,
      "inputs": [
        {
          "indexed": true,
          "internalType": "address",
          "name": "owner",
          "type": "address"
        },
        {
          "indexed": true,
          "internalType": "address",
          "name": "spender",
          "type": "address"
        },
        {
          "indexed": false,
          "internalType": "uint256",
          "name": "value",
          "type": "uint256"
        }
      ],
      "name": "Approval",
      "type": "event"
    },
    {
      "anonymous": false,
      "inputs": [
        {
          "indexed": false,
          "internalType": "address",
          "name": "user",
          "type": "address"
        }
      ],
      "name": "ChecksoloAdmin",
      "type": "event"
    },
    {
      "anonymous": false,
      "inputs": [
        {
          "indexed": false,
          "internalType": "address",
          "name": "user",
          "type": "address"
        }
      ],
      "name": "ChecksoloMinters",
      "type": "event"
    },
    {
      "anonymous": false,
      "inputs": [
        {
          "indexed": false,
          "internalType": "address",
          "name": "user",
          "type": "address"
        },
        {
          "indexed": false,
          "internalType": "address",
          "name": "sender",
          "type": "address"
        },
        {
          "indexed": false,
          "internalType": "bytes32",
          "name": "role",
          "type": "bytes32"
        },
        {
          "indexed": false,
          "internalType": "bytes32",
          "name": "adminRole",
          "type": "bytes32"
        },
        {
          "indexed": false,
          "internalType": "bytes32",
          "name": "senderRole",
          "type": "bytes32"
        }
      ],
      "name": "Debug",
      "type": "event"
    },
    {
      "anonymous": false,
      "inputs": [
        {
          "indexed": true,
          "internalType": "bytes32",
          "name": "role",
          "type": "bytes32"
        },
        {
          "indexed": true,
          "internalType": "bytes32",
          "name": "previousAdminRole",
          "type": "bytes32"
        },
        {
          "indexed": true,
          "internalType": "bytes32",
          "name": "newAdminRole",
          "type": "bytes32"
        }
      ],
      "name": "RoleAdminChanged",
      "type": "event"
    },
    {
      "anonymous": false,
      "inputs": [
        {
          "indexed": true,
          "internalType": "bytes32",
          "name": "role",
          "type": "bytes32"
        },
        {
          "indexed": true,
          "internalType": "address",
          "name": "account",
          "type": "address"
        },
        {
          "indexed": true,
          "internalType": "address",
          "name": "sender",
          "type": "address"
        }
      ],
      "name": "RoleGranted",
      "type": "event"
    },
    {
      "anonymous": false,
      "inputs": [
        {
          "indexed": true,
          "internalType": "bytes32",
          "name": "role",
          "type": "bytes32"
        },
        {
          "indexed": true,
          "internalType": "address",
          "name": "account",
          "type": "address"
        },
        {
          "indexed": true,
          "internalType": "address",
          "name": "sender",
          "type": "address"
        }
      ],
      "name": "RoleRevoked",
      "type": "event"
    },
    {
      "anonymous": false,
      "inputs": [
        {
          "indexed": true,
          "internalType": "address",
          "name": "from",
          "type": "address"
        },
        {
          "indexed": true,
          "internalType": "address",
          "name": "to",
          "type": "address"
        },
        {
          "indexed": false,
          "internalType": "uint256",
          "name": "value",
          "type": "uint256"
        }
      ],
      "name": "Transfer",
      "type": "event"
    },
    {
      "inputs": [],
      "name": "DEFAULT_ADMIN_ROLE",
      "outputs": [
        {
          "internalType": "bytes32",
          "name": "",
          "type": "bytes32"
        }
      ],
      "stateMutability": "view",
      "type": "function"
    },
    {
      "inputs": [],
      "name": "MINTER_ROLE",
      "outputs": [
        {
          "internalType": "bytes32",
          "name": "",
          "type": "bytes32"
        }
      ],
      "stateMutability": "view",
      "type": "function"
    },
    {
      "inputs": [
        {
          "internalType": "address",
          "name": "owner",
          "type": "address"
        },
        {
          "internalType": "address",
          "name": "spender",
          "type": "address"
        }
      ],
      "name": "allowance",
      "outputs": [
        {
          "internalType": "uint256",
          "name": "",
          "type": "uint256"
        }
      ],
      "stateMutability": "view",
      "type": "function"
    },
    {
      "inputs": [
        {
          "internalType": "address",
          "name": "spender",
          "type": "address"
        },
        {
          "internalType": "uint256",
          "name": "amount",
          "type": "uint256"
        }
      ],
      "name": "approve",
      "outputs": [
        {
          "internalType": "bool",
          "name": "",
          "type": "bool"
        }
      ],
      "stateMutability": "nonpayable",
      "type": "function"
    },
    {
      "inputs": [
        {
          "internalType": "address",
          "name": "account",
          "type": "address"
        }
      ],
      "name": "balanceOf",
      "outputs": [
        {
          "internalType": "uint256",
          "name": "",
          "type": "uint256"
        }
      ],
      "stateMutability": "view",
      "type": "function"
    },
    {
      "inputs": [],
      "name": "decimals",
      "outputs": [
        {
          "internalType": "uint8",
          "name": "",
          "type": "uint8"
        }
      ],
      "stateMutability": "view",
      "type": "function"
    },
    {
      "inputs": [
        {
          "internalType": "address",
          "name": "spender",
          "type": "address"
        },
        {
          "internalType": "uint256",
          "name": "subtractedValue",
          "type": "uint256"
        }
      ],
      "name": "decreaseAllowance",
      "outputs": [
        {
          "internalType": "bool",
          "name": "",
          "type": "bool"
        }
      ],
      "stateMutability": "nonpayable",
      "type": "function"
    },
    {
      "inputs": [
        {
          "internalType": "bytes32",
          "name": "role",
          "type": "bytes32"
        }
      ],
      "name": "getRoleAdmin",
      "outputs": [
        {
          "internalType": "bytes32",
          "name": "",
          "type": "bytes32"
        }
      ],
      "stateMutability": "view",
      "type": "function"
    },
    {
      "inputs": [
        {
          "internalType": "bytes32",
          "name": "role",
          "type": "bytes32"
        },
        {
          "internalType": "address",
          "name": "account",
          "type": "address"
        }
      ],
      "name": "grantRole",
      "outputs": [],
      "stateMutability": "nonpayable",
      "type": "function"
    },
    {
      "inputs": [
        {
          "internalType": "bytes32",
          "name": "role",
          "type": "bytes32"
        },
        {
          "internalType": "address",
          "name": "account",
          "type": "address"
        }
      ],
      "name": "hasRole",
      "outputs": [
        {
          "internalType": "bool",
          "name": "",
          "type": "bool"
        }
      ],
      "stateMutability": "view",
      "type": "function"
    },
    {
      "inputs": [
        {
          "internalType": "address",
          "name": "spender",
          "type": "address"
        },
        {
          "internalType": "uint256",
          "name": "addedValue",
          "type": "uint256"
        }
      ],
      "name": "increaseAllowance",
      "outputs": [
        {
          "internalType": "bool",
          "name": "",
          "type": "bool"
        }
      ],
      "stateMutability": "nonpayable",
      "type": "function"
    },
    {
      "inputs": [],
      "name": "name",
      "outputs": [
        {
          "internalType": "string",
          "name": "",
          "type": "string"
        }
      ],
      "stateMutability": "view",
      "type": "function"
    },
    {
      "inputs": [
        {
          "internalType": "bytes32",
          "name": "role",
          "type": "bytes32"
        },
        {
          "internalType": "address",
          "name": "account",
          "type": "address"
        }
      ],
      "name": "renounceRole",
      "outputs": [],
      "stateMutability": "nonpayable",
      "type": "function"
    },
    {
      "inputs": [
        {
          "internalType": "bytes32",
          "name": "role",
          "type": "bytes32"
        },
        {
          "internalType": "address",
          "name": "account",
          "type": "address"
        }
      ],
      "name": "revokeRole",
      "outputs": [],
      "stateMutability": "nonpayable",
      "type": "function"
    },
    {
      "inputs": [
        {
          "internalType": "bytes4",
          "name": "interfaceId",
          "type": "bytes4"
        }
      ],
      "name": "supportsInterface",
      "outputs": [
        {
          "internalType": "bool",
          "name": "",
          "type": "bool"
        }
      ],
      "stateMutability": "view",
      "type": "function"
    },
    {
      "inputs": [],
      "name": "symbol",
      "outputs": [
        {
          "internalType": "string",
          "name": "",
          "type": "string"
        }
      ],
      "stateMutability": "view",
      "type": "function"
    },
    {
      "inputs": [],
      "name": "totalSupply",
      "outputs": [
        {
          "internalType": "uint256",
          "name": "",
          "type": "uint256"
        }
      ],
      "stateMutability": "view",
      "type": "function"
    },
    {
      "inputs": [
        {
          "internalType": "address",
          "name": "to",
          "type": "address"
        },
        {
          "internalType": "uint256",
          "name": "amount",
          "type": "uint256"
        }
      ],
      "name": "transfer",
      "outputs": [
        {
          "internalType": "bool",
          "name": "",
          "type": "bool"
        }
      ],
      "stateMutability": "nonpayable",
      "type": "function"
    },
    {
      "inputs": [
        {
          "internalType": "address",
          "name": "from",
          "type": "address"
        },
        {
          "internalType": "address",
          "name": "to",
          "type": "address"
        },
        {
          "internalType": "uint256",
          "name": "amount",
          "type": "uint256"
        }
      ],
      "name": "transferFrom",
      "outputs": [
        {
          "internalType": "bool",
          "name": "",
          "type": "bool"
        }
      ],
      "stateMutability": "nonpayable",
      "type": "function"
    },
    {
      "inputs": [
        {
          "internalType": "address",
          "name": "account",
          "type": "address"
        }
      ],
      "name": "isAdmin",
      "outputs": [
        {
          "internalType": "bool",
          "name": "",
          "type": "bool"
        }
      ],
      "stateMutability": "view",
      "type": "function"
    },
    {
      "inputs": [
        {
          "internalType": "address",
          "name": "account",
          "type": "address"
        }
      ],
      "name": "isMinter",
      "outputs": [
        {
          "internalType": "bool",
          "name": "",
          "type": "bool"
        }
      ],
      "stateMutability": "view",
      "type": "function"
    },
    {
      "inputs": [
        {
          "internalType": "address",
          "name": "to",
          "type": "address"
        },
        {
          "internalType": "uint256",
          "name": "amount",
          "type": "uint256"
        }
      ],
      "name": "mint",
      "outputs": [],
      "stateMutability": "nonpayable",
      "type": "function"
    },
    {
      "inputs": [
        {
          "internalType": "address",
          "name": "to",
          "type": "address"
        }
      ],
      "name": "addMinterRole",
      "outputs": [],
      "stateMutability": "nonpayable",
      "type": "function"
    },
    {
      "inputs": [
        {
          "internalType": "address",
          "name": "to",
          "type": "address"
        }
      ],
      "name": "removeMinterRole",
      "outputs": [],
      "stateMutability": "nonpayable",
      "type": "function"
    }
  ],
  "bytecode": "0x60806040523480156200001157600080fd5b506040516200304238038062003042833981810160405281019062000037919062000608565b828281600390816200004a9190620008e3565b5080600490816200005c9190620008e3565b505050620000713382620000c460201b60201c565b620000866000801b336200023160201b60201c565b620000bb7f9f2df0fed2c77648de5860a4cc508cd0818c85b8b8a1ab4ceeef8d981c8956a66000801b6200024760201b60201c565b50505062000ae5565b600073ffffffffffffffffffffffffffffffffffffffff168273ffffffffffffffffffffffffffffffffffffffff160362000136576040517f08c379a00000000000000000000000000000000000000000000000000000000081526004016200012d9062000a2b565b60405180910390fd5b6200014a60008383620002ab60201b60201c565b80600260008282546200015e919062000a7c565b92505081905550806000808473ffffffffffffffffffffffffffffffffffffffff1673ffffffffffffffffffffffffffffffffffffffff168152602001908152602001600020600082825401925050819055508173ffffffffffffffffffffffffffffffffffffffff16600073ffffffffffffffffffffffffffffffffffffffff167fddf252ad1be2c89b69c2b068fc378daa952ba7f163c4a11628f55a4df523b3ef8360405162000211919062000ac8565b60405180910390a36200022d60008383620002b060201b60201c565b5050565b620002438282620002b560201b60201c565b5050565b60006200025a83620003a760201b60201c565b90508160056000858152602001908152602001600020600101819055508181847fbd79b86ffe0ab8e8776151514217cd7cacd52c909f66475c3af44e129f0b00ff60405160405180910390a4505050565b505050565b505050565b620002c78282620003c760201b60201c565b620003a35760016005600084815260200190815260200160002060000160008373ffffffffffffffffffffffffffffffffffffffff1673ffffffffffffffffffffffffffffffffffffffff16815260200190815260200160002060006101000a81548160ff021916908315150217905550620003486200043260201b60201c565b73ffffffffffffffffffffffffffffffffffffffff168173ffffffffffffffffffffffffffffffffffffffff16837f2f8788117e7eff1d82e926ec794901d17c78024a50270940304540a733656f0d60405160405180910390a45b5050565b600060056000838152602001908152602001600020600101549050919050565b60006005600084815260200190815260200160002060000160008373ffffffffffffffffffffffffffffffffffffffff1673ffffffffffffffffffffffffffffffffffffffff16815260200190815260200160002060009054906101000a900460ff16905092915050565b600033905090565b6000604051905090565b600080fd5b600080fd5b600080fd5b600080fd5b6000601f19601f8301169050919050565b7f4e487b7100000000000000000000000000000000000000000000000000000000600052604160045260246000fd5b620004a38262000458565b810181811067ffffffffffffffff82111715620004c557620004c462000469565b5b80604052505050565b6000620004da6200043a565b9050620004e8828262000498565b919050565b600067ffffffffffffffff8211156200050b576200050a62000469565b5b620005168262000458565b9050602081019050919050565b60005b838110156200054357808201518184015260208101905062000526565b60008484015250505050565b6000620005666200056084620004ed565b620004ce565b90508281526020810184848401111562000585576200058462000453565b5b6200059284828562000523565b509392505050565b600082601f830112620005b257620005b16200044e565b5b8151620005c48482602086016200054f565b91505092915050565b6000819050919050565b620005e281620005cd565b8114620005ee57600080fd5b50565b6000815190506200060281620005d7565b92915050565b60008060006060848603121562000624576200062362000444565b5b600084015167ffffffffffffffff81111562000645576200064462000449565b5b62000653868287016200059a565b935050602084015167ffffffffffffffff81111562000677576200067662000449565b5b62000685868287016200059a565b92505060406200069886828701620005f1565b9150509250925092565b600081519050919050565b7f4e487b7100000000000000000000000000000000000000000000000000000000600052602260045260246000fd5b60006002820490506001821680620006f557607f821691505b6020821081036200070b576200070a620006ad565b5b50919050565b60008190508160005260206000209050919050565b60006020601f8301049050919050565b600082821b905092915050565b600060088302620007757fffffffffffffffffffffffffffffffffffffffffffffffffffffffffffffffff8262000736565b62000781868362000736565b95508019841693508086168417925050509392505050565b6000819050919050565b6000620007c4620007be620007b884620005cd565b62000799565b620005cd565b9050919050565b6000819050919050565b620007e083620007a3565b620007f8620007ef82620007cb565b84845462000743565b825550505050565b600090565b6200080f62000800565b6200081c818484620007d5565b505050565b5b8181101562000844576200083860008262000805565b60018101905062000822565b5050565b601f82111562000893576200085d8162000711565b620008688462000726565b8101602085101562000878578190505b62000890620008878562000726565b83018262000821565b50505b505050565b600082821c905092915050565b6000620008b86000198460080262000898565b1980831691505092915050565b6000620008d38383620008a5565b9150826002028217905092915050565b620008ee82620006a2565b67ffffffffffffffff8111156200090a576200090962000469565b5b620009168254620006dc565b6200092382828562000848565b600060209050601f8311600181146200095b576000841562000946578287015190505b620009528582620008c5565b865550620009c2565b601f1984166200096b8662000711565b60005b8281101562000995578489015182556001820191506020850194506020810190506200096e565b86831015620009b55784890151620009b1601f891682620008a5565b8355505b6001600288020188555050505b505050505050565b600082825260208201905092915050565b7f45524332303a206d696e7420746f20746865207a65726f206164647265737300600082015250565b600062000a13601f83620009ca565b915062000a2082620009db565b602082019050919050565b6000602082019050818103600083015262000a468162000a04565b9050919050565b7f4e487b7100000000000000000000000000000000000000000000000000000000600052601160045260246000fd5b600062000a8982620005cd565b915062000a9683620005cd565b925082820190508082111562000ab15762000ab062000a4d565b5b92915050565b62000ac281620005cd565b82525050565b600060208201905062000adf600083018462000ab7565b92915050565b61254d8062000af56000396000f3fe608060405234801561001057600080fd5b50600436106101585760003560e01c806354f1e126116100c3578063a9059cbb1161007c578063a9059cbb14610413578063aa271e1a14610443578063adbf377614610473578063d53913931461048f578063d547741f146104ad578063dd62ed3e146104c957610158565b806354f1e1261461032b57806370a082311461034757806391d148541461037757806395d89b41146103a7578063a217fddf146103c5578063a457c2d7146103e357610158565b806324d7806c1161011557806324d7806c146102595780632f2ff15d14610289578063313ce567146102a557806336568abe146102c357806339509351146102df57806340c10f191461030f57610158565b806301ffc9a71461015d57806306fdde031461018d578063095ea7b3146101ab57806318160ddd146101db57806323b872dd146101f9578063248a9ca314610229575b600080fd5b6101776004803603810190610172919061180f565b6104f9565b6040516101849190611857565b60405180910390f35b610195610573565b6040516101a29190611902565b60405180910390f35b6101c560048036038101906101c091906119b8565b610605565b6040516101d29190611857565b60405180910390f35b6101e3610628565b6040516101f09190611a07565b60405180910390f35b610213600480360381019061020e9190611a22565b610632565b6040516102209190611857565b60405180910390f35b610243600480360381019061023e9190611aab565b610661565b6040516102509190611ae7565b60405180910390f35b610273600480360381019061026e9190611b02565b610681565b6040516102809190611857565b60405180910390f35b6102a3600480360381019061029e9190611b2f565b610697565b005b6102ad6106b8565b6040516102ba9190611b8b565b60405180910390f35b6102dd60048036038101906102d89190611b2f565b6106c1565b005b6102f960048036038101906102f491906119b8565b610744565b6040516103069190611857565b60405180910390f35b610329600480360381019061032491906119b8565b61077b565b005b61034560048036038101906103409190611b02565b610808565b005b610361600480360381019061035c9190611b02565b610835565b60405161036e9190611a07565b60405180910390f35b610391600480360381019061038c9190611b2f565b61087d565b60405161039e9190611857565b60405180910390f35b6103af6108e8565b6040516103bc9190611902565b60405180910390f35b6103cd61097a565b6040516103da9190611ae7565b60405180910390f35b6103fd60048036038101906103f891906119b8565b610981565b60405161040a9190611857565b60405180910390f35b61042d600480360381019061042891906119b8565b6109f8565b60405161043a9190611857565b60405180910390f35b61045d60048036038101906104589190611b02565b610a1b565b60405161046a9190611857565b60405180910390f35b61048d60048036038101906104889190611b02565b610a4e565b005b610497610b84565b6040516104a49190611ae7565b60405180910390f35b6104c760048036038101906104c29190611b2f565b610ba8565b005b6104e360048036038101906104de9190611ba6565b610bc9565b6040516104f09190611a07565b60405180910390f35b60007f7965db0b000000000000000000000000000000000000000000000000000000007bffffffffffffffffffffffffffffffffffffffffffffffffffffffff1916827bffffffffffffffffffffffffffffffffffffffffffffffffffffffff1916148061056c575061056b82610c50565b5b9050919050565b60606003805461058290611c15565b80601f01602080910402602001604051908101604052809291908181526020018280546105ae90611c15565b80156105fb5780601f106105d0576101008083540402835291602001916105fb565b820191906000526020600020905b8154815290600101906020018083116105de57829003601f168201915b5050505050905090565b600080610610610cba565b905061061d818585610cc2565b600191505092915050565b6000600254905090565b60008061063d610cba565b905061064a858285610e8b565b610655858585610f17565b60019150509392505050565b600060056000838152602001908152602001600020600101549050919050565b60006106906000801b8361087d565b9050919050565b6106a082610661565b6106a98161118d565b6106b383836111a1565b505050565b60006012905090565b6106c9610cba565b73ffffffffffffffffffffffffffffffffffffffff168173ffffffffffffffffffffffffffffffffffffffff1614610736576040517f08c379a000000000000000000000000000000000000000000000000000000000815260040161072d90611cb8565b60405180910390fd5b6107408282611282565b5050565b60008061074f610cba565b90506107708185856107618589610bc9565b61076b9190611d07565b610cc2565b600191505092915050565b7f30961df266e1c49061f4de998a0d33e0a256c0b6b9a896ed98ac9293063b7cc7336040516107aa9190611d4a565b60405180910390a16107bb33610a1b565b6107fa576040517f08c379a00000000000000000000000000000000000000000000000000000000081526004016107f190611db1565b60405180910390fd5b6108048282611364565b5050565b6108327f9f2df0fed2c77648de5860a4cc508cd0818c85b8b8a1ab4ceeef8d981c8956a6826106c1565b50565b60008060008373ffffffffffffffffffffffffffffffffffffffff1673ffffffffffffffffffffffffffffffffffffffff168152602001908152602001600020549050919050565b60006005600084815260200190815260200160002060000160008373ffffffffffffffffffffffffffffffffffffffff1673ffffffffffffffffffffffffffffffffffffffff16815260200190815260200160002060009054906101000a900460ff16905092915050565b6060600480546108f790611c15565b80601f016020809104026020016040519081016040528092919081815260200182805461092390611c15565b80156109705780601f1061094557610100808354040283529160200191610970565b820191906000526020600020905b81548152906001019060200180831161095357829003601f168201915b5050505050905090565b6000801b81565b60008061098c610cba565b9050600061099a8286610bc9565b9050838110156109df576040517f08c379a00000000000000000000000000000000000000000000000000000000081526004016109d690611e43565b60405180910390fd5b6109ec8286868403610cc2565b60019250505092915050565b600080610a03610cba565b9050610a10818585610f17565b600191505092915050565b6000610a477f9f2df0fed2c77648de5860a4cc508cd0818c85b8b8a1ab4ceeef8d981c8956a68361087d565b9050919050565b7ff8ef03ce9f2cfdd733d77d52a15531b9932a15f9d03c8f7705d67e6fdeb11e6f33604051610a7d9190611d4a565b60405180910390a1610a8e33610681565b610acd576040517f08c379a0000000000000000000000000000000000000000000000000000000008152600401610ac490611eaf565b60405180910390fd5b7ffbeaa2d4b24ea8784b2e518c3040f6dfe5edce67a0ffce9f5162d2a149b3523c81337f9f2df0fed2c77648de5860a4cc508cd0818c85b8b8a1ab4ceeef8d981c8956a6610b3a7f9f2df0fed2c77648de5860a4cc508cd0818c85b8b8a1ab4ceeef8d981c8956a6610661565b6000801b604051610b4f959493929190611ecf565b60405180910390a1610b817f9f2df0fed2c77648de5860a4cc508cd0818c85b8b8a1ab4ceeef8d981c8956a682610697565b50565b7f9f2df0fed2c77648de5860a4cc508cd0818c85b8b8a1ab4ceeef8d981c8956a681565b610bb182610661565b610bba8161118d565b610bc48383611282565b505050565b6000600160008473ffffffffffffffffffffffffffffffffffffffff1673ffffffffffffffffffffffffffffffffffffffff16815260200190815260200160002060008373ffffffffffffffffffffffffffffffffffffffff1673ffffffffffffffffffffffffffffffffffffffff16815260200190815260200160002054905092915050565b60007f01ffc9a7000000000000000000000000000000000000000000000000000000007bffffffffffffffffffffffffffffffffffffffffffffffffffffffff1916827bffffffffffffffffffffffffffffffffffffffffffffffffffffffff1916149050919050565b600033905090565b600073ffffffffffffffffffffffffffffffffffffffff168373ffffffffffffffffffffffffffffffffffffffff1603610d31576040517f08c379a0000000000000000000000000000000000000000000000000000000008152600401610d2890611f94565b60405180910390fd5b600073ffffffffffffffffffffffffffffffffffffffff168273ffffffffffffffffffffffffffffffffffffffff1603610da0576040517f08c379a0000000000000000000000000000000000000000000000000000000008152600401610d9790612026565b60405180910390fd5b80600160008573ffffffffffffffffffffffffffffffffffffffff1673ffffffffffffffffffffffffffffffffffffffff16815260200190815260200160002060008473ffffffffffffffffffffffffffffffffffffffff1673ffffffffffffffffffffffffffffffffffffffff168152602001908152602001600020819055508173ffffffffffffffffffffffffffffffffffffffff168373ffffffffffffffffffffffffffffffffffffffff167f8c5be1e5ebec7d5bd14f71427d1e84f3dd0314c0f7b2291e5b200ac8c7c3b92583604051610e7e9190611a07565b60405180910390a3505050565b6000610e978484610bc9565b90507fffffffffffffffffffffffffffffffffffffffffffffffffffffffffffffffff8114610f115781811015610f03576040517f08c379a0000000000000000000000000000000000000000000000000000000008152600401610efa90612092565b60405180910390fd5b610f108484848403610cc2565b5b50505050565b600073ffffffffffffffffffffffffffffffffffffffff168373ffffffffffffffffffffffffffffffffffffffff1603610f86576040517f08c379a0000000000000000000000000000000000000000000000000000000008152600401610f7d90612124565b60405180910390fd5b600073ffffffffffffffffffffffffffffffffffffffff168273ffffffffffffffffffffffffffffffffffffffff1603610ff5576040517f08c379a0000000000000000000000000000000000000000000000000000000008152600401610fec906121b6565b60405180910390fd5b6110008383836114ba565b60008060008573ffffffffffffffffffffffffffffffffffffffff1673ffffffffffffffffffffffffffffffffffffffff16815260200190815260200160002054905081811015611086576040517f08c379a000000000000000000000000000000000000000000000000000000000815260040161107d90612248565b60405180910390fd5b8181036000808673ffffffffffffffffffffffffffffffffffffffff1673ffffffffffffffffffffffffffffffffffffffff16815260200190815260200160002081905550816000808573ffffffffffffffffffffffffffffffffffffffff1673ffffffffffffffffffffffffffffffffffffffff168152602001908152602001600020600082825401925050819055508273ffffffffffffffffffffffffffffffffffffffff168473ffffffffffffffffffffffffffffffffffffffff167fddf252ad1be2c89b69c2b068fc378daa952ba7f163c4a11628f55a4df523b3ef846040516111749190611a07565b60405180910390a36111878484846114bf565b50505050565b61119e81611199610cba565b6114c4565b50565b6111ab828261087d565b61127e5760016005600084815260200190815260200160002060000160008373ffffffffffffffffffffffffffffffffffffffff1673ffffffffffffffffffffffffffffffffffffffff16815260200190815260200160002060006101000a81548160ff021916908315150217905550611223610cba565b73ffffffffffffffffffffffffffffffffffffffff168173ffffffffffffffffffffffffffffffffffffffff16837f2f8788117e7eff1d82e926ec794901d17c78024a50270940304540a733656f0d60405160405180910390a45b5050565b61128c828261087d565b156113605760006005600084815260200190815260200160002060000160008373ffffffffffffffffffffffffffffffffffffffff1673ffffffffffffffffffffffffffffffffffffffff16815260200190815260200160002060006101000a81548160ff021916908315150217905550611305610cba565b73ffffffffffffffffffffffffffffffffffffffff168173ffffffffffffffffffffffffffffffffffffffff16837ff6391f5c32d9c69d2a47ea670b442974b53935d1edc7fd64eb21e047a839171b60405160405180910390a45b5050565b600073ffffffffffffffffffffffffffffffffffffffff168273ffffffffffffffffffffffffffffffffffffffff16036113d3576040517f08c379a00000000000000000000000000000000000000000000000000000000081526004016113ca906122b4565b60405180910390fd5b6113df600083836114ba565b80600260008282546113f19190611d07565b92505081905550806000808473ffffffffffffffffffffffffffffffffffffffff1673ffffffffffffffffffffffffffffffffffffffff168152602001908152602001600020600082825401925050819055508173ffffffffffffffffffffffffffffffffffffffff16600073ffffffffffffffffffffffffffffffffffffffff167fddf252ad1be2c89b69c2b068fc378daa952ba7f163c4a11628f55a4df523b3ef836040516114a29190611a07565b60405180910390a36114b6600083836114bf565b5050565b505050565b505050565b6114ce828261087d565b611545576114db81611549565b6114e98360001c6020611576565b6040516020016114fa9291906123a8565b6040516020818303038152906040526040517f08c379a000000000000000000000000000000000000000000000000000000000815260040161153c9190611902565b60405180910390fd5b5050565b606061156f8273ffffffffffffffffffffffffffffffffffffffff16601460ff16611576565b9050919050565b60606000600283600261158991906123e2565b6115939190611d07565b67ffffffffffffffff8111156115ac576115ab612424565b5b6040519080825280601f01601f1916602001820160405280156115de5781602001600182028036833780820191505090505b5090507f30000000000000000000000000000000000000000000000000000000000000008160008151811061161657611615612453565b5b60200101907effffffffffffffffffffffffffffffffffffffffffffffffffffffffffffff1916908160001a9053507f78000000000000000000000000000000000000000000000000000000000000008160018151811061167a57611679612453565b5b60200101907effffffffffffffffffffffffffffffffffffffffffffffffffffffffffffff1916908160001a905350600060018460026116ba91906123e2565b6116c49190611d07565b90505b6001811115611764577f3031323334353637383961626364656600000000000000000000000000000000600f86166010811061170657611705612453565b5b1a60f81b82828151811061171d5761171c612453565b5b60200101907effffffffffffffffffffffffffffffffffffffffffffffffffffffffffffff1916908160001a905350600485901c94508061175d90612482565b90506116c7565b50600084146117a8576040517f08c379a000000000000000000000000000000000000000000000000000000000815260040161179f906124f7565b60405180910390fd5b8091505092915050565b600080fd5b60007fffffffff0000000000000000000000000000000000000000000000000000000082169050919050565b6117ec816117b7565b81146117f757600080fd5b50565b600081359050611809816117e3565b92915050565b600060208284031215611825576118246117b2565b5b6000611833848285016117fa565b91505092915050565b60008115159050919050565b6118518161183c565b82525050565b600060208201905061186c6000830184611848565b92915050565b600081519050919050565b600082825260208201905092915050565b60005b838110156118ac578082015181840152602081019050611891565b60008484015250505050565b6000601f19601f8301169050919050565b60006118d482611872565b6118de818561187d565b93506118ee81856020860161188e565b6118f7816118b8565b840191505092915050565b6000602082019050818103600083015261191c81846118c9565b905092915050565b600073ffffffffffffffffffffffffffffffffffffffff82169050919050565b600061194f82611924565b9050919050565b61195f81611944565b811461196a57600080fd5b50565b60008135905061197c81611956565b92915050565b6000819050919050565b61199581611982565b81146119a057600080fd5b50565b6000813590506119b28161198c565b92915050565b600080604083850312156119cf576119ce6117b2565b5b60006119dd8582860161196d565b92505060206119ee858286016119a3565b9150509250929050565b611a0181611982565b82525050565b6000602082019050611a1c60008301846119f8565b92915050565b600080600060608486031215611a3b57611a3a6117b2565b5b6000611a498682870161196d565b9350506020611a5a8682870161196d565b9250506040611a6b868287016119a3565b9150509250925092565b6000819050919050565b611a8881611a75565b8114611a9357600080fd5b50565b600081359050611aa581611a7f565b92915050565b600060208284031215611ac157611ac06117b2565b5b6000611acf84828501611a96565b91505092915050565b611ae181611a75565b82525050565b6000602082019050611afc6000830184611ad8565b92915050565b600060208284031215611b1857611b176117b2565b5b6000611b268482850161196d565b91505092915050565b60008060408385031215611b4657611b456117b2565b5b6000611b5485828601611a96565b9250506020611b658582860161196d565b9150509250929050565b600060ff82169050919050565b611b8581611b6f565b82525050565b6000602082019050611ba06000830184611b7c565b92915050565b60008060408385031215611bbd57611bbc6117b2565b5b6000611bcb8582860161196d565b9250506020611bdc8582860161196d565b9150509250929050565b7f4e487b7100000000000000000000000000000000000000000000000000000000600052602260045260246000fd5b60006002820490506001821680611c2d57607f821691505b602082108103611c4057611c3f611be6565b5b50919050565b7f416363657373436f6e74726f6c3a2063616e206f6e6c792072656e6f756e636560008201527f20726f6c657320666f722073656c660000000000000000000000000000000000602082015250565b6000611ca2602f8361187d565b9150611cad82611c46565b604082019050919050565b60006020820190508181036000830152611cd181611c95565b9050919050565b7f4e487b7100000000000000000000000000000000000000000000000000000000600052601160045260246000fd5b6000611d1282611982565b9150611d1d83611982565b9250828201905080821115611d3557611d34611cd8565b5b92915050565b611d4481611944565b82525050565b6000602082019050611d5f6000830184611d3b565b92915050565b7f43616c6c6572206973206e6f742061206d696e74657200000000000000000000600082015250565b6000611d9b60168361187d565b9150611da682611d65565b602082019050919050565b60006020820190508181036000830152611dca81611d8e565b9050919050565b7f45524332303a2064656372656173656420616c6c6f77616e63652062656c6f7760008201527f207a65726f000000000000000000000000000000000000000000000000000000602082015250565b6000611e2d60258361187d565b9150611e3882611dd1565b604082019050919050565b60006020820190508181036000830152611e5c81611e20565b9050919050565b7f5265737472696374656420746f2061646d696e73000000000000000000000000600082015250565b6000611e9960148361187d565b9150611ea482611e63565b602082019050919050565b60006020820190508181036000830152611ec881611e8c565b9050919050565b600060a082019050611ee46000830188611d3b565b611ef16020830187611d3b565b611efe6040830186611ad8565b611f0b6060830185611ad8565b611f186080830184611ad8565b9695505050505050565b7f45524332303a20617070726f76652066726f6d20746865207a65726f2061646460008201527f7265737300000000000000000000000000000000000000000000000000000000602082015250565b6000611f7e60248361187d565b9150611f8982611f22565b604082019050919050565b60006020820190508181036000830152611fad81611f71565b9050919050565b7f45524332303a20617070726f766520746f20746865207a65726f20616464726560008201527f7373000000000000000000000000000000000000000000000000000000000000602082015250565b600061201060228361187d565b915061201b82611fb4565b604082019050919050565b6000602082019050818103600083015261203f81612003565b9050919050565b7f45524332303a20696e73756666696369656e7420616c6c6f77616e6365000000600082015250565b600061207c601d8361187d565b915061208782612046565b602082019050919050565b600060208201905081810360008301526120ab8161206f565b9050919050565b7f45524332303a207472616e736665722066726f6d20746865207a65726f20616460008201527f6472657373000000000000000000000000000000000000000000000000000000602082015250565b600061210e60258361187d565b9150612119826120b2565b604082019050919050565b6000602082019050818103600083015261213d81612101565b9050919050565b7f45524332303a207472616e7366657220746f20746865207a65726f206164647260008201527f6573730000000000000000000000000000000000000000000000000000000000602082015250565b60006121a060238361187d565b91506121ab82612144565b604082019050919050565b600060208201905081810360008301526121cf81612193565b9050919050565b7f45524332303a207472616e7366657220616d6f756e742065786365656473206260008201527f616c616e63650000000000000000000000000000000000000000000000000000602082015250565b600061223260268361187d565b915061223d826121d6565b604082019050919050565b6000602082019050818103600083015261226181612225565b9050919050565b7f45524332303a206d696e7420746f20746865207a65726f206164647265737300600082015250565b600061229e601f8361187d565b91506122a982612268565b602082019050919050565b600060208201905081810360008301526122cd81612291565b9050919050565b600081905092915050565b7f416363657373436f6e74726f6c3a206163636f756e7420000000000000000000600082015250565b60006123156017836122d4565b9150612320826122df565b601782019050919050565b600061233682611872565b61234081856122d4565b935061235081856020860161188e565b80840191505092915050565b7f206973206d697373696e6720726f6c6520000000000000000000000000000000600082015250565b60006123926011836122d4565b915061239d8261235c565b601182019050919050565b60006123b382612308565b91506123bf828561232b565b91506123ca82612385565b91506123d6828461232b565b91508190509392505050565b60006123ed82611982565b91506123f883611982565b925082820261240681611982565b9150828204841483151761241d5761241c611cd8565b5b5092915050565b7f4e487b7100000000000000000000000000000000000000000000000000000000600052604160045260246000fd5b7f4e487b7100000000000000000000000000000000000000000000000000000000600052603260045260246000fd5b600061248d82611982565b9150600082036124a05761249f611cd8565b5b600182039050919050565b7f537472696e67733a20686578206c656e67746820696e73756666696369656e74600082015250565b60006124e160208361187d565b91506124ec826124ab565b602082019050919050565b60006020820190508181036000830152612510816124d4565b905091905056fea2646970667358221220de41cb4dbbaed8a6a3fff454c76aeb32ffa8f9b5a3b60921cca7730c923387b864736f6c63430008110033",
  "immutableReferences": {},
  "source": "pragma solidity ^0.8.0;\r\n\r\nimport \"@openzeppelin/contracts/token/ERC20/ERC20.sol\";\r\nimport \"@openzeppelin/contracts/access/AccessControl.sol\";\r\n\r\ncontract TutorialToken_AC is ERC20, AccessControl {\r\n   bytes32 public constant MINTER_ROLE = keccak256(\"MINTER_ROLE\");\r\n\r\n   constructor(\r\n        string memory name,\r\n        string memory symbol,\r\n        uint256 initialSupply) ERC20(name, symbol) {\r\n      _mint(msg.sender, initialSupply);\r\n      _setupRole(DEFAULT_ADMIN_ROLE, msg.sender);\r\n      _setRoleAdmin(MINTER_ROLE, DEFAULT_ADMIN_ROLE);\r\n   }\r\n\r\n   event Debug(address user, address sender, bytes32 role, bytes32 adminRole, bytes32 senderRole);\r\n   event ChecksoloAdmin(address user);\r\n   event ChecksoloMinters(address user);\r\n\r\n   modifier soloAdmin() {\r\n      emit ChecksoloAdmin(msg.sender);\r\n      require(isAdmin(msg.sender), \"Restricted to admins\");\r\n      _;\r\n   }\r\n\r\n   modifier soloMinters() {\r\n      emit ChecksoloMinters(msg.sender);\r\n      require(isMinter(msg.sender), \"Caller is not a minter\");\r\n      _;\r\n   }\r\n\r\n   function isAdmin(address account) public virtual view returns (bool) {\r\n      return hasRole(DEFAULT_ADMIN_ROLE, account);\r\n   }\r\n\r\n   function isMinter(address account) public virtual view returns (bool) {\r\n      return hasRole(MINTER_ROLE, account);\r\n   }\r\n\r\n   function mint(address to, uint256 amount) public soloMinters {\r\n      _mint(to, amount);\r\n    }\r\n\r\n    function addMinterRole(address to) public soloAdmin {\r\n      emit Debug(to, msg.sender, MINTER_ROLE, getRoleAdmin(MINTER_ROLE), DEFAULT_ADMIN_ROLE);\r\n      grantRole(MINTER_ROLE, to);\r\n    }\r\n\r\n    function removeMinterRole (address to) public {\r\n      renounceRole(MINTER_ROLE, to);\r\n    }\r\n\r\n  \r\n\r\n\r\n}\r\n\r\n",
  "sourcePath": "C:\\Users\\smuto\\Desktop\\Test\\contracts\\TutorialToken_AC.sol",
  "compiler": {
    "name": "solc",
    "version": "0.8.17+commit.8df45f5f.Emscripten.clang"
  },
  "schemaVersion": "3.4.11",
  "updatedAt": "2023-01-23T16:35:05.167Z",
  "devdoc": {
    "kind": "dev",
    "methods": {
      "allowance(address,address)": {
        "details": "See {IERC20-allowance}."
      },
      "approve(address,uint256)": {
        "details": "See {IERC20-approve}. NOTE: If `amount` is the maximum `uint256`, the allowance is not updated on `transferFrom`. This is semantically equivalent to an infinite approval. Requirements: - `spender` cannot be the zero address."
      },
      "balanceOf(address)": {
        "details": "See {IERC20-balanceOf}."
      },
      "decimals()": {
        "details": "Returns the number of decimals used to get its user representation. For example, if `decimals` equals `2`, a balance of `505` tokens should be displayed to a user as `5.05` (`505 / 10 ** 2`). Tokens usually opt for a value of 18, imitating the relationship between Ether and Wei. This is the value {ERC20} uses, unless this function is overridden; NOTE: This information is only used for _display_ purposes: it in no way affects any of the arithmetic of the contract, including {IERC20-balanceOf} and {IERC20-transfer}."
      },
      "decreaseAllowance(address,uint256)": {
        "details": "Atomically decreases the allowance granted to `spender` by the caller. This is an alternative to {approve} that can be used as a mitigation for problems described in {IERC20-approve}. Emits an {Approval} event indicating the updated allowance. Requirements: - `spender` cannot be the zero address. - `spender` must have allowance for the caller of at least `subtractedValue`."
      },
      "getRoleAdmin(bytes32)": {
        "details": "Returns the admin role that controls `role`. See {grantRole} and {revokeRole}. To change a role's admin, use {_setRoleAdmin}."
      },
      "grantRole(bytes32,address)": {
        "details": "Grants `role` to `account`. If `account` had not been already granted `role`, emits a {RoleGranted} event. Requirements: - the caller must have ``role``'s admin role. May emit a {RoleGranted} event."
      },
      "hasRole(bytes32,address)": {
        "details": "Returns `true` if `account` has been granted `role`."
      },
      "increaseAllowance(address,uint256)": {
        "details": "Atomically increases the allowance granted to `spender` by the caller. This is an alternative to {approve} that can be used as a mitigation for problems described in {IERC20-approve}. Emits an {Approval} event indicating the updated allowance. Requirements: - `spender` cannot be the zero address."
      },
      "name()": {
        "details": "Returns the name of the token."
      },
      "renounceRole(bytes32,address)": {
        "details": "Revokes `role` from the calling account. Roles are often managed via {grantRole} and {revokeRole}: this function's purpose is to provide a mechanism for accounts to lose their privileges if they are compromised (such as when a trusted device is misplaced). If the calling account had been revoked `role`, emits a {RoleRevoked} event. Requirements: - the caller must be `account`. May emit a {RoleRevoked} event."
      },
      "revokeRole(bytes32,address)": {
        "details": "Revokes `role` from `account`. If `account` had been granted `role`, emits a {RoleRevoked} event. Requirements: - the caller must have ``role``'s admin role. May emit a {RoleRevoked} event."
      },
      "supportsInterface(bytes4)": {
        "details": "See {IERC165-supportsInterface}."
      },
      "symbol()": {
        "details": "Returns the symbol of the token, usually a shorter version of the name."
      },
      "totalSupply()": {
        "details": "See {IERC20-totalSupply}."
      },
      "transfer(address,uint256)": {
        "details": "See {IERC20-transfer}. Requirements: - `to` cannot be the zero address. - the caller must have a balance of at least `amount`."
      },
      "transferFrom(address,address,uint256)": {
        "details": "See {IERC20-transferFrom}. Emits an {Approval} event indicating the updated allowance. This is not required by the EIP. See the note at the beginning of {ERC20}. NOTE: Does not update the allowance if the current allowance is the maximum `uint256`. Requirements: - `from` and `to` cannot be the zero address. - `from` must have a balance of at least `amount`. - the caller must have allowance for ``from``'s tokens of at least `amount`."
      }
    },
    "version": 1
  },
  "userdoc": {
    "kind": "user",
    "methods": {},
    "version": 1
  }
}