{
  "contractName": "TutorialToken_AC",
  "abi": [
    {
      "inputs": [
        {
          "internalType": "string",
          "name": "name",
          "type": "string"
        },
        {
          "internalType": "string",
          "name": "symbol",
          "type": "string"
        },
        {
          "internalType": "uint256",
          "name": "initialSupply",
          "type": "uint256"
        }
      ],
      "stateMutability": "nonpayable",
      "type": "constructor"
    },
    {
      "anonymous": false,
      "inputs": [
        {
          "indexed": true,
          "internalType": "address",
          "name": "owner",
          "type": "address"
        },
        {
          "indexed": true,
          "internalType": "address",
          "name": "spender",
          "type": "address"
        },
        {
          "indexed": false,
          "internalType": "uint256",
          "name": "value",
          "type": "uint256"
        }
      ],
      "name": "Approval",
      "type": "event"
    },
    {
      "anonymous": false,
      "inputs": [
        {
          "indexed": false,
          "internalType": "address",
          "name": "user",
          "type": "address"
        }
      ],
      "name": "ChecksoloAdmin",
      "type": "event"
    },
    {
      "anonymous": false,
      "inputs": [
        {
          "indexed": false,
          "internalType": "address",
          "name": "user",
          "type": "address"
        }
      ],
      "name": "ChecksoloMinters",
      "type": "event"
    },
    {
      "anonymous": false,
      "inputs": [
        {
          "indexed": false,
          "internalType": "address",
          "name": "user",
          "type": "address"
        },
        {
          "indexed": false,
          "internalType": "address",
          "name": "sender",
          "type": "address"
        },
        {
          "indexed": false,
          "internalType": "bytes32",
          "name": "role",
          "type": "bytes32"
        },
        {
          "indexed": false,
          "internalType": "bytes32",
          "name": "adminRole",
          "type": "bytes32"
        },
        {
          "indexed": false,
          "internalType": "bytes32",
          "name": "senderRole",
          "type": "bytes32"
        }
      ],
      "name": "Debug",
      "type": "event"
    },
    {
      "anonymous": false,
      "inputs": [
        {
          "indexed": true,
          "internalType": "bytes32",
          "name": "role",
          "type": "bytes32"
        },
        {
          "indexed": true,
          "internalType": "bytes32",
          "name": "previousAdminRole",
          "type": "bytes32"
        },
        {
          "indexed": true,
          "internalType": "bytes32",
          "name": "newAdminRole",
          "type": "bytes32"
        }
      ],
      "name": "RoleAdminChanged",
      "type": "event"
    },
    {
      "anonymous": false,
      "inputs": [
        {
          "indexed": true,
          "internalType": "bytes32",
          "name": "role",
          "type": "bytes32"
        },
        {
          "indexed": true,
          "internalType": "address",
          "name": "account",
          "type": "address"
        },
        {
          "indexed": true,
          "internalType": "address",
          "name": "sender",
          "type": "address"
        }
      ],
      "name": "RoleGranted",
      "type": "event"
    },
    {
      "anonymous": false,
      "inputs": [
        {
          "indexed": true,
          "internalType": "bytes32",
          "name": "role",
          "type": "bytes32"
        },
        {
          "indexed": true,
          "internalType": "address",
          "name": "account",
          "type": "address"
        },
        {
          "indexed": true,
          "internalType": "address",
          "name": "sender",
          "type": "address"
        }
      ],
      "name": "RoleRevoked",
      "type": "event"
    },
    {
      "anonymous": false,
      "inputs": [
        {
          "indexed": true,
          "internalType": "address",
          "name": "from",
          "type": "address"
        },
        {
          "indexed": true,
          "internalType": "address",
          "name": "to",
          "type": "address"
        },
        {
          "indexed": false,
          "internalType": "uint256",
          "name": "value",
          "type": "uint256"
        }
      ],
      "name": "Transfer",
      "type": "event"
    },
    {
      "inputs": [],
      "name": "DEFAULT_ADMIN_ROLE",
      "outputs": [
        {
          "internalType": "bytes32",
          "name": "",
          "type": "bytes32"
        }
      ],
      "stateMutability": "view",
      "type": "function",
      "constant": true
    },
    {
      "inputs": [],
      "name": "MINTER_ROLE",
      "outputs": [
        {
          "internalType": "bytes32",
          "name": "",
          "type": "bytes32"
        }
      ],
      "stateMutability": "view",
      "type": "function",
      "constant": true
    },
    {
      "inputs": [
        {
          "internalType": "address",
          "name": "owner",
          "type": "address"
        },
        {
          "internalType": "address",
          "name": "spender",
          "type": "address"
        }
      ],
      "name": "allowance",
      "outputs": [
        {
          "internalType": "uint256",
          "name": "",
          "type": "uint256"
        }
      ],
      "stateMutability": "view",
      "type": "function",
      "constant": true
    },
    {
      "inputs": [
        {
          "internalType": "address",
          "name": "spender",
          "type": "address"
        },
        {
          "internalType": "uint256",
          "name": "amount",
          "type": "uint256"
        }
      ],
      "name": "approve",
      "outputs": [
        {
          "internalType": "bool",
          "name": "",
          "type": "bool"
        }
      ],
      "stateMutability": "nonpayable",
      "type": "function"
    },
    {
      "inputs": [
        {
          "internalType": "address",
          "name": "account",
          "type": "address"
        }
      ],
      "name": "balanceOf",
      "outputs": [
        {
          "internalType": "uint256",
          "name": "",
          "type": "uint256"
        }
      ],
      "stateMutability": "view",
      "type": "function",
      "constant": true
    },
    {
      "inputs": [],
      "name": "decimals",
      "outputs": [
        {
          "internalType": "uint8",
          "name": "",
          "type": "uint8"
        }
      ],
      "stateMutability": "view",
      "type": "function",
      "constant": true
    },
    {
      "inputs": [
        {
          "internalType": "address",
          "name": "spender",
          "type": "address"
        },
        {
          "internalType": "uint256",
          "name": "subtractedValue",
          "type": "uint256"
        }
      ],
      "name": "decreaseAllowance",
      "outputs": [
        {
          "internalType": "bool",
          "name": "",
          "type": "bool"
        }
      ],
      "stateMutability": "nonpayable",
      "type": "function"
    },
    {
      "inputs": [
        {
          "internalType": "bytes32",
          "name": "role",
          "type": "bytes32"
        }
      ],
      "name": "getRoleAdmin",
      "outputs": [
        {
          "internalType": "bytes32",
          "name": "",
          "type": "bytes32"
        }
      ],
      "stateMutability": "view",
      "type": "function",
      "constant": true
    },
    {
      "inputs": [
        {
          "internalType": "bytes32",
          "name": "role",
          "type": "bytes32"
        },
        {
          "internalType": "address",
          "name": "account",
          "type": "address"
        }
      ],
      "name": "grantRole",
      "outputs": [],
      "stateMutability": "nonpayable",
      "type": "function"
    },
    {
      "inputs": [
        {
          "internalType": "bytes32",
          "name": "role",
          "type": "bytes32"
        },
        {
          "internalType": "address",
          "name": "account",
          "type": "address"
        }
      ],
      "name": "hasRole",
      "outputs": [
        {
          "internalType": "bool",
          "name": "",
          "type": "bool"
        }
      ],
      "stateMutability": "view",
      "type": "function",
      "constant": true
    },
    {
      "inputs": [
        {
          "internalType": "address",
          "name": "spender",
          "type": "address"
        },
        {
          "internalType": "uint256",
          "name": "addedValue",
          "type": "uint256"
        }
      ],
      "name": "increaseAllowance",
      "outputs": [
        {
          "internalType": "bool",
          "name": "",
          "type": "bool"
        }
      ],
      "stateMutability": "nonpayable",
      "type": "function"
    },
    {
      "inputs": [],
      "name": "name",
      "outputs": [
        {
          "internalType": "string",
          "name": "",
          "type": "string"
        }
      ],
      "stateMutability": "view",
      "type": "function",
      "constant": true
    },
    {
      "inputs": [
        {
          "internalType": "uint256",
          "name": "",
          "type": "uint256"
        }
      ],
      "name": "products",
      "outputs": [
        {
          "internalType": "uint256",
          "name": "id",
          "type": "uint256"
        },
        {
          "internalType": "string",
          "name": "picture",
          "type": "string"
        },
        {
          "internalType": "string",
          "name": "name",
          "type": "string"
        },
        {
          "internalType": "uint256",
          "name": "price",
          "type": "uint256"
        },
        {
          "internalType": "string",
          "name": "console",
          "type": "string"
        }
      ],
      "stateMutability": "view",
      "type": "function",
      "constant": true
    },
    {
      "inputs": [
        {
          "internalType": "bytes32",
          "name": "role",
          "type": "bytes32"
        },
        {
          "internalType": "address",
          "name": "account",
          "type": "address"
        }
      ],
      "name": "renounceRole",
      "outputs": [],
      "stateMutability": "nonpayable",
      "type": "function"
    },
    {
      "inputs": [
        {
          "internalType": "bytes32",
          "name": "role",
          "type": "bytes32"
        },
        {
          "internalType": "address",
          "name": "account",
          "type": "address"
        }
      ],
      "name": "revokeRole",
      "outputs": [],
      "stateMutability": "nonpayable",
      "type": "function"
    },
    {
      "inputs": [
        {
          "internalType": "bytes4",
          "name": "interfaceId",
          "type": "bytes4"
        }
      ],
      "name": "supportsInterface",
      "outputs": [
        {
          "internalType": "bool",
          "name": "",
          "type": "bool"
        }
      ],
      "stateMutability": "view",
      "type": "function",
      "constant": true
    },
    {
      "inputs": [],
      "name": "symbol",
      "outputs": [
        {
          "internalType": "string",
          "name": "",
          "type": "string"
        }
      ],
      "stateMutability": "view",
      "type": "function",
      "constant": true
    },
    {
      "inputs": [],
      "name": "totalSupply",
      "outputs": [
        {
          "internalType": "uint256",
          "name": "",
          "type": "uint256"
        }
      ],
      "stateMutability": "view",
      "type": "function",
      "constant": true
    },
    {
      "inputs": [
        {
          "internalType": "address",
          "name": "to",
          "type": "address"
        },
        {
          "internalType": "uint256",
          "name": "amount",
          "type": "uint256"
        }
      ],
      "name": "transfer",
      "outputs": [
        {
          "internalType": "bool",
          "name": "",
          "type": "bool"
        }
      ],
      "stateMutability": "nonpayable",
      "type": "function"
    },
    {
      "inputs": [
        {
          "internalType": "address",
          "name": "from",
          "type": "address"
        },
        {
          "internalType": "address",
          "name": "to",
          "type": "address"
        },
        {
          "internalType": "uint256",
          "name": "amount",
          "type": "uint256"
        }
      ],
      "name": "transferFrom",
      "outputs": [
        {
          "internalType": "bool",
          "name": "",
          "type": "bool"
        }
      ],
      "stateMutability": "nonpayable",
      "type": "function"
    },
    {
      "inputs": [],
      "name": "preloadProduct",
      "outputs": [],
      "stateMutability": "nonpayable",
      "type": "function"
    },
    {
      "inputs": [
        {
          "internalType": "uint256",
          "name": "_index",
          "type": "uint256"
        }
      ],
      "name": "getProductId",
      "outputs": [
        {
          "internalType": "uint256",
          "name": "id",
          "type": "uint256"
        },
        {
          "internalType": "string",
          "name": "picture",
          "type": "string"
        },
        {
          "internalType": "string",
          "name": "name",
          "type": "string"
        },
        {
          "internalType": "uint256",
          "name": "price",
          "type": "uint256"
        },
        {
          "internalType": "string",
          "name": "console",
          "type": "string"
        }
      ],
      "stateMutability": "view",
      "type": "function",
      "constant": true
    },
    {
      "inputs": [],
      "name": "getAllProduct",
      "outputs": [
        {
          "components": [
            {
              "internalType": "uint256",
              "name": "id",
              "type": "uint256"
            },
            {
              "internalType": "string",
              "name": "picture",
              "type": "string"
            },
            {
              "internalType": "string",
              "name": "name",
              "type": "string"
            },
            {
              "internalType": "uint256",
              "name": "price",
              "type": "uint256"
            },
            {
              "internalType": "string",
              "name": "console",
              "type": "string"
            }
          ],
          "internalType": "struct TutorialToken_AC.Product[]",
          "name": "",
          "type": "tuple[]"
        }
      ],
      "stateMutability": "view",
      "type": "function",
      "constant": true
    },
    {
      "inputs": [],
      "name": "getLenghtProduct",
      "outputs": [
        {
          "internalType": "uint256",
          "name": "num",
          "type": "uint256"
        }
      ],
      "stateMutability": "view",
      "type": "function",
      "constant": true
    },
    {
      "inputs": [
        {
          "internalType": "uint256",
          "name": "amount",
          "type": "uint256"
        }
      ],
      "name": "buyProduct",
      "outputs": [
        {
          "internalType": "bool",
          "name": "",
          "type": "bool"
        }
      ],
      "stateMutability": "nonpayable",
      "type": "function"
    },
    {
      "inputs": [
        {
          "internalType": "address",
          "name": "account",
          "type": "address"
        }
      ],
      "name": "isAdmin",
      "outputs": [
        {
          "internalType": "bool",
          "name": "",
          "type": "bool"
        }
      ],
      "stateMutability": "view",
      "type": "function",
      "constant": true
    },
    {
      "inputs": [
        {
          "internalType": "address",
          "name": "account",
          "type": "address"
        }
      ],
      "name": "isMinter",
      "outputs": [
        {
          "internalType": "bool",
          "name": "",
          "type": "bool"
        }
      ],
      "stateMutability": "view",
      "type": "function",
      "constant": true
    },
    {
      "inputs": [],
      "name": "showOwner",
      "outputs": [
        {
          "internalType": "address",
          "name": "",
          "type": "address"
        }
      ],
      "stateMutability": "view",
      "type": "function",
      "constant": true
    },
    {
      "inputs": [
        {
          "internalType": "address",
          "name": "to",
          "type": "address"
        },
        {
          "internalType": "uint256",
          "name": "amount",
          "type": "uint256"
        }
      ],
      "name": "mint",
      "outputs": [],
      "stateMutability": "nonpayable",
      "type": "function"
    },
    {
      "inputs": [
        {
          "internalType": "address",
          "name": "to",
          "type": "address"
        }
      ],
      "name": "addMinterRole",
      "outputs": [],
      "stateMutability": "nonpayable",
      "type": "function"
    },
    {
      "inputs": [
        {
          "internalType": "address",
          "name": "to",
          "type": "address"
        }
      ],
      "name": "removeMinterRole",
      "outputs": [],
      "stateMutability": "nonpayable",
      "type": "function"
    }
  ],
  "bytecode": "0x60806040523480156200001157600080fd5b5060405162004532380380620045328339818101604052810190620000379190620008fd565b828281600390816200004a919062000bd8565b5080600490816200005c919062000bd8565b5050506200007133826200011560201b60201c565b33600660006101000a81548173ffffffffffffffffffffffffffffffffffffffff021916908373ffffffffffffffffffffffffffffffffffffffff160217905550620000c76000801b336200028260201b60201c565b620000fc7f9f2df0fed2c77648de5860a4cc508cd0818c85b8b8a1ab4ceeef8d981c8956a66000801b6200029860201b60201c565b6200010c620002fc60201b60201c565b50505062000dda565b600073ffffffffffffffffffffffffffffffffffffffff168273ffffffffffffffffffffffffffffffffffffffff160362000187576040517f08c379a00000000000000000000000000000000000000000000000000000000081526004016200017e9062000d20565b60405180910390fd5b6200019b60008383620005a060201b60201c565b8060026000828254620001af919062000d71565b92505081905550806000808473ffffffffffffffffffffffffffffffffffffffff1673ffffffffffffffffffffffffffffffffffffffff168152602001908152602001600020600082825401925050819055508173ffffffffffffffffffffffffffffffffffffffff16600073ffffffffffffffffffffffffffffffffffffffff167fddf252ad1be2c89b69c2b068fc378daa952ba7f163c4a11628f55a4df523b3ef8360405162000262919062000dbd565b60405180910390a36200027e60008383620005a560201b60201c565b5050565b620002948282620005aa60201b60201c565b5050565b6000620002ab836200069c60201b60201c565b90508160056000858152602001908152602001600020600101819055508181847fbd79b86ffe0ab8e8776151514217cd7cacd52c909f66475c3af44e129f0b00ff60405160405180910390a4505050565b60076040518060a00160405280600081526020016040518060400160405280600c81526020017f546573742070696374757265000000000000000000000000000000000000000081525081526020016040518060400160405280600481526020017f6e616d65000000000000000000000000000000000000000000000000000000008152508152602001600381526020016040518060400160405280600781526020017f636f6e736f6c6500000000000000000000000000000000000000000000000000815250815250908060018154018082558091505060019003906000526020600020906005020160009091909190915060008201518160000155602082015181600101908162000410919062000bd8565b50604082015181600201908162000428919062000bd8565b506060820151816003015560808201518160040190816200044a919062000bd8565b50505060076040518060a00160405280600181526020016040518060400160405280600d81526020017f546573742070696374757265310000000000000000000000000000000000000081525081526020016040518060400160405280600581526020017f6e616d65310000000000000000000000000000000000000000000000000000008152508152602001600481526020016040518060400160405280600881526020017f636f6e736f6c6531000000000000000000000000000000000000000000000000815250815250908060018154018082558091505060019003906000526020600020906005020160009091909190915060008201518160000155602082015181600101908162000561919062000bd8565b50604082015181600201908162000579919062000bd8565b506060820151816003015560808201518160040190816200059b919062000bd8565b505050565b505050565b505050565b620005bc8282620006bc60201b60201c565b620006985760016005600084815260200190815260200160002060000160008373ffffffffffffffffffffffffffffffffffffffff1673ffffffffffffffffffffffffffffffffffffffff16815260200190815260200160002060006101000a81548160ff0219169083151502179055506200063d6200072760201b60201c565b73ffffffffffffffffffffffffffffffffffffffff168173ffffffffffffffffffffffffffffffffffffffff16837f2f8788117e7eff1d82e926ec794901d17c78024a50270940304540a733656f0d60405160405180910390a45b5050565b600060056000838152602001908152602001600020600101549050919050565b60006005600084815260200190815260200160002060000160008373ffffffffffffffffffffffffffffffffffffffff1673ffffffffffffffffffffffffffffffffffffffff16815260200190815260200160002060009054906101000a900460ff16905092915050565b600033905090565b6000604051905090565b600080fd5b600080fd5b600080fd5b600080fd5b6000601f19601f8301169050919050565b7f4e487b7100000000000000000000000000000000000000000000000000000000600052604160045260246000fd5b62000798826200074d565b810181811067ffffffffffffffff82111715620007ba57620007b96200075e565b5b80604052505050565b6000620007cf6200072f565b9050620007dd82826200078d565b919050565b600067ffffffffffffffff8211156200080057620007ff6200075e565b5b6200080b826200074d565b9050602081019050919050565b60005b83811015620008385780820151818401526020810190506200081b565b60008484015250505050565b60006200085b6200085584620007e2565b620007c3565b9050828152602081018484840111156200087a576200087962000748565b5b6200088784828562000818565b509392505050565b600082601f830112620008a757620008a662000743565b5b8151620008b984826020860162000844565b91505092915050565b6000819050919050565b620008d781620008c2565b8114620008e357600080fd5b50565b600081519050620008f781620008cc565b92915050565b60008060006060848603121562000919576200091862000739565b5b600084015167ffffffffffffffff8111156200093a57620009396200073e565b5b62000948868287016200088f565b935050602084015167ffffffffffffffff8111156200096c576200096b6200073e565b5b6200097a868287016200088f565b92505060406200098d86828701620008e6565b9150509250925092565b600081519050919050565b7f4e487b7100000000000000000000000000000000000000000000000000000000600052602260045260246000fd5b60006002820490506001821680620009ea57607f821691505b60208210810362000a0057620009ff620009a2565b5b50919050565b60008190508160005260206000209050919050565b60006020601f8301049050919050565b600082821b905092915050565b60006008830262000a6a7fffffffffffffffffffffffffffffffffffffffffffffffffffffffffffffffff8262000a2b565b62000a76868362000a2b565b95508019841693508086168417925050509392505050565b6000819050919050565b600062000ab962000ab362000aad84620008c2565b62000a8e565b620008c2565b9050919050565b6000819050919050565b62000ad58362000a98565b62000aed62000ae48262000ac0565b84845462000a38565b825550505050565b600090565b62000b0462000af5565b62000b1181848462000aca565b505050565b5b8181101562000b395762000b2d60008262000afa565b60018101905062000b17565b5050565b601f82111562000b885762000b528162000a06565b62000b5d8462000a1b565b8101602085101562000b6d578190505b62000b8562000b7c8562000a1b565b83018262000b16565b50505b505050565b600082821c905092915050565b600062000bad6000198460080262000b8d565b1980831691505092915050565b600062000bc8838362000b9a565b9150826002028217905092915050565b62000be38262000997565b67ffffffffffffffff81111562000bff5762000bfe6200075e565b5b62000c0b8254620009d1565b62000c1882828562000b3d565b600060209050601f83116001811462000c50576000841562000c3b578287015190505b62000c47858262000bba565b86555062000cb7565b601f19841662000c608662000a06565b60005b8281101562000c8a5784890151825560018201915060208501945060208101905062000c63565b8683101562000caa578489015162000ca6601f89168262000b9a565b8355505b6001600288020188555050505b505050505050565b600082825260208201905092915050565b7f45524332303a206d696e7420746f20746865207a65726f206164647265737300600082015250565b600062000d08601f8362000cbf565b915062000d158262000cd0565b602082019050919050565b6000602082019050818103600083015262000d3b8162000cf9565b9050919050565b7f4e487b7100000000000000000000000000000000000000000000000000000000600052601160045260246000fd5b600062000d7e82620008c2565b915062000d8b83620008c2565b925082820190508082111562000da65762000da562000d42565b5b92915050565b62000db781620008c2565b82525050565b600060208201905062000dd4600083018462000dac565b92915050565b6137488062000dea6000396000f3fe608060405234801561001057600080fd5b50600436106101e55760003560e01c80637acc0b201161010f578063a9059cbb116100a2578063d539139311610071578063d5391393146105fa578063d547741f14610618578063dd62ed3e14610634578063ded9468814610664576101e5565b8063a9059cbb14610560578063aa271e1a14610590578063adbf3776146105c0578063d055a75f146105dc576101e5565b80639a743b3a116100de5780639a743b3a146104d45780639f77a605146104de578063a217fddf14610512578063a457c2d714610530576101e5565b80637acc0b20146104225780638642269e1461045657806391d148541461048657806395d89b41146104b6576101e5565b806324d7806c116101875780633950935111610156578063395093511461038a57806340c10f19146103ba57806354f1e126146103d657806370a08231146103f2576101e5565b806324d7806c146103045780632f2ff15d14610334578063313ce5671461035057806336568abe1461036e576101e5565b8063151e4499116101c3578063151e44991461026857806318160ddd1461028657806323b872dd146102a4578063248a9ca3146102d4576101e5565b806301ffc9a7146101ea57806306fdde031461021a578063095ea7b314610238575b600080fd5b61020460048036038101906101ff9190612536565b610682565b604051610211919061257e565b60405180910390f35b6102226106fc565b60405161022f9190612629565b60405180910390f35b610252600480360381019061024d91906126df565b61078e565b60405161025f919061257e565b60405180910390f35b6102706107b1565b60405161027d919061272e565b60405180910390f35b61028e6107be565b60405161029b919061272e565b60405180910390f35b6102be60048036038101906102b99190612749565b6107c8565b6040516102cb919061257e565b60405180910390f35b6102ee60048036038101906102e991906127d2565b6107f7565b6040516102fb919061280e565b60405180910390f35b61031e60048036038101906103199190612829565b610817565b60405161032b919061257e565b60405180910390f35b61034e60048036038101906103499190612856565b61082d565b005b61035861084e565b60405161036591906128b2565b60405180910390f35b61038860048036038101906103839190612856565b610857565b005b6103a4600480360381019061039f91906126df565b6108da565b6040516103b1919061257e565b60405180910390f35b6103d460048036038101906103cf91906126df565b610911565b005b6103f060048036038101906103eb9190612829565b61099e565b005b61040c60048036038101906104079190612829565b6109cb565b604051610419919061272e565b60405180910390f35b61043c600480360381019061043791906128cd565b610a13565b60405161044d9594939291906128fa565b60405180910390f35b610470600480360381019061046b91906128cd565b610bf1565b60405161047d919061257e565b60405180910390f35b6104a0600480360381019061049b9190612856565b610c26565b6040516104ad919061257e565b60405180910390f35b6104be610c91565b6040516104cb9190612629565b60405180910390f35b6104dc610d23565b005b6104f860048036038101906104f391906128cd565b610fbb565b6040516105099594939291906128fa565b60405180910390f35b61051a6111b8565b604051610527919061280e565b60405180910390f35b61054a600480360381019061054591906126df565b6111bf565b604051610557919061257e565b60405180910390f35b61057a600480360381019061057591906126df565b611236565b604051610587919061257e565b60405180910390f35b6105aa60048036038101906105a59190612829565b611259565b6040516105b7919061257e565b60405180910390f35b6105da60048036038101906105d59190612829565b61128c565b005b6105e46113c2565b6040516105f19190612b01565b60405180910390f35b610602611852565b60405161060f919061280e565b60405180910390f35b610632600480360381019061062d9190612856565b611876565b005b61064e60048036038101906106499190612b23565b611897565b60405161065b919061272e565b60405180910390f35b61066c61191e565b6040516106799190612b72565b60405180910390f35b60007f7965db0b000000000000000000000000000000000000000000000000000000007bffffffffffffffffffffffffffffffffffffffffffffffffffffffff1916827bffffffffffffffffffffffffffffffffffffffffffffffffffffffff191614806106f557506106f482611948565b5b9050919050565b60606003805461070b90612bbc565b80601f016020809104026020016040519081016040528092919081815260200182805461073790612bbc565b80156107845780601f1061075957610100808354040283529160200191610784565b820191906000526020600020905b81548152906001019060200180831161076757829003601f168201915b5050505050905090565b6000806107996119b2565b90506107a68185856119ba565b600191505092915050565b6000600780549050905090565b6000600254905090565b6000806107d36119b2565b90506107e0858285611b83565b6107eb858585611c0f565b60019150509392505050565b600060056000838152602001908152602001600020600101549050919050565b60006108266000801b83610c26565b9050919050565b610836826107f7565b61083f81611e85565b6108498383611e99565b505050565b60006012905090565b61085f6119b2565b73ffffffffffffffffffffffffffffffffffffffff168173ffffffffffffffffffffffffffffffffffffffff16146108cc576040517f08c379a00000000000000000000000000000000000000000000000000000000081526004016108c390612c5f565b60405180910390fd5b6108d68282611f7a565b5050565b6000806108e56119b2565b90506109068185856108f78589611897565b6109019190612cae565b6119ba565b600191505092915050565b7f30961df266e1c49061f4de998a0d33e0a256c0b6b9a896ed98ac9293063b7cc7336040516109409190612b72565b60405180910390a161095133611259565b610990576040517f08c379a000000000000000000000000000000000000000000000000000000000815260040161098790612d2e565b60405180910390fd5b61099a828261205c565b5050565b6109c87f9f2df0fed2c77648de5860a4cc508cd0818c85b8b8a1ab4ceeef8d981c8956a682610857565b50565b60008060008373ffffffffffffffffffffffffffffffffffffffff1673ffffffffffffffffffffffffffffffffffffffff168152602001908152602001600020549050919050565b60078181548110610a2357600080fd5b9060005260206000209060050201600091509050806000015490806001018054610a4c90612bbc565b80601f0160208091040260200160405190810160405280929190818152602001828054610a7890612bbc565b8015610ac55780601f10610a9a57610100808354040283529160200191610ac5565b820191906000526020600020905b815481529060010190602001808311610aa857829003601f168201915b505050505090806002018054610ada90612bbc565b80601f0160208091040260200160405190810160405280929190818152602001828054610b0690612bbc565b8015610b535780601f10610b2857610100808354040283529160200191610b53565b820191906000526020600020905b815481529060010190602001808311610b3657829003601f168201915b505050505090806003015490806004018054610b6e90612bbc565b80601f0160208091040260200160405190810160405280929190818152602001828054610b9a90612bbc565b8015610be75780601f10610bbc57610100808354040283529160200191610be7565b820191906000526020600020905b815481529060010190602001808311610bca57829003601f168201915b5050505050905085565b6000610c1f600660009054906101000a900473ffffffffffffffffffffffffffffffffffffffff1683611236565b9050919050565b60006005600084815260200190815260200160002060000160008373ffffffffffffffffffffffffffffffffffffffff1673ffffffffffffffffffffffffffffffffffffffff16815260200190815260200160002060009054906101000a900460ff16905092915050565b606060048054610ca090612bbc565b80601f0160208091040260200160405190810160405280929190818152602001828054610ccc90612bbc565b8015610d195780601f10610cee57610100808354040283529160200191610d19565b820191906000526020600020905b815481529060010190602001808311610cfc57829003601f168201915b5050505050905090565b60076040518060a00160405280600081526020016040518060400160405280600c81526020017f546573742070696374757265000000000000000000000000000000000000000081525081526020016040518060400160405280600481526020017f6e616d65000000000000000000000000000000000000000000000000000000008152508152602001600381526020016040518060400160405280600781526020017f636f6e736f6c65000000000000000000000000000000000000000000000000008152508152509080600181540180825580915050600190039060005260206000209060050201600090919091909150600082015181600001556020820151816001019081610e359190612f29565b506040820151816002019081610e4b9190612f29565b50606082015181600301556080820151816004019081610e6b9190612f29565b50505060076040518060a00160405280600181526020016040518060400160405280600d81526020017f546573742070696374757265310000000000000000000000000000000000000081525081526020016040518060400160405280600581526020017f6e616d65310000000000000000000000000000000000000000000000000000008152508152602001600481526020016040518060400160405280600881526020017f636f6e736f6c65310000000000000000000000000000000000000000000000008152508152509080600181540180825580915050600190039060005260206000209060050201600090919091909150600082015181600001556020820151816001019081610f809190612f29565b506040820151816002019081610f969190612f29565b50606082015181600301556080820151816004019081610fb69190612f29565b505050565b600060608060006060600060078781548110610fda57610fd9612ffb565b5b906000526020600020906005020190508060000154816001018260020183600301548460040183805461100c90612bbc565b80601f016020809104026020016040519081016040528092919081815260200182805461103890612bbc565b80156110855780601f1061105a57610100808354040283529160200191611085565b820191906000526020600020905b81548152906001019060200180831161106857829003601f168201915b5050505050935082805461109890612bbc565b80601f01602080910402602001604051908101604052809291908181526020018280546110c490612bbc565b80156111115780601f106110e657610100808354040283529160200191611111565b820191906000526020600020905b8154815290600101906020018083116110f457829003601f168201915b5050505050925080805461112490612bbc565b80601f016020809104026020016040519081016040528092919081815260200182805461115090612bbc565b801561119d5780601f106111725761010080835404028352916020019161119d565b820191906000526020600020905b81548152906001019060200180831161118057829003601f168201915b50505050509050955095509550955095505091939590929450565b6000801b81565b6000806111ca6119b2565b905060006111d88286611897565b90508381101561121d576040517f08c379a00000000000000000000000000000000000000000000000000000000081526004016112149061309c565b60405180910390fd5b61122a82868684036119ba565b60019250505092915050565b6000806112416119b2565b905061124e818585611c0f565b600191505092915050565b60006112857f9f2df0fed2c77648de5860a4cc508cd0818c85b8b8a1ab4ceeef8d981c8956a683610c26565b9050919050565b7ff8ef03ce9f2cfdd733d77d52a15531b9932a15f9d03c8f7705d67e6fdeb11e6f336040516112bb9190612b72565b60405180910390a16112cc33610817565b61130b576040517f08c379a000000000000000000000000000000000000000000000000000000000815260040161130290613108565b60405180910390fd5b7ffbeaa2d4b24ea8784b2e518c3040f6dfe5edce67a0ffce9f5162d2a149b3523c81337f9f2df0fed2c77648de5860a4cc508cd0818c85b8b8a1ab4ceeef8d981c8956a66113787f9f2df0fed2c77648de5860a4cc508cd0818c85b8b8a1ab4ceeef8d981c8956a66107f7565b6000801b60405161138d959493929190613128565b60405180910390a16113bf7f9f2df0fed2c77648de5860a4cc508cd0818c85b8b8a1ab4ceeef8d981c8956a68261082d565b50565b60606000600267ffffffffffffffff8111156113e1576113e0612d4e565b5b60405190808252806020026020018201604052801561141a57816020015b6114076124aa565b8152602001906001900390816113ff5790505b509050600760008154811061143257611431612ffb565b5b90600052602060002090600502016040518060a00160405290816000820154815260200160018201805461146590612bbc565b80601f016020809104026020016040519081016040528092919081815260200182805461149190612bbc565b80156114de5780601f106114b3576101008083540402835291602001916114de565b820191906000526020600020905b8154815290600101906020018083116114c157829003601f168201915b505050505081526020016002820180546114f790612bbc565b80601f016020809104026020016040519081016040528092919081815260200182805461152390612bbc565b80156115705780601f1061154557610100808354040283529160200191611570565b820191906000526020600020905b81548152906001019060200180831161155357829003601f168201915b505050505081526020016003820154815260200160048201805461159390612bbc565b80601f01602080910402602001604051908101604052809291908181526020018280546115bf90612bbc565b801561160c5780601f106115e15761010080835404028352916020019161160c565b820191906000526020600020905b8154815290600101906020018083116115ef57829003601f168201915b5050505050815250508160008151811061162957611628612ffb565b5b6020026020010181905250600760018154811061164957611648612ffb565b5b90600052602060002090600502016040518060a00160405290816000820154815260200160018201805461167c90612bbc565b80601f01602080910402602001604051908101604052809291908181526020018280546116a890612bbc565b80156116f55780601f106116ca576101008083540402835291602001916116f5565b820191906000526020600020905b8154815290600101906020018083116116d857829003601f168201915b5050505050815260200160028201805461170e90612bbc565b80601f016020809104026020016040519081016040528092919081815260200182805461173a90612bbc565b80156117875780601f1061175c57610100808354040283529160200191611787565b820191906000526020600020905b81548152906001019060200180831161176a57829003601f168201915b50505050508152602001600382015481526020016004820180546117aa90612bbc565b80601f01602080910402602001604051908101604052809291908181526020018280546117d690612bbc565b80156118235780601f106117f857610100808354040283529160200191611823565b820191906000526020600020905b81548152906001019060200180831161180657829003601f168201915b505050505081525050816001815181106118405761183f612ffb565b5b60200260200101819052508091505090565b7f9f2df0fed2c77648de5860a4cc508cd0818c85b8b8a1ab4ceeef8d981c8956a681565b61187f826107f7565b61188881611e85565b6118928383611f7a565b505050565b6000600160008473ffffffffffffffffffffffffffffffffffffffff1673ffffffffffffffffffffffffffffffffffffffff16815260200190815260200160002060008373ffffffffffffffffffffffffffffffffffffffff1673ffffffffffffffffffffffffffffffffffffffff16815260200190815260200160002054905092915050565b6000600660009054906101000a900473ffffffffffffffffffffffffffffffffffffffff16905090565b60007f01ffc9a7000000000000000000000000000000000000000000000000000000007bffffffffffffffffffffffffffffffffffffffffffffffffffffffff1916827bffffffffffffffffffffffffffffffffffffffffffffffffffffffff1916149050919050565b600033905090565b600073ffffffffffffffffffffffffffffffffffffffff168373ffffffffffffffffffffffffffffffffffffffff1603611a29576040517f08c379a0000000000000000000000000000000000000000000000000000000008152600401611a20906131ed565b60405180910390fd5b600073ffffffffffffffffffffffffffffffffffffffff168273ffffffffffffffffffffffffffffffffffffffff1603611a98576040517f08c379a0000000000000000000000000000000000000000000000000000000008152600401611a8f9061327f565b60405180910390fd5b80600160008573ffffffffffffffffffffffffffffffffffffffff1673ffffffffffffffffffffffffffffffffffffffff16815260200190815260200160002060008473ffffffffffffffffffffffffffffffffffffffff1673ffffffffffffffffffffffffffffffffffffffff168152602001908152602001600020819055508173ffffffffffffffffffffffffffffffffffffffff168373ffffffffffffffffffffffffffffffffffffffff167f8c5be1e5ebec7d5bd14f71427d1e84f3dd0314c0f7b2291e5b200ac8c7c3b92583604051611b76919061272e565b60405180910390a3505050565b6000611b8f8484611897565b90507fffffffffffffffffffffffffffffffffffffffffffffffffffffffffffffffff8114611c095781811015611bfb576040517f08c379a0000000000000000000000000000000000000000000000000000000008152600401611bf2906132eb565b60405180910390fd5b611c0884848484036119ba565b5b50505050565b600073ffffffffffffffffffffffffffffffffffffffff168373ffffffffffffffffffffffffffffffffffffffff1603611c7e576040517f08c379a0000000000000000000000000000000000000000000000000000000008152600401611c759061337d565b60405180910390fd5b600073ffffffffffffffffffffffffffffffffffffffff168273ffffffffffffffffffffffffffffffffffffffff1603611ced576040517f08c379a0000000000000000000000000000000000000000000000000000000008152600401611ce49061340f565b60405180910390fd5b611cf88383836121b2565b60008060008573ffffffffffffffffffffffffffffffffffffffff1673ffffffffffffffffffffffffffffffffffffffff16815260200190815260200160002054905081811015611d7e576040517f08c379a0000000000000000000000000000000000000000000000000000000008152600401611d75906134a1565b60405180910390fd5b8181036000808673ffffffffffffffffffffffffffffffffffffffff1673ffffffffffffffffffffffffffffffffffffffff16815260200190815260200160002081905550816000808573ffffffffffffffffffffffffffffffffffffffff1673ffffffffffffffffffffffffffffffffffffffff168152602001908152602001600020600082825401925050819055508273ffffffffffffffffffffffffffffffffffffffff168473ffffffffffffffffffffffffffffffffffffffff167fddf252ad1be2c89b69c2b068fc378daa952ba7f163c4a11628f55a4df523b3ef84604051611e6c919061272e565b60405180910390a3611e7f8484846121b7565b50505050565b611e9681611e916119b2565b6121bc565b50565b611ea38282610c26565b611f765760016005600084815260200190815260200160002060000160008373ffffffffffffffffffffffffffffffffffffffff1673ffffffffffffffffffffffffffffffffffffffff16815260200190815260200160002060006101000a81548160ff021916908315150217905550611f1b6119b2565b73ffffffffffffffffffffffffffffffffffffffff168173ffffffffffffffffffffffffffffffffffffffff16837f2f8788117e7eff1d82e926ec794901d17c78024a50270940304540a733656f0d60405160405180910390a45b5050565b611f848282610c26565b156120585760006005600084815260200190815260200160002060000160008373ffffffffffffffffffffffffffffffffffffffff1673ffffffffffffffffffffffffffffffffffffffff16815260200190815260200160002060006101000a81548160ff021916908315150217905550611ffd6119b2565b73ffffffffffffffffffffffffffffffffffffffff168173ffffffffffffffffffffffffffffffffffffffff16837ff6391f5c32d9c69d2a47ea670b442974b53935d1edc7fd64eb21e047a839171b60405160405180910390a45b5050565b600073ffffffffffffffffffffffffffffffffffffffff168273ffffffffffffffffffffffffffffffffffffffff16036120cb576040517f08c379a00000000000000000000000000000000000000000000000000000000081526004016120c29061350d565b60405180910390fd5b6120d7600083836121b2565b80600260008282546120e99190612cae565b92505081905550806000808473ffffffffffffffffffffffffffffffffffffffff1673ffffffffffffffffffffffffffffffffffffffff168152602001908152602001600020600082825401925050819055508173ffffffffffffffffffffffffffffffffffffffff16600073ffffffffffffffffffffffffffffffffffffffff167fddf252ad1be2c89b69c2b068fc378daa952ba7f163c4a11628f55a4df523b3ef8360405161219a919061272e565b60405180910390a36121ae600083836121b7565b5050565b505050565b505050565b6121c68282610c26565b61223d576121d381612241565b6121e18360001c602061226e565b6040516020016121f2929190613601565b6040516020818303038152906040526040517f08c379a00000000000000000000000000000000000000000000000000000000081526004016122349190612629565b60405180910390fd5b5050565b60606122678273ffffffffffffffffffffffffffffffffffffffff16601460ff1661226e565b9050919050565b606060006002836002612281919061363b565b61228b9190612cae565b67ffffffffffffffff8111156122a4576122a3612d4e565b5b6040519080825280601f01601f1916602001820160405280156122d65781602001600182028036833780820191505090505b5090507f30000000000000000000000000000000000000000000000000000000000000008160008151811061230e5761230d612ffb565b5b60200101907effffffffffffffffffffffffffffffffffffffffffffffffffffffffffffff1916908160001a9053507f78000000000000000000000000000000000000000000000000000000000000008160018151811061237257612371612ffb565b5b60200101907effffffffffffffffffffffffffffffffffffffffffffffffffffffffffffff1916908160001a905350600060018460026123b2919061363b565b6123bc9190612cae565b90505b600181111561245c577f3031323334353637383961626364656600000000000000000000000000000000600f8616601081106123fe576123fd612ffb565b5b1a60f81b82828151811061241557612414612ffb565b5b60200101907effffffffffffffffffffffffffffffffffffffffffffffffffffffffffffff1916908160001a905350600485901c9450806124559061367d565b90506123bf565b50600084146124a0576040517f08c379a0000000000000000000000000000000000000000000000000000000008152600401612497906136f2565b60405180910390fd5b8091505092915050565b6040518060a0016040528060008152602001606081526020016060815260200160008152602001606081525090565b600080fd5b60007fffffffff0000000000000000000000000000000000000000000000000000000082169050919050565b612513816124de565b811461251e57600080fd5b50565b6000813590506125308161250a565b92915050565b60006020828403121561254c5761254b6124d9565b5b600061255a84828501612521565b91505092915050565b60008115159050919050565b61257881612563565b82525050565b6000602082019050612593600083018461256f565b92915050565b600081519050919050565b600082825260208201905092915050565b60005b838110156125d35780820151818401526020810190506125b8565b60008484015250505050565b6000601f19601f8301169050919050565b60006125fb82612599565b61260581856125a4565b93506126158185602086016125b5565b61261e816125df565b840191505092915050565b6000602082019050818103600083015261264381846125f0565b905092915050565b600073ffffffffffffffffffffffffffffffffffffffff82169050919050565b60006126768261264b565b9050919050565b6126868161266b565b811461269157600080fd5b50565b6000813590506126a38161267d565b92915050565b6000819050919050565b6126bc816126a9565b81146126c757600080fd5b50565b6000813590506126d9816126b3565b92915050565b600080604083850312156126f6576126f56124d9565b5b600061270485828601612694565b9250506020612715858286016126ca565b9150509250929050565b612728816126a9565b82525050565b6000602082019050612743600083018461271f565b92915050565b600080600060608486031215612762576127616124d9565b5b600061277086828701612694565b935050602061278186828701612694565b9250506040612792868287016126ca565b9150509250925092565b6000819050919050565b6127af8161279c565b81146127ba57600080fd5b50565b6000813590506127cc816127a6565b92915050565b6000602082840312156127e8576127e76124d9565b5b60006127f6848285016127bd565b91505092915050565b6128088161279c565b82525050565b600060208201905061282360008301846127ff565b92915050565b60006020828403121561283f5761283e6124d9565b5b600061284d84828501612694565b91505092915050565b6000806040838503121561286d5761286c6124d9565b5b600061287b858286016127bd565b925050602061288c85828601612694565b9150509250929050565b600060ff82169050919050565b6128ac81612896565b82525050565b60006020820190506128c760008301846128a3565b92915050565b6000602082840312156128e3576128e26124d9565b5b60006128f1848285016126ca565b91505092915050565b600060a08201905061290f600083018861271f565b818103602083015261292181876125f0565b9050818103604083015261293581866125f0565b9050612944606083018561271f565b818103608083015261295681846125f0565b90509695505050505050565b600081519050919050565b600082825260208201905092915050565b6000819050602082019050919050565b612997816126a9565b82525050565b600082825260208201905092915050565b60006129b982612599565b6129c3818561299d565b93506129d38185602086016125b5565b6129dc816125df565b840191505092915050565b600060a0830160008301516129ff600086018261298e565b5060208301518482036020860152612a1782826129ae565b91505060408301518482036040860152612a3182826129ae565b9150506060830151612a46606086018261298e565b5060808301518482036080860152612a5e82826129ae565b9150508091505092915050565b6000612a7783836129e7565b905092915050565b6000602082019050919050565b6000612a9782612962565b612aa1818561296d565b935083602082028501612ab38561297e565b8060005b85811015612aef5784840389528151612ad08582612a6b565b9450612adb83612a7f565b925060208a01995050600181019050612ab7565b50829750879550505050505092915050565b60006020820190508181036000830152612b1b8184612a8c565b905092915050565b60008060408385031215612b3a57612b396124d9565b5b6000612b4885828601612694565b9250506020612b5985828601612694565b9150509250929050565b612b6c8161266b565b82525050565b6000602082019050612b876000830184612b63565b92915050565b7f4e487b7100000000000000000000000000000000000000000000000000000000600052602260045260246000fd5b60006002820490506001821680612bd457607f821691505b602082108103612be757612be6612b8d565b5b50919050565b7f416363657373436f6e74726f6c3a2063616e206f6e6c792072656e6f756e636560008201527f20726f6c657320666f722073656c660000000000000000000000000000000000602082015250565b6000612c49602f836125a4565b9150612c5482612bed565b604082019050919050565b60006020820190508181036000830152612c7881612c3c565b9050919050565b7f4e487b7100000000000000000000000000000000000000000000000000000000600052601160045260246000fd5b6000612cb9826126a9565b9150612cc4836126a9565b9250828201905080821115612cdc57612cdb612c7f565b5b92915050565b7f43616c6c6572206973206e6f742061206d696e74657200000000000000000000600082015250565b6000612d186016836125a4565b9150612d2382612ce2565b602082019050919050565b60006020820190508181036000830152612d4781612d0b565b9050919050565b7f4e487b7100000000000000000000000000000000000000000000000000000000600052604160045260246000fd5b60008190508160005260206000209050919050565b60006020601f8301049050919050565b600082821b905092915050565b600060088302612ddf7fffffffffffffffffffffffffffffffffffffffffffffffffffffffffffffffff82612da2565b612de98683612da2565b95508019841693508086168417925050509392505050565b6000819050919050565b6000612e26612e21612e1c846126a9565b612e01565b6126a9565b9050919050565b6000819050919050565b612e4083612e0b565b612e54612e4c82612e2d565b848454612daf565b825550505050565b600090565b612e69612e5c565b612e74818484612e37565b505050565b5b81811015612e9857612e8d600082612e61565b600181019050612e7a565b5050565b601f821115612edd57612eae81612d7d565b612eb784612d92565b81016020851015612ec6578190505b612eda612ed285612d92565b830182612e79565b50505b505050565b600082821c905092915050565b6000612f0060001984600802612ee2565b1980831691505092915050565b6000612f198383612eef565b9150826002028217905092915050565b612f3282612599565b67ffffffffffffffff811115612f4b57612f4a612d4e565b5b612f558254612bbc565b612f60828285612e9c565b600060209050601f831160018114612f935760008415612f81578287015190505b612f8b8582612f0d565b865550612ff3565b601f198416612fa186612d7d565b60005b82811015612fc957848901518255600182019150602085019450602081019050612fa4565b86831015612fe65784890151612fe2601f891682612eef565b8355505b6001600288020188555050505b505050505050565b7f4e487b7100000000000000000000000000000000000000000000000000000000600052603260045260246000fd5b7f45524332303a2064656372656173656420616c6c6f77616e63652062656c6f7760008201527f207a65726f000000000000000000000000000000000000000000000000000000602082015250565b60006130866025836125a4565b91506130918261302a565b604082019050919050565b600060208201905081810360008301526130b581613079565b9050919050565b7f5265737472696374656420746f2061646d696e73000000000000000000000000600082015250565b60006130f26014836125a4565b91506130fd826130bc565b602082019050919050565b60006020820190508181036000830152613121816130e5565b9050919050565b600060a08201905061313d6000830188612b63565b61314a6020830187612b63565b61315760408301866127ff565b61316460608301856127ff565b61317160808301846127ff565b9695505050505050565b7f45524332303a20617070726f76652066726f6d20746865207a65726f2061646460008201527f7265737300000000000000000000000000000000000000000000000000000000602082015250565b60006131d76024836125a4565b91506131e28261317b565b604082019050919050565b60006020820190508181036000830152613206816131ca565b9050919050565b7f45524332303a20617070726f766520746f20746865207a65726f20616464726560008201527f7373000000000000000000000000000000000000000000000000000000000000602082015250565b60006132696022836125a4565b91506132748261320d565b604082019050919050565b600060208201905081810360008301526132988161325c565b9050919050565b7f45524332303a20696e73756666696369656e7420616c6c6f77616e6365000000600082015250565b60006132d5601d836125a4565b91506132e08261329f565b602082019050919050565b60006020820190508181036000830152613304816132c8565b9050919050565b7f45524332303a207472616e736665722066726f6d20746865207a65726f20616460008201527f6472657373000000000000000000000000000000000000000000000000000000602082015250565b60006133676025836125a4565b91506133728261330b565b604082019050919050565b600060208201905081810360008301526133968161335a565b9050919050565b7f45524332303a207472616e7366657220746f20746865207a65726f206164647260008201527f6573730000000000000000000000000000000000000000000000000000000000602082015250565b60006133f96023836125a4565b91506134048261339d565b604082019050919050565b60006020820190508181036000830152613428816133ec565b9050919050565b7f45524332303a207472616e7366657220616d6f756e742065786365656473206260008201527f616c616e63650000000000000000000000000000000000000000000000000000602082015250565b600061348b6026836125a4565b91506134968261342f565b604082019050919050565b600060208201905081810360008301526134ba8161347e565b9050919050565b7f45524332303a206d696e7420746f20746865207a65726f206164647265737300600082015250565b60006134f7601f836125a4565b9150613502826134c1565b602082019050919050565b60006020820190508181036000830152613526816134ea565b9050919050565b600081905092915050565b7f416363657373436f6e74726f6c3a206163636f756e7420000000000000000000600082015250565b600061356e60178361352d565b915061357982613538565b601782019050919050565b600061358f82612599565b613599818561352d565b93506135a98185602086016125b5565b80840191505092915050565b7f206973206d697373696e6720726f6c6520000000000000000000000000000000600082015250565b60006135eb60118361352d565b91506135f6826135b5565b601182019050919050565b600061360c82613561565b91506136188285613584565b9150613623826135de565b915061362f8284613584565b91508190509392505050565b6000613646826126a9565b9150613651836126a9565b925082820261365f816126a9565b9150828204841483151761367657613675612c7f565b5b5092915050565b6000613688826126a9565b91506000820361369b5761369a612c7f565b5b600182039050919050565b7f537472696e67733a20686578206c656e67746820696e73756666696369656e74600082015250565b60006136dc6020836125a4565b91506136e7826136a6565b602082019050919050565b6000602082019050818103600083015261370b816136cf565b905091905056fea2646970667358221220007d6ac98132894dfffc9401d86d72f30fa85da71fa23355e6464c6a67e97ea664736f6c63430008110033",
  "immutableReferences": {},
  "source": "pragma solidity ^0.8.0;\r\n\r\nimport \"@openzeppelin/contracts/token/ERC20/ERC20.sol\";\r\nimport \"@openzeppelin/contracts/access/AccessControl.sol\";\r\n\r\ncontract TutorialToken_AC is ERC20, AccessControl {\r\n   bytes32 public constant MINTER_ROLE = keccak256(\"MINTER_ROLE\");\r\n   address _owner;\r\n   Product[] public products;\r\n\r\n   constructor(\r\n        string memory name,\r\n        string memory symbol,\r\n        uint256 initialSupply) ERC20(name, symbol) {\r\n      _mint(msg.sender, initialSupply);\r\n      _owner = msg.sender;\r\n      _setupRole(DEFAULT_ADMIN_ROLE, msg.sender);\r\n      _setRoleAdmin(MINTER_ROLE, DEFAULT_ADMIN_ROLE);\r\n      preloadProduct();\r\n   }\r\n\r\n   struct Product {\r\n    uint id;\r\n    string picture;\r\n    string name;\r\n    uint price;\r\n    string console;\r\n}\r\n\r\n   function preloadProduct() public{\r\n\r\n    products.push(Product(0, \"Test picture\", \"name\", 3, \"console\"));\r\n    products.push(Product(1, \"Test picture1\", \"name1\", 4, \"console1\"));\r\n\r\n   }\r\n\r\n    function getProductId(uint _index) public view returns (uint id, string memory picture, string memory name, uint price, string memory console) {\r\n        Product storage p = products[_index];\r\n        return (p.id, p.picture, p.name, p.price, p.console);\r\n    }\r\n\r\n     function getAllProduct() public view returns (Product[] memory) {\r\n\r\n         Product[] memory allProduct = new Product[](2);\r\n         allProduct[0] = products[0];\r\n         allProduct[1] = products[1];\r\n\r\n        return allProduct;\r\n    }\r\n\r\n\r\n\r\n    function getLenghtProduct() public view returns(uint num)\r\n    {\r\n      return products.length;\r\n    }\r\n\r\n\r\n   event Debug(address user, address sender, bytes32 role, bytes32 adminRole, bytes32 senderRole);\r\n   event ChecksoloAdmin(address user);\r\n   event ChecksoloMinters(address user);\r\n\r\n   modifier soloAdmin() {\r\n      emit ChecksoloAdmin(msg.sender);\r\n      require(isAdmin(msg.sender), \"Restricted to admins\");\r\n      _;\r\n   }\r\n\r\n   modifier soloMinters() {\r\n      emit ChecksoloMinters(msg.sender);\r\n      require(isMinter(msg.sender), \"Caller is not a minter\");\r\n      _;\r\n   }\r\n\r\n   function buyProduct(uint256 amount) public virtual returns(bool) {\r\n      return transfer(_owner, amount);\r\n\r\n   }\r\n\r\n   function isAdmin(address account) public virtual view returns (bool) {\r\n      return hasRole(DEFAULT_ADMIN_ROLE, account);\r\n   }\r\n\r\n   function isMinter(address account) public virtual view returns (bool) {\r\n      return hasRole(MINTER_ROLE, account);\r\n   }\r\n\r\n   function showOwner() public virtual view returns(address){\r\n      return _owner;\r\n   }\r\n\r\n   function mint(address to, uint256 amount) public soloMinters {\r\n      _mint(to, amount);\r\n    }\r\n\r\n    function addMinterRole(address to) public soloAdmin {\r\n      emit Debug(to, msg.sender, MINTER_ROLE, getRoleAdmin(MINTER_ROLE), DEFAULT_ADMIN_ROLE);\r\n      grantRole(MINTER_ROLE, to);\r\n    }\r\n\r\n    function removeMinterRole (address to) public {\r\n      renounceRole(MINTER_ROLE, to);\r\n    }\r\n\r\n\r\n\r\n}\r\n\r\n",
  "sourcePath": "C:\\Users\\smuto\\OneDrive\\GameShop\\Test\\contracts\\TutorialToken_AC.sol",
  "compiler": {
    "name": "solc",
    "version": "0.8.17+commit.8df45f5f.Emscripten.clang"
  },
  "schemaVersion": "3.4.11",
  "updatedAt": "2023-01-26T19:30:24.646Z",
  "networkType": "ethereum",
  "devdoc": {
    "kind": "dev",
    "methods": {
      "allowance(address,address)": {
        "details": "See {IERC20-allowance}."
      },
      "approve(address,uint256)": {
        "details": "See {IERC20-approve}. NOTE: If `amount` is the maximum `uint256`, the allowance is not updated on `transferFrom`. This is semantically equivalent to an infinite approval. Requirements: - `spender` cannot be the zero address."
      },
      "balanceOf(address)": {
        "details": "See {IERC20-balanceOf}."
      },
      "decimals()": {
        "details": "Returns the number of decimals used to get its user representation. For example, if `decimals` equals `2`, a balance of `505` tokens should be displayed to a user as `5.05` (`505 / 10 ** 2`). Tokens usually opt for a value of 18, imitating the relationship between Ether and Wei. This is the value {ERC20} uses, unless this function is overridden; NOTE: This information is only used for _display_ purposes: it in no way affects any of the arithmetic of the contract, including {IERC20-balanceOf} and {IERC20-transfer}."
      },
      "decreaseAllowance(address,uint256)": {
        "details": "Atomically decreases the allowance granted to `spender` by the caller. This is an alternative to {approve} that can be used as a mitigation for problems described in {IERC20-approve}. Emits an {Approval} event indicating the updated allowance. Requirements: - `spender` cannot be the zero address. - `spender` must have allowance for the caller of at least `subtractedValue`."
      },
      "getRoleAdmin(bytes32)": {
        "details": "Returns the admin role that controls `role`. See {grantRole} and {revokeRole}. To change a role's admin, use {_setRoleAdmin}."
      },
      "grantRole(bytes32,address)": {
        "details": "Grants `role` to `account`. If `account` had not been already granted `role`, emits a {RoleGranted} event. Requirements: - the caller must have ``role``'s admin role. May emit a {RoleGranted} event."
      },
      "hasRole(bytes32,address)": {
        "details": "Returns `true` if `account` has been granted `role`."
      },
      "increaseAllowance(address,uint256)": {
        "details": "Atomically increases the allowance granted to `spender` by the caller. This is an alternative to {approve} that can be used as a mitigation for problems described in {IERC20-approve}. Emits an {Approval} event indicating the updated allowance. Requirements: - `spender` cannot be the zero address."
      },
      "name()": {
        "details": "Returns the name of the token."
      },
      "renounceRole(bytes32,address)": {
        "details": "Revokes `role` from the calling account. Roles are often managed via {grantRole} and {revokeRole}: this function's purpose is to provide a mechanism for accounts to lose their privileges if they are compromised (such as when a trusted device is misplaced). If the calling account had been revoked `role`, emits a {RoleRevoked} event. Requirements: - the caller must be `account`. May emit a {RoleRevoked} event."
      },
      "revokeRole(bytes32,address)": {
        "details": "Revokes `role` from `account`. If `account` had been granted `role`, emits a {RoleRevoked} event. Requirements: - the caller must have ``role``'s admin role. May emit a {RoleRevoked} event."
      },
      "supportsInterface(bytes4)": {
        "details": "See {IERC165-supportsInterface}."
      },
      "symbol()": {
        "details": "Returns the symbol of the token, usually a shorter version of the name."
      },
      "totalSupply()": {
        "details": "See {IERC20-totalSupply}."
      },
      "transfer(address,uint256)": {
        "details": "See {IERC20-transfer}. Requirements: - `to` cannot be the zero address. - the caller must have a balance of at least `amount`."
      },
      "transferFrom(address,address,uint256)": {
        "details": "See {IERC20-transferFrom}. Emits an {Approval} event indicating the updated allowance. This is not required by the EIP. See the note at the beginning of {ERC20}. NOTE: Does not update the allowance if the current allowance is the maximum `uint256`. Requirements: - `from` and `to` cannot be the zero address. - `from` must have a balance of at least `amount`. - the caller must have allowance for ``from``'s tokens of at least `amount`."
      }
    },
    "version": 1
  },
  "userdoc": {
    "kind": "user",
    "methods": {},
    "version": 1
  }
}