{
  "contractName": "TutorialToken_AC",
  "abi": [
    {
      "inputs": [
        {
          "internalType": "string",
          "name": "name",
          "type": "string"
        },
        {
          "internalType": "string",
          "name": "symbol",
          "type": "string"
        },
        {
          "internalType": "uint256",
          "name": "initialSupply",
          "type": "uint256"
        }
      ],
      "stateMutability": "nonpayable",
      "type": "constructor"
    },
    {
      "anonymous": false,
      "inputs": [
        {
          "indexed": true,
          "internalType": "address",
          "name": "owner",
          "type": "address"
        },
        {
          "indexed": true,
          "internalType": "address",
          "name": "spender",
          "type": "address"
        },
        {
          "indexed": false,
          "internalType": "uint256",
          "name": "value",
          "type": "uint256"
        }
      ],
      "name": "Approval",
      "type": "event"
    },
    {
      "anonymous": false,
      "inputs": [
        {
          "indexed": false,
          "internalType": "address",
          "name": "user",
          "type": "address"
        }
      ],
      "name": "ChecksoloAdmin",
      "type": "event"
    },
    {
      "anonymous": false,
      "inputs": [
        {
          "indexed": false,
          "internalType": "address",
          "name": "user",
          "type": "address"
        }
      ],
      "name": "ChecksoloMinters",
      "type": "event"
    },
    {
      "anonymous": false,
      "inputs": [
        {
          "indexed": false,
          "internalType": "address",
          "name": "user",
          "type": "address"
        },
        {
          "indexed": false,
          "internalType": "address",
          "name": "sender",
          "type": "address"
        },
        {
          "indexed": false,
          "internalType": "bytes32",
          "name": "role",
          "type": "bytes32"
        },
        {
          "indexed": false,
          "internalType": "bytes32",
          "name": "adminRole",
          "type": "bytes32"
        },
        {
          "indexed": false,
          "internalType": "bytes32",
          "name": "senderRole",
          "type": "bytes32"
        }
      ],
      "name": "Debug",
      "type": "event"
    },
    {
      "anonymous": false,
      "inputs": [
        {
          "indexed": true,
          "internalType": "bytes32",
          "name": "role",
          "type": "bytes32"
        },
        {
          "indexed": true,
          "internalType": "bytes32",
          "name": "previousAdminRole",
          "type": "bytes32"
        },
        {
          "indexed": true,
          "internalType": "bytes32",
          "name": "newAdminRole",
          "type": "bytes32"
        }
      ],
      "name": "RoleAdminChanged",
      "type": "event"
    },
    {
      "anonymous": false,
      "inputs": [
        {
          "indexed": true,
          "internalType": "bytes32",
          "name": "role",
          "type": "bytes32"
        },
        {
          "indexed": true,
          "internalType": "address",
          "name": "account",
          "type": "address"
        },
        {
          "indexed": true,
          "internalType": "address",
          "name": "sender",
          "type": "address"
        }
      ],
      "name": "RoleGranted",
      "type": "event"
    },
    {
      "anonymous": false,
      "inputs": [
        {
          "indexed": true,
          "internalType": "bytes32",
          "name": "role",
          "type": "bytes32"
        },
        {
          "indexed": true,
          "internalType": "address",
          "name": "account",
          "type": "address"
        },
        {
          "indexed": true,
          "internalType": "address",
          "name": "sender",
          "type": "address"
        }
      ],
      "name": "RoleRevoked",
      "type": "event"
    },
    {
      "anonymous": false,
      "inputs": [
        {
          "indexed": true,
          "internalType": "address",
          "name": "from",
          "type": "address"
        },
        {
          "indexed": true,
          "internalType": "address",
          "name": "to",
          "type": "address"
        },
        {
          "indexed": false,
          "internalType": "uint256",
          "name": "value",
          "type": "uint256"
        }
      ],
      "name": "Transfer",
      "type": "event"
    },
    {
      "inputs": [],
      "name": "DEFAULT_ADMIN_ROLE",
      "outputs": [
        {
          "internalType": "bytes32",
          "name": "",
          "type": "bytes32"
        }
      ],
      "stateMutability": "view",
      "type": "function",
      "constant": true
    },
    {
      "inputs": [],
      "name": "MINTER_ROLE",
      "outputs": [
        {
          "internalType": "bytes32",
          "name": "",
          "type": "bytes32"
        }
      ],
      "stateMutability": "view",
      "type": "function",
      "constant": true
    },
    {
      "inputs": [
        {
          "internalType": "address",
          "name": "owner",
          "type": "address"
        },
        {
          "internalType": "address",
          "name": "spender",
          "type": "address"
        }
      ],
      "name": "allowance",
      "outputs": [
        {
          "internalType": "uint256",
          "name": "",
          "type": "uint256"
        }
      ],
      "stateMutability": "view",
      "type": "function",
      "constant": true
    },
    {
      "inputs": [
        {
          "internalType": "address",
          "name": "spender",
          "type": "address"
        },
        {
          "internalType": "uint256",
          "name": "amount",
          "type": "uint256"
        }
      ],
      "name": "approve",
      "outputs": [
        {
          "internalType": "bool",
          "name": "",
          "type": "bool"
        }
      ],
      "stateMutability": "nonpayable",
      "type": "function"
    },
    {
      "inputs": [
        {
          "internalType": "address",
          "name": "account",
          "type": "address"
        }
      ],
      "name": "balanceOf",
      "outputs": [
        {
          "internalType": "uint256",
          "name": "",
          "type": "uint256"
        }
      ],
      "stateMutability": "view",
      "type": "function",
      "constant": true
    },
    {
      "inputs": [],
      "name": "decimals",
      "outputs": [
        {
          "internalType": "uint8",
          "name": "",
          "type": "uint8"
        }
      ],
      "stateMutability": "view",
      "type": "function",
      "constant": true
    },
    {
      "inputs": [
        {
          "internalType": "address",
          "name": "spender",
          "type": "address"
        },
        {
          "internalType": "uint256",
          "name": "subtractedValue",
          "type": "uint256"
        }
      ],
      "name": "decreaseAllowance",
      "outputs": [
        {
          "internalType": "bool",
          "name": "",
          "type": "bool"
        }
      ],
      "stateMutability": "nonpayable",
      "type": "function"
    },
    {
      "inputs": [
        {
          "internalType": "bytes32",
          "name": "role",
          "type": "bytes32"
        }
      ],
      "name": "getRoleAdmin",
      "outputs": [
        {
          "internalType": "bytes32",
          "name": "",
          "type": "bytes32"
        }
      ],
      "stateMutability": "view",
      "type": "function",
      "constant": true
    },
    {
      "inputs": [
        {
          "internalType": "bytes32",
          "name": "role",
          "type": "bytes32"
        },
        {
          "internalType": "address",
          "name": "account",
          "type": "address"
        }
      ],
      "name": "grantRole",
      "outputs": [],
      "stateMutability": "nonpayable",
      "type": "function"
    },
    {
      "inputs": [
        {
          "internalType": "bytes32",
          "name": "role",
          "type": "bytes32"
        },
        {
          "internalType": "address",
          "name": "account",
          "type": "address"
        }
      ],
      "name": "hasRole",
      "outputs": [
        {
          "internalType": "bool",
          "name": "",
          "type": "bool"
        }
      ],
      "stateMutability": "view",
      "type": "function",
      "constant": true
    },
    {
      "inputs": [
        {
          "internalType": "address",
          "name": "spender",
          "type": "address"
        },
        {
          "internalType": "uint256",
          "name": "addedValue",
          "type": "uint256"
        }
      ],
      "name": "increaseAllowance",
      "outputs": [
        {
          "internalType": "bool",
          "name": "",
          "type": "bool"
        }
      ],
      "stateMutability": "nonpayable",
      "type": "function"
    },
    {
      "inputs": [],
      "name": "name",
      "outputs": [
        {
          "internalType": "string",
          "name": "",
          "type": "string"
        }
      ],
      "stateMutability": "view",
      "type": "function",
      "constant": true
    },
    {
      "inputs": [
        {
          "internalType": "bytes32",
          "name": "role",
          "type": "bytes32"
        },
        {
          "internalType": "address",
          "name": "account",
          "type": "address"
        }
      ],
      "name": "renounceRole",
      "outputs": [],
      "stateMutability": "nonpayable",
      "type": "function"
    },
    {
      "inputs": [
        {
          "internalType": "bytes32",
          "name": "role",
          "type": "bytes32"
        },
        {
          "internalType": "address",
          "name": "account",
          "type": "address"
        }
      ],
      "name": "revokeRole",
      "outputs": [],
      "stateMutability": "nonpayable",
      "type": "function"
    },
    {
      "inputs": [
        {
          "internalType": "bytes4",
          "name": "interfaceId",
          "type": "bytes4"
        }
      ],
      "name": "supportsInterface",
      "outputs": [
        {
          "internalType": "bool",
          "name": "",
          "type": "bool"
        }
      ],
      "stateMutability": "view",
      "type": "function",
      "constant": true
    },
    {
      "inputs": [],
      "name": "symbol",
      "outputs": [
        {
          "internalType": "string",
          "name": "",
          "type": "string"
        }
      ],
      "stateMutability": "view",
      "type": "function",
      "constant": true
    },
    {
      "inputs": [],
      "name": "totalSupply",
      "outputs": [
        {
          "internalType": "uint256",
          "name": "",
          "type": "uint256"
        }
      ],
      "stateMutability": "view",
      "type": "function",
      "constant": true
    },
    {
      "inputs": [
        {
          "internalType": "address",
          "name": "to",
          "type": "address"
        },
        {
          "internalType": "uint256",
          "name": "amount",
          "type": "uint256"
        }
      ],
      "name": "transfer",
      "outputs": [
        {
          "internalType": "bool",
          "name": "",
          "type": "bool"
        }
      ],
      "stateMutability": "nonpayable",
      "type": "function"
    },
    {
      "inputs": [
        {
          "internalType": "address",
          "name": "from",
          "type": "address"
        },
        {
          "internalType": "address",
          "name": "to",
          "type": "address"
        },
        {
          "internalType": "uint256",
          "name": "amount",
          "type": "uint256"
        }
      ],
      "name": "transferFrom",
      "outputs": [
        {
          "internalType": "bool",
          "name": "",
          "type": "bool"
        }
      ],
      "stateMutability": "nonpayable",
      "type": "function"
    },
    {
      "inputs": [
        {
          "internalType": "address",
          "name": "from",
          "type": "address"
        },
        {
          "internalType": "uint256",
          "name": "amount",
          "type": "uint256"
        }
      ],
      "name": "buyProduct",
      "outputs": [],
      "stateMutability": "nonpayable",
      "type": "function"
    },
    {
      "inputs": [
        {
          "internalType": "address",
          "name": "account",
          "type": "address"
        }
      ],
      "name": "isAdmin",
      "outputs": [
        {
          "internalType": "bool",
          "name": "",
          "type": "bool"
        }
      ],
      "stateMutability": "view",
      "type": "function",
      "constant": true
    },
    {
      "inputs": [
        {
          "internalType": "address",
          "name": "account",
          "type": "address"
        }
      ],
      "name": "isMinter",
      "outputs": [
        {
          "internalType": "bool",
          "name": "",
          "type": "bool"
        }
      ],
      "stateMutability": "view",
      "type": "function",
      "constant": true
    },
    {
      "inputs": [
        {
          "internalType": "address",
          "name": "to",
          "type": "address"
        },
        {
          "internalType": "uint256",
          "name": "amount",
          "type": "uint256"
        }
      ],
      "name": "mint",
      "outputs": [],
      "stateMutability": "nonpayable",
      "type": "function"
    },
    {
      "inputs": [
        {
          "internalType": "address",
          "name": "to",
          "type": "address"
        }
      ],
      "name": "addMinterRole",
      "outputs": [],
      "stateMutability": "nonpayable",
      "type": "function"
    },
    {
      "inputs": [
        {
          "internalType": "address",
          "name": "to",
          "type": "address"
        }
      ],
      "name": "removeMinterRole",
      "outputs": [],
      "stateMutability": "nonpayable",
      "type": "function"
    }
  ],
  "bytecode": "0x60806040523480156200001157600080fd5b50604051620030ec380380620030ec833981810160405281019062000037919062000649565b828281600390816200004a919062000924565b5080600490816200005c919062000924565b5050506200007133826200010560201b60201c565b33600660006101000a81548173ffffffffffffffffffffffffffffffffffffffff021916908373ffffffffffffffffffffffffffffffffffffffff160217905550620000c76000801b336200027260201b60201c565b620000fc7f9f2df0fed2c77648de5860a4cc508cd0818c85b8b8a1ab4ceeef8d981c8956a66000801b6200028860201b60201c565b50505062000b26565b600073ffffffffffffffffffffffffffffffffffffffff168273ffffffffffffffffffffffffffffffffffffffff160362000177576040517f08c379a00000000000000000000000000000000000000000000000000000000081526004016200016e9062000a6c565b60405180910390fd5b6200018b60008383620002ec60201b60201c565b80600260008282546200019f919062000abd565b92505081905550806000808473ffffffffffffffffffffffffffffffffffffffff1673ffffffffffffffffffffffffffffffffffffffff168152602001908152602001600020600082825401925050819055508173ffffffffffffffffffffffffffffffffffffffff16600073ffffffffffffffffffffffffffffffffffffffff167fddf252ad1be2c89b69c2b068fc378daa952ba7f163c4a11628f55a4df523b3ef8360405162000252919062000b09565b60405180910390a36200026e60008383620002f160201b60201c565b5050565b620002848282620002f660201b60201c565b5050565b60006200029b83620003e860201b60201c565b90508160056000858152602001908152602001600020600101819055508181847fbd79b86ffe0ab8e8776151514217cd7cacd52c909f66475c3af44e129f0b00ff60405160405180910390a4505050565b505050565b505050565b6200030882826200040860201b60201c565b620003e45760016005600084815260200190815260200160002060000160008373ffffffffffffffffffffffffffffffffffffffff1673ffffffffffffffffffffffffffffffffffffffff16815260200190815260200160002060006101000a81548160ff021916908315150217905550620003896200047360201b60201c565b73ffffffffffffffffffffffffffffffffffffffff168173ffffffffffffffffffffffffffffffffffffffff16837f2f8788117e7eff1d82e926ec794901d17c78024a50270940304540a733656f0d60405160405180910390a45b5050565b600060056000838152602001908152602001600020600101549050919050565b60006005600084815260200190815260200160002060000160008373ffffffffffffffffffffffffffffffffffffffff1673ffffffffffffffffffffffffffffffffffffffff16815260200190815260200160002060009054906101000a900460ff16905092915050565b600033905090565b6000604051905090565b600080fd5b600080fd5b600080fd5b600080fd5b6000601f19601f8301169050919050565b7f4e487b7100000000000000000000000000000000000000000000000000000000600052604160045260246000fd5b620004e48262000499565b810181811067ffffffffffffffff82111715620005065762000505620004aa565b5b80604052505050565b60006200051b6200047b565b9050620005298282620004d9565b919050565b600067ffffffffffffffff8211156200054c576200054b620004aa565b5b620005578262000499565b9050602081019050919050565b60005b838110156200058457808201518184015260208101905062000567565b60008484015250505050565b6000620005a7620005a1846200052e565b6200050f565b905082815260208101848484011115620005c657620005c562000494565b5b620005d384828562000564565b509392505050565b600082601f830112620005f357620005f26200048f565b5b81516200060584826020860162000590565b91505092915050565b6000819050919050565b62000623816200060e565b81146200062f57600080fd5b50565b600081519050620006438162000618565b92915050565b60008060006060848603121562000665576200066462000485565b5b600084015167ffffffffffffffff8111156200068657620006856200048a565b5b6200069486828701620005db565b935050602084015167ffffffffffffffff811115620006b857620006b76200048a565b5b620006c686828701620005db565b9250506040620006d98682870162000632565b9150509250925092565b600081519050919050565b7f4e487b7100000000000000000000000000000000000000000000000000000000600052602260045260246000fd5b600060028204905060018216806200073657607f821691505b6020821081036200074c576200074b620006ee565b5b50919050565b60008190508160005260206000209050919050565b60006020601f8301049050919050565b600082821b905092915050565b600060088302620007b67fffffffffffffffffffffffffffffffffffffffffffffffffffffffffffffffff8262000777565b620007c2868362000777565b95508019841693508086168417925050509392505050565b6000819050919050565b600062000805620007ff620007f9846200060e565b620007da565b6200060e565b9050919050565b6000819050919050565b6200082183620007e4565b6200083962000830826200080c565b84845462000784565b825550505050565b600090565b6200085062000841565b6200085d81848462000816565b505050565b5b8181101562000885576200087960008262000846565b60018101905062000863565b5050565b601f821115620008d4576200089e8162000752565b620008a98462000767565b81016020851015620008b9578190505b620008d1620008c88562000767565b83018262000862565b50505b505050565b600082821c905092915050565b6000620008f960001984600802620008d9565b1980831691505092915050565b6000620009148383620008e6565b9150826002028217905092915050565b6200092f82620006e3565b67ffffffffffffffff8111156200094b576200094a620004aa565b5b6200095782546200071d565b6200096482828562000889565b600060209050601f8311600181146200099c576000841562000987578287015190505b62000993858262000906565b86555062000a03565b601f198416620009ac8662000752565b60005b82811015620009d657848901518255600182019150602085019450602081019050620009af565b86831015620009f65784890151620009f2601f891682620008e6565b8355505b6001600288020188555050505b505050505050565b600082825260208201905092915050565b7f45524332303a206d696e7420746f20746865207a65726f206164647265737300600082015250565b600062000a54601f8362000a0b565b915062000a618262000a1c565b602082019050919050565b6000602082019050818103600083015262000a878162000a45565b9050919050565b7f4e487b7100000000000000000000000000000000000000000000000000000000600052601160045260246000fd5b600062000aca826200060e565b915062000ad7836200060e565b925082820190508082111562000af25762000af162000a8e565b5b92915050565b62000b03816200060e565b82525050565b600060208201905062000b20600083018462000af8565b92915050565b6125b68062000b366000396000f3fe608060405234801561001057600080fd5b50600436106101735760003560e01c806354f1e126116100de578063a9059cbb11610097578063cddb8e9411610071578063cddb8e94146104aa578063d5391393146104c6578063d547741f146104e4578063dd62ed3e1461050057610173565b8063a9059cbb1461042e578063aa271e1a1461045e578063adbf37761461048e57610173565b806354f1e1261461034657806370a082311461036257806391d148541461039257806395d89b41146103c2578063a217fddf146103e0578063a457c2d7146103fe57610173565b806324d7806c1161013057806324d7806c146102745780632f2ff15d146102a4578063313ce567146102c057806336568abe146102de57806339509351146102fa57806340c10f191461032a57610173565b806301ffc9a71461017857806306fdde03146101a8578063095ea7b3146101c657806318160ddd146101f657806323b872dd14610214578063248a9ca314610244575b600080fd5b610192600480360381019061018d9190611878565b610530565b60405161019f91906118c0565b60405180910390f35b6101b06105aa565b6040516101bd919061196b565b60405180910390f35b6101e060048036038101906101db9190611a21565b61063c565b6040516101ed91906118c0565b60405180910390f35b6101fe61065f565b60405161020b9190611a70565b60405180910390f35b61022e60048036038101906102299190611a8b565b610669565b60405161023b91906118c0565b60405180910390f35b61025e60048036038101906102599190611b14565b610698565b60405161026b9190611b50565b60405180910390f35b61028e60048036038101906102899190611b6b565b6106b8565b60405161029b91906118c0565b60405180910390f35b6102be60048036038101906102b99190611b98565b6106ce565b005b6102c86106ef565b6040516102d59190611bf4565b60405180910390f35b6102f860048036038101906102f39190611b98565b6106f8565b005b610314600480360381019061030f9190611a21565b61077b565b60405161032191906118c0565b60405180910390f35b610344600480360381019061033f9190611a21565b6107b2565b005b610360600480360381019061035b9190611b6b565b61083f565b005b61037c60048036038101906103779190611b6b565b61086c565b6040516103899190611a70565b60405180910390f35b6103ac60048036038101906103a79190611b98565b6108b4565b6040516103b991906118c0565b60405180910390f35b6103ca61091f565b6040516103d7919061196b565b60405180910390f35b6103e86109b1565b6040516103f59190611b50565b60405180910390f35b61041860048036038101906104139190611a21565b6109b8565b60405161042591906118c0565b60405180910390f35b61044860048036038101906104439190611a21565b610a2f565b60405161045591906118c0565b60405180910390f35b61047860048036038101906104739190611b6b565b610a52565b60405161048591906118c0565b60405180910390f35b6104a860048036038101906104a39190611b6b565b610a85565b005b6104c460048036038101906104bf9190611a21565b610bbb565b005b6104ce610bed565b6040516104db9190611b50565b60405180910390f35b6104fe60048036038101906104f99190611b98565b610c11565b005b61051a60048036038101906105159190611c0f565b610c32565b6040516105279190611a70565b60405180910390f35b60007f7965db0b000000000000000000000000000000000000000000000000000000007bffffffffffffffffffffffffffffffffffffffffffffffffffffffff1916827bffffffffffffffffffffffffffffffffffffffffffffffffffffffff191614806105a357506105a282610cb9565b5b9050919050565b6060600380546105b990611c7e565b80601f01602080910402602001604051908101604052809291908181526020018280546105e590611c7e565b80156106325780601f1061060757610100808354040283529160200191610632565b820191906000526020600020905b81548152906001019060200180831161061557829003601f168201915b5050505050905090565b600080610647610d23565b9050610654818585610d2b565b600191505092915050565b6000600254905090565b600080610674610d23565b9050610681858285610ef4565b61068c858585610f80565b60019150509392505050565b600060056000838152602001908152602001600020600101549050919050565b60006106c76000801b836108b4565b9050919050565b6106d782610698565b6106e0816111f6565b6106ea838361120a565b505050565b60006012905090565b610700610d23565b73ffffffffffffffffffffffffffffffffffffffff168173ffffffffffffffffffffffffffffffffffffffff161461076d576040517f08c379a000000000000000000000000000000000000000000000000000000000815260040161076490611d21565b60405180910390fd5b61077782826112eb565b5050565b600080610786610d23565b90506107a78185856107988589610c32565b6107a29190611d70565b610d2b565b600191505092915050565b7f30961df266e1c49061f4de998a0d33e0a256c0b6b9a896ed98ac9293063b7cc7336040516107e19190611db3565b60405180910390a16107f233610a52565b610831576040517f08c379a000000000000000000000000000000000000000000000000000000000815260040161082890611e1a565b60405180910390fd5b61083b82826113cd565b5050565b6108697f9f2df0fed2c77648de5860a4cc508cd0818c85b8b8a1ab4ceeef8d981c8956a6826106f8565b50565b60008060008373ffffffffffffffffffffffffffffffffffffffff1673ffffffffffffffffffffffffffffffffffffffff168152602001908152602001600020549050919050565b60006005600084815260200190815260200160002060000160008373ffffffffffffffffffffffffffffffffffffffff1673ffffffffffffffffffffffffffffffffffffffff16815260200190815260200160002060009054906101000a900460ff16905092915050565b60606004805461092e90611c7e565b80601f016020809104026020016040519081016040528092919081815260200182805461095a90611c7e565b80156109a75780601f1061097c576101008083540402835291602001916109a7565b820191906000526020600020905b81548152906001019060200180831161098a57829003601f168201915b5050505050905090565b6000801b81565b6000806109c3610d23565b905060006109d18286610c32565b905083811015610a16576040517f08c379a0000000000000000000000000000000000000000000000000000000008152600401610a0d90611eac565b60405180910390fd5b610a238286868403610d2b565b60019250505092915050565b600080610a3a610d23565b9050610a47818585610f80565b600191505092915050565b6000610a7e7f9f2df0fed2c77648de5860a4cc508cd0818c85b8b8a1ab4ceeef8d981c8956a6836108b4565b9050919050565b7ff8ef03ce9f2cfdd733d77d52a15531b9932a15f9d03c8f7705d67e6fdeb11e6f33604051610ab49190611db3565b60405180910390a1610ac5336106b8565b610b04576040517f08c379a0000000000000000000000000000000000000000000000000000000008152600401610afb90611f18565b60405180910390fd5b7ffbeaa2d4b24ea8784b2e518c3040f6dfe5edce67a0ffce9f5162d2a149b3523c81337f9f2df0fed2c77648de5860a4cc508cd0818c85b8b8a1ab4ceeef8d981c8956a6610b717f9f2df0fed2c77648de5860a4cc508cd0818c85b8b8a1ab4ceeef8d981c8956a6610698565b6000801b604051610b86959493929190611f38565b60405180910390a1610bb87f9f2df0fed2c77648de5860a4cc508cd0818c85b8b8a1ab4ceeef8d981c8956a6826106ce565b50565b610be882600660009054906101000a900473ffffffffffffffffffffffffffffffffffffffff1683610669565b505050565b7f9f2df0fed2c77648de5860a4cc508cd0818c85b8b8a1ab4ceeef8d981c8956a681565b610c1a82610698565b610c23816111f6565b610c2d83836112eb565b505050565b6000600160008473ffffffffffffffffffffffffffffffffffffffff1673ffffffffffffffffffffffffffffffffffffffff16815260200190815260200160002060008373ffffffffffffffffffffffffffffffffffffffff1673ffffffffffffffffffffffffffffffffffffffff16815260200190815260200160002054905092915050565b60007f01ffc9a7000000000000000000000000000000000000000000000000000000007bffffffffffffffffffffffffffffffffffffffffffffffffffffffff1916827bffffffffffffffffffffffffffffffffffffffffffffffffffffffff1916149050919050565b600033905090565b600073ffffffffffffffffffffffffffffffffffffffff168373ffffffffffffffffffffffffffffffffffffffff1603610d9a576040517f08c379a0000000000000000000000000000000000000000000000000000000008152600401610d9190611ffd565b60405180910390fd5b600073ffffffffffffffffffffffffffffffffffffffff168273ffffffffffffffffffffffffffffffffffffffff1603610e09576040517f08c379a0000000000000000000000000000000000000000000000000000000008152600401610e009061208f565b60405180910390fd5b80600160008573ffffffffffffffffffffffffffffffffffffffff1673ffffffffffffffffffffffffffffffffffffffff16815260200190815260200160002060008473ffffffffffffffffffffffffffffffffffffffff1673ffffffffffffffffffffffffffffffffffffffff168152602001908152602001600020819055508173ffffffffffffffffffffffffffffffffffffffff168373ffffffffffffffffffffffffffffffffffffffff167f8c5be1e5ebec7d5bd14f71427d1e84f3dd0314c0f7b2291e5b200ac8c7c3b92583604051610ee79190611a70565b60405180910390a3505050565b6000610f008484610c32565b90507fffffffffffffffffffffffffffffffffffffffffffffffffffffffffffffffff8114610f7a5781811015610f6c576040517f08c379a0000000000000000000000000000000000000000000000000000000008152600401610f63906120fb565b60405180910390fd5b610f798484848403610d2b565b5b50505050565b600073ffffffffffffffffffffffffffffffffffffffff168373ffffffffffffffffffffffffffffffffffffffff1603610fef576040517f08c379a0000000000000000000000000000000000000000000000000000000008152600401610fe69061218d565b60405180910390fd5b600073ffffffffffffffffffffffffffffffffffffffff168273ffffffffffffffffffffffffffffffffffffffff160361105e576040517f08c379a00000000000000000000000000000000000000000000000000000000081526004016110559061221f565b60405180910390fd5b611069838383611523565b60008060008573ffffffffffffffffffffffffffffffffffffffff1673ffffffffffffffffffffffffffffffffffffffff168152602001908152602001600020549050818110156110ef576040517f08c379a00000000000000000000000000000000000000000000000000000000081526004016110e6906122b1565b60405180910390fd5b8181036000808673ffffffffffffffffffffffffffffffffffffffff1673ffffffffffffffffffffffffffffffffffffffff16815260200190815260200160002081905550816000808573ffffffffffffffffffffffffffffffffffffffff1673ffffffffffffffffffffffffffffffffffffffff168152602001908152602001600020600082825401925050819055508273ffffffffffffffffffffffffffffffffffffffff168473ffffffffffffffffffffffffffffffffffffffff167fddf252ad1be2c89b69c2b068fc378daa952ba7f163c4a11628f55a4df523b3ef846040516111dd9190611a70565b60405180910390a36111f0848484611528565b50505050565b61120781611202610d23565b61152d565b50565b61121482826108b4565b6112e75760016005600084815260200190815260200160002060000160008373ffffffffffffffffffffffffffffffffffffffff1673ffffffffffffffffffffffffffffffffffffffff16815260200190815260200160002060006101000a81548160ff02191690831515021790555061128c610d23565b73ffffffffffffffffffffffffffffffffffffffff168173ffffffffffffffffffffffffffffffffffffffff16837f2f8788117e7eff1d82e926ec794901d17c78024a50270940304540a733656f0d60405160405180910390a45b5050565b6112f582826108b4565b156113c95760006005600084815260200190815260200160002060000160008373ffffffffffffffffffffffffffffffffffffffff1673ffffffffffffffffffffffffffffffffffffffff16815260200190815260200160002060006101000a81548160ff02191690831515021790555061136e610d23565b73ffffffffffffffffffffffffffffffffffffffff168173ffffffffffffffffffffffffffffffffffffffff16837ff6391f5c32d9c69d2a47ea670b442974b53935d1edc7fd64eb21e047a839171b60405160405180910390a45b5050565b600073ffffffffffffffffffffffffffffffffffffffff168273ffffffffffffffffffffffffffffffffffffffff160361143c576040517f08c379a00000000000000000000000000000000000000000000000000000000081526004016114339061231d565b60405180910390fd5b61144860008383611523565b806002600082825461145a9190611d70565b92505081905550806000808473ffffffffffffffffffffffffffffffffffffffff1673ffffffffffffffffffffffffffffffffffffffff168152602001908152602001600020600082825401925050819055508173ffffffffffffffffffffffffffffffffffffffff16600073ffffffffffffffffffffffffffffffffffffffff167fddf252ad1be2c89b69c2b068fc378daa952ba7f163c4a11628f55a4df523b3ef8360405161150b9190611a70565b60405180910390a361151f60008383611528565b5050565b505050565b505050565b61153782826108b4565b6115ae57611544816115b2565b6115528360001c60206115df565b604051602001611563929190612411565b6040516020818303038152906040526040517f08c379a00000000000000000000000000000000000000000000000000000000081526004016115a5919061196b565b60405180910390fd5b5050565b60606115d88273ffffffffffffffffffffffffffffffffffffffff16601460ff166115df565b9050919050565b6060600060028360026115f2919061244b565b6115fc9190611d70565b67ffffffffffffffff8111156116155761161461248d565b5b6040519080825280601f01601f1916602001820160405280156116475781602001600182028036833780820191505090505b5090507f30000000000000000000000000000000000000000000000000000000000000008160008151811061167f5761167e6124bc565b5b60200101907effffffffffffffffffffffffffffffffffffffffffffffffffffffffffffff1916908160001a9053507f7800000000000000000000000000000000000000000000000000000000000000816001815181106116e3576116e26124bc565b5b60200101907effffffffffffffffffffffffffffffffffffffffffffffffffffffffffffff1916908160001a90535060006001846002611723919061244b565b61172d9190611d70565b90505b60018111156117cd577f3031323334353637383961626364656600000000000000000000000000000000600f86166010811061176f5761176e6124bc565b5b1a60f81b828281518110611786576117856124bc565b5b60200101907effffffffffffffffffffffffffffffffffffffffffffffffffffffffffffff1916908160001a905350600485901c9450806117c6906124eb565b9050611730565b5060008414611811576040517f08c379a000000000000000000000000000000000000000000000000000000000815260040161180890612560565b60405180910390fd5b8091505092915050565b600080fd5b60007fffffffff0000000000000000000000000000000000000000000000000000000082169050919050565b61185581611820565b811461186057600080fd5b50565b6000813590506118728161184c565b92915050565b60006020828403121561188e5761188d61181b565b5b600061189c84828501611863565b91505092915050565b60008115159050919050565b6118ba816118a5565b82525050565b60006020820190506118d560008301846118b1565b92915050565b600081519050919050565b600082825260208201905092915050565b60005b838110156119155780820151818401526020810190506118fa565b60008484015250505050565b6000601f19601f8301169050919050565b600061193d826118db565b61194781856118e6565b93506119578185602086016118f7565b61196081611921565b840191505092915050565b600060208201905081810360008301526119858184611932565b905092915050565b600073ffffffffffffffffffffffffffffffffffffffff82169050919050565b60006119b88261198d565b9050919050565b6119c8816119ad565b81146119d357600080fd5b50565b6000813590506119e5816119bf565b92915050565b6000819050919050565b6119fe816119eb565b8114611a0957600080fd5b50565b600081359050611a1b816119f5565b92915050565b60008060408385031215611a3857611a3761181b565b5b6000611a46858286016119d6565b9250506020611a5785828601611a0c565b9150509250929050565b611a6a816119eb565b82525050565b6000602082019050611a856000830184611a61565b92915050565b600080600060608486031215611aa457611aa361181b565b5b6000611ab2868287016119d6565b9350506020611ac3868287016119d6565b9250506040611ad486828701611a0c565b9150509250925092565b6000819050919050565b611af181611ade565b8114611afc57600080fd5b50565b600081359050611b0e81611ae8565b92915050565b600060208284031215611b2a57611b2961181b565b5b6000611b3884828501611aff565b91505092915050565b611b4a81611ade565b82525050565b6000602082019050611b656000830184611b41565b92915050565b600060208284031215611b8157611b8061181b565b5b6000611b8f848285016119d6565b91505092915050565b60008060408385031215611baf57611bae61181b565b5b6000611bbd85828601611aff565b9250506020611bce858286016119d6565b9150509250929050565b600060ff82169050919050565b611bee81611bd8565b82525050565b6000602082019050611c096000830184611be5565b92915050565b60008060408385031215611c2657611c2561181b565b5b6000611c34858286016119d6565b9250506020611c45858286016119d6565b9150509250929050565b7f4e487b7100000000000000000000000000000000000000000000000000000000600052602260045260246000fd5b60006002820490506001821680611c9657607f821691505b602082108103611ca957611ca8611c4f565b5b50919050565b7f416363657373436f6e74726f6c3a2063616e206f6e6c792072656e6f756e636560008201527f20726f6c657320666f722073656c660000000000000000000000000000000000602082015250565b6000611d0b602f836118e6565b9150611d1682611caf565b604082019050919050565b60006020820190508181036000830152611d3a81611cfe565b9050919050565b7f4e487b7100000000000000000000000000000000000000000000000000000000600052601160045260246000fd5b6000611d7b826119eb565b9150611d86836119eb565b9250828201905080821115611d9e57611d9d611d41565b5b92915050565b611dad816119ad565b82525050565b6000602082019050611dc86000830184611da4565b92915050565b7f43616c6c6572206973206e6f742061206d696e74657200000000000000000000600082015250565b6000611e046016836118e6565b9150611e0f82611dce565b602082019050919050565b60006020820190508181036000830152611e3381611df7565b9050919050565b7f45524332303a2064656372656173656420616c6c6f77616e63652062656c6f7760008201527f207a65726f000000000000000000000000000000000000000000000000000000602082015250565b6000611e966025836118e6565b9150611ea182611e3a565b604082019050919050565b60006020820190508181036000830152611ec581611e89565b9050919050565b7f5265737472696374656420746f2061646d696e73000000000000000000000000600082015250565b6000611f026014836118e6565b9150611f0d82611ecc565b602082019050919050565b60006020820190508181036000830152611f3181611ef5565b9050919050565b600060a082019050611f4d6000830188611da4565b611f5a6020830187611da4565b611f676040830186611b41565b611f746060830185611b41565b611f816080830184611b41565b9695505050505050565b7f45524332303a20617070726f76652066726f6d20746865207a65726f2061646460008201527f7265737300000000000000000000000000000000000000000000000000000000602082015250565b6000611fe76024836118e6565b9150611ff282611f8b565b604082019050919050565b6000602082019050818103600083015261201681611fda565b9050919050565b7f45524332303a20617070726f766520746f20746865207a65726f20616464726560008201527f7373000000000000000000000000000000000000000000000000000000000000602082015250565b60006120796022836118e6565b91506120848261201d565b604082019050919050565b600060208201905081810360008301526120a88161206c565b9050919050565b7f45524332303a20696e73756666696369656e7420616c6c6f77616e6365000000600082015250565b60006120e5601d836118e6565b91506120f0826120af565b602082019050919050565b60006020820190508181036000830152612114816120d8565b9050919050565b7f45524332303a207472616e736665722066726f6d20746865207a65726f20616460008201527f6472657373000000000000000000000000000000000000000000000000000000602082015250565b60006121776025836118e6565b91506121828261211b565b604082019050919050565b600060208201905081810360008301526121a68161216a565b9050919050565b7f45524332303a207472616e7366657220746f20746865207a65726f206164647260008201527f6573730000000000000000000000000000000000000000000000000000000000602082015250565b60006122096023836118e6565b9150612214826121ad565b604082019050919050565b60006020820190508181036000830152612238816121fc565b9050919050565b7f45524332303a207472616e7366657220616d6f756e742065786365656473206260008201527f616c616e63650000000000000000000000000000000000000000000000000000602082015250565b600061229b6026836118e6565b91506122a68261223f565b604082019050919050565b600060208201905081810360008301526122ca8161228e565b9050919050565b7f45524332303a206d696e7420746f20746865207a65726f206164647265737300600082015250565b6000612307601f836118e6565b9150612312826122d1565b602082019050919050565b60006020820190508181036000830152612336816122fa565b9050919050565b600081905092915050565b7f416363657373436f6e74726f6c3a206163636f756e7420000000000000000000600082015250565b600061237e60178361233d565b915061238982612348565b601782019050919050565b600061239f826118db565b6123a9818561233d565b93506123b98185602086016118f7565b80840191505092915050565b7f206973206d697373696e6720726f6c6520000000000000000000000000000000600082015250565b60006123fb60118361233d565b9150612406826123c5565b601182019050919050565b600061241c82612371565b91506124288285612394565b9150612433826123ee565b915061243f8284612394565b91508190509392505050565b6000612456826119eb565b9150612461836119eb565b925082820261246f816119eb565b9150828204841483151761248657612485611d41565b5b5092915050565b7f4e487b7100000000000000000000000000000000000000000000000000000000600052604160045260246000fd5b7f4e487b7100000000000000000000000000000000000000000000000000000000600052603260045260246000fd5b60006124f6826119eb565b91506000820361250957612508611d41565b5b600182039050919050565b7f537472696e67733a20686578206c656e67746820696e73756666696369656e74600082015250565b600061254a6020836118e6565b915061255582612514565b602082019050919050565b600060208201905081810360008301526125798161253d565b905091905056fea2646970667358221220b113f66319ff04d2b5c31d903ffcf0586698abb53b8d308bc4dd852014c0b85c64736f6c63430008110033",
  "immutableReferences": {},
  "source": "pragma solidity ^0.8.0;\r\n\r\nimport \"@openzeppelin/contracts/token/ERC20/ERC20.sol\";\r\nimport \"@openzeppelin/contracts/access/AccessControl.sol\";\r\n\r\ncontract TutorialToken_AC is ERC20, AccessControl {\r\n   bytes32 public constant MINTER_ROLE = keccak256(\"MINTER_ROLE\");\r\n   address _owner;\r\n\r\n   constructor(\r\n        string memory name,\r\n        string memory symbol,\r\n        uint256 initialSupply) ERC20(name, symbol) {\r\n      _mint(msg.sender, initialSupply);\r\n      _owner = msg.sender;\r\n      _setupRole(DEFAULT_ADMIN_ROLE, msg.sender);\r\n      _setRoleAdmin(MINTER_ROLE, DEFAULT_ADMIN_ROLE);\r\n   }\r\n\r\n   event Debug(address user, address sender, bytes32 role, bytes32 adminRole, bytes32 senderRole);\r\n   event ChecksoloAdmin(address user);\r\n   event ChecksoloMinters(address user);\r\n\r\n   modifier soloAdmin() {\r\n      emit ChecksoloAdmin(msg.sender);\r\n      require(isAdmin(msg.sender), \"Restricted to admins\");\r\n      _;\r\n   }\r\n\r\n   modifier soloMinters() {\r\n      emit ChecksoloMinters(msg.sender);\r\n      require(isMinter(msg.sender), \"Caller is not a minter\");\r\n      _;\r\n   }\r\n\r\n   function buyProduct(address from, uint256 amount) public{\r\n      transferFrom(from, _owner, amount);\r\n\r\n   }\r\n\r\n   function isAdmin(address account) public virtual view returns (bool) {\r\n      return hasRole(DEFAULT_ADMIN_ROLE, account);\r\n   }\r\n\r\n   function isMinter(address account) public virtual view returns (bool) {\r\n      return hasRole(MINTER_ROLE, account);\r\n   }\r\n\r\n   function mint(address to, uint256 amount) public soloMinters {\r\n      _mint(to, amount);\r\n    }\r\n\r\n    function addMinterRole(address to) public soloAdmin {\r\n      emit Debug(to, msg.sender, MINTER_ROLE, getRoleAdmin(MINTER_ROLE), DEFAULT_ADMIN_ROLE);\r\n      grantRole(MINTER_ROLE, to);\r\n    }\r\n\r\n    function removeMinterRole (address to) public {\r\n      renounceRole(MINTER_ROLE, to);\r\n    }\r\n\r\n  \r\n\r\n\r\n}\r\n\r\n",
  "sourcePath": "C:\\Users\\smuto\\OneDrive\\GameShop\\Test\\contracts\\TutorialToken_AC.sol",
  "compiler": {
    "name": "solc",
    "version": "0.8.17+commit.8df45f5f.Emscripten.clang"
  },
  "schemaVersion": "3.4.11",
  "updatedAt": "2023-01-24T17:31:31.271Z",
  "networkType": "ethereum",
  "devdoc": {
    "kind": "dev",
    "methods": {
      "allowance(address,address)": {
        "details": "See {IERC20-allowance}."
      },
      "approve(address,uint256)": {
        "details": "See {IERC20-approve}. NOTE: If `amount` is the maximum `uint256`, the allowance is not updated on `transferFrom`. This is semantically equivalent to an infinite approval. Requirements: - `spender` cannot be the zero address."
      },
      "balanceOf(address)": {
        "details": "See {IERC20-balanceOf}."
      },
      "decimals()": {
        "details": "Returns the number of decimals used to get its user representation. For example, if `decimals` equals `2`, a balance of `505` tokens should be displayed to a user as `5.05` (`505 / 10 ** 2`). Tokens usually opt for a value of 18, imitating the relationship between Ether and Wei. This is the value {ERC20} uses, unless this function is overridden; NOTE: This information is only used for _display_ purposes: it in no way affects any of the arithmetic of the contract, including {IERC20-balanceOf} and {IERC20-transfer}."
      },
      "decreaseAllowance(address,uint256)": {
        "details": "Atomically decreases the allowance granted to `spender` by the caller. This is an alternative to {approve} that can be used as a mitigation for problems described in {IERC20-approve}. Emits an {Approval} event indicating the updated allowance. Requirements: - `spender` cannot be the zero address. - `spender` must have allowance for the caller of at least `subtractedValue`."
      },
      "getRoleAdmin(bytes32)": {
        "details": "Returns the admin role that controls `role`. See {grantRole} and {revokeRole}. To change a role's admin, use {_setRoleAdmin}."
      },
      "grantRole(bytes32,address)": {
        "details": "Grants `role` to `account`. If `account` had not been already granted `role`, emits a {RoleGranted} event. Requirements: - the caller must have ``role``'s admin role. May emit a {RoleGranted} event."
      },
      "hasRole(bytes32,address)": {
        "details": "Returns `true` if `account` has been granted `role`."
      },
      "increaseAllowance(address,uint256)": {
        "details": "Atomically increases the allowance granted to `spender` by the caller. This is an alternative to {approve} that can be used as a mitigation for problems described in {IERC20-approve}. Emits an {Approval} event indicating the updated allowance. Requirements: - `spender` cannot be the zero address."
      },
      "name()": {
        "details": "Returns the name of the token."
      },
      "renounceRole(bytes32,address)": {
        "details": "Revokes `role` from the calling account. Roles are often managed via {grantRole} and {revokeRole}: this function's purpose is to provide a mechanism for accounts to lose their privileges if they are compromised (such as when a trusted device is misplaced). If the calling account had been revoked `role`, emits a {RoleRevoked} event. Requirements: - the caller must be `account`. May emit a {RoleRevoked} event."
      },
      "revokeRole(bytes32,address)": {
        "details": "Revokes `role` from `account`. If `account` had been granted `role`, emits a {RoleRevoked} event. Requirements: - the caller must have ``role``'s admin role. May emit a {RoleRevoked} event."
      },
      "supportsInterface(bytes4)": {
        "details": "See {IERC165-supportsInterface}."
      },
      "symbol()": {
        "details": "Returns the symbol of the token, usually a shorter version of the name."
      },
      "totalSupply()": {
        "details": "See {IERC20-totalSupply}."
      },
      "transfer(address,uint256)": {
        "details": "See {IERC20-transfer}. Requirements: - `to` cannot be the zero address. - the caller must have a balance of at least `amount`."
      },
      "transferFrom(address,address,uint256)": {
        "details": "See {IERC20-transferFrom}. Emits an {Approval} event indicating the updated allowance. This is not required by the EIP. See the note at the beginning of {ERC20}. NOTE: Does not update the allowance if the current allowance is the maximum `uint256`. Requirements: - `from` and `to` cannot be the zero address. - `from` must have a balance of at least `amount`. - the caller must have allowance for ``from``'s tokens of at least `amount`."
      }
    },
    "version": 1
  },
  "userdoc": {
    "kind": "user",
    "methods": {},
    "version": 1
  }
}